:020000040800F2
:10000000F8FF0420250102089FEF04088DEF040883
:10001000A1EF0408ADEF0408B9EF040800000000E8
:10002000000000000000000000000000C5EF040810
:10003000C7EF04080000000065FF04089DFF0408E6
:1000400001000208B1F00408C3F00408C9F0040874
:10005000C18305080100020845F004084BF00408BC
:1000600051F0040857F004085DF004085121050818
:1000700061210508712105088121050891210508E4
:10008000A1210508B12105080100020801000208AC
:1000900041430508494305085143050863F0040836
:1000A000DDF00408E3F00408F5F00408FBF00408B0
:1000B00001F1040807F104080DF104088DF10408AA
:1000C00093F104080100020801000208010002087F
:1000D000010002085DF1040863F1040869F10408F5
:1000E00087F00408B7F00408D5EF040839F10408D4
:1000F0003FF1040857F1040851F10408C121050833
:10010000010002080100020815F1040801000208BC
:100110006FF1040875F104082DF1040833F10408A7
:10012000D1210508E1210508F12105080122050872
:10013000112205083D580508BDF004080100020819
:10014000574305085F43050867430508C9EF0408DE
:100150002122050831220508412205087BF1040807
:1001600099F104089FF10408010002080100020847
:10017000010002080100020801000208000000005E
:10018000010002080100020881F1040887F1040857
:100190000100020801000208010002080100020833
:1001A0000100020801000208010002080100020823
:1001B0000100020801000208010002080100020813
:1001C000010002080100020842884378007843EAEF
:1001D000022340EA032070470B0A017043700B0CA6
:1001E000090E8370C1707047036A0239023B8B426B
:1001F00083BFC389406B01FB0300002070470246A8
:1002000000F10B010020C30143EA500312F8010B77
:1002100050FA83F38A42D8B2F5D1704737B50D460C
:10022000044620B9092000232B6003B030BD0368C9
:10023000002BF7D05A79002AF4D081885A8991424C
:10024000F0D118680DF10702062102F0F9FA9DF8C5
:10025000073003F00103184310F0FF00E2D12368D8
:10026000E2E738B50468054614F8010B20B140F206
:10027000B51159F037F808B12C6038BD4FF0FF3098
:10028000FBE70328CA7E8B7E08BF487D43EA022332
:1002900002BF0A7D42EA002243EA02431846704741
:1002A000C2F307238A76CB760378032B01BF120CA7
:1002B0000A75120A4A75704770B5C379044613B9B6
:1002C0000025284670BD00F13C06826B01230068C2
:1002D000314602F0A0FA054680B9A16BE36A626A72
:1002E000CB1AE0719342EBD2A379022BE8D10A44F6
:1002F00001233146206802F08EFAE2E70125E0E7AB
:1003000038B5836B05460C468B4214D0FFF7D4FFFB
:10031000034670B90123224605F13C01286802F02A
:100320006BFA0028034616BF4FF0FF340346012343
:10033000AC63184638BD0023FBE7000038B5002346
:100340000546C3714FF0FF338363FFF7D9FF0446BF
:1003500018BB95F83B2295F83A3243EA02234AF655
:10036000552293421BD195F83C30EB2B03D0183328
:10037000DBB2012B15D803220B4905F1720044F0C2
:100380001BFD40B10522094905F18E0044F014FD22
:10039000002818BF0224204638BD0424FBE70324AC
:1003A000F9E70224F7E700BFA33B0808A73B0808CA
:1003B0002DE9F047437986B0044601F0FE0593B17C
:1003C0000DF107020621006802F03AFA9DF80730A5
:1003D000DA0708D41DB113F0040500D00A25284619
:1003E00006B0BDE8F08700230DF107020521206863
:1003F000637102F025FA9DF8073013F0010640F012
:100400000F810DB15B07E9D400212046FFF796FF6D
:100410000228034603D0012824D825797DB302ADF4
:1004200004F2022104F24227A84611F8040C10B18C
:100430000846FFF7C9FE103145F8040B8F42F4D18E
:10044000277907B1013F58F827507DB1294620464A
:10045000FFF774FF0346227952B9012B0FD90137F8
:10046000032FF0D9042B07D1012606E00323F2E77E
:10047000042BF9D0012B02D90D263546AFE794F8AD
:10048000482094F8473043EA0223B3F5007FF3D1C4
:1004900094F8533094F8528058EA032804D104F1B8
:1004A0006000FFF791FE804694F84C10C4F8248059
:1004B0004B1EA171012BDFD894F84970BBB2E381C8
:1004C000002BD9D07B1E3B42D6D194F84E9094F8A5
:1004D0004D3043EA09230FFA83F91FFA89FA1AF01B
:1004E0000F0FA4F80CA0C7D194F8503094F84F0027
:1004F00050EA032003D104F15C00FFF765FE94F895
:100500004BE094F84A3053EA0E2EB5D008FB01FCBC
:100510000EEB1A1262448242AED8801AB842B0FB87
:10052000F7F1A9D3434B9942A6D84FF6F5739942F8
:1005300078D9032702310EEB05032A44032F2162E9
:10054000A562E36262635AD194F8672094F866303A
:1005500043EA022349EA03031BB2002B8CD104F1C6
:100560006800FFF731FE2063890001F2FF11B8EB4C
:10057000512F81D34FF0FF33032FC4E905334FF0E0
:10058000800323722FD194F86D2094F86C3043EAE5
:100590000223012B27D1691C2046FFF7B1FE10BBB7
:1005A00094F83B2294F83A32207243EA02234AF646
:1005B0005522934217D104F13C00FFF705FE1E4B74
:1005C000984210D104F50870FFF7FEFD1B4B9842CE
:1005D00009D104F50970FFF7F7FDA06104F50A7071
:1005E000FFF7F2FD6061164A6771138801339BB211
:1005F00013806381134B23610023E3613DE7BAF16C
:10060000000F3FF439AF6344022F23634FEA4103E5
:100610001BBF5B1801F00101194601EB5301A4E770
:100620000325DCE640F6F577B9428CBF02270127A7
:1006300080E700BFF5FFFF0F5252614172724161C6
:10064000CCC00120CEC0012001292DE9F04705468C
:100650000C46174673D9036A8B4270D94379022B33
:1006600040D0032B51D0012B69D101EB5108C16A55
:1006700001EB5821FFF744FE064640BB14F001048D
:1006800005F13C0908F1010AC8F3080808BFFBB2EC
:1006900028461FBF19F8083003F00F023B0103F092
:1006A000F00318BF134309F808300123E96AEB711E
:1006B00001EB5A21FFF724FE064640B9CAF3080AA7
:1006C00044B1C7F3071709F80A700123EB713046EC
:1006D000BDE8F08719F80A30C7F3032723F00F03AA
:1006E0001F43F0E7C16A01EB1421FFF709FE06463C
:1006F0000028ECD1640005F13C0304F4FF741F559D
:100700001A19C7F307275770DFE7C16A01EBD41145
:10071000FFF7F6FD06460028D9D1A40005F13C03F9
:1007200027F0704704F4FE741C442046FFF74CFD8C
:1007300000F0704120463943FFF74EFDC5E7022621
:10074000C5E70129F8B505460C4652D9036A994216
:100750004FD24379022B29D0032B38D0012B48D11B
:1007600001EB5106C16A01EB5621FFF7C9FD10B13B
:100770004FF0FF30F8BD771CC6F30806E96A28463B
:100780002E4401EB572196F83C60FFF7B9FD002895
:10079000EED1C7F30807E3073D4495F83C0046EA6D
:1007A00000204CBF0009C0F30B00E3E7C16A01EB76
:1007B0001421FFF7A5FD0028DAD164003C3504F4CC
:1007C000FF742B19285D5B7840EA0320D2E7C16AE9
:1007D00001EBD411FFF794FD0028C9D1A40005F165
:1007E0003C0004F4FE742044FFF7EEFC20F070405F
:1007F000C0E70120BEE7B1F5001FF8B506460D467B
:1008000001D30220F8BDCA06FBD1826804683161B9
:10081000CAB96379022B01D9236B9BB9A389B3EBC6
:10082000551FEED9236BB361B3697261002BE8D019
:1008300003EB55233C34C5F308050020B3612C4479
:10084000F461DFE71A46E7897F02BD42114604D210
:100850002046FFF7C9FCB061E6E73068FFF771FF9B
:10086000431C024606D00128CBD9236A8342C8D94B
:10087000ED1BEAE70120C5E72DE9F0418046056858
:100880000F4649B96E69C6B12B6AB34298BF0126BB
:10089000AB69A3B9002406E02846FFF752FF012800
:1008A000044603D801242046BDE8F081421C51D003
:1008B0002B6A8342F7D83E46EAE70126E8E7BE42C4
:1008C00015D12B6A741CD8F80000A34298BF0224EB
:1008D0002146FFF736FF0128E4D0431C3AD0D8B1B7
:1008E0006B69012B03D92A6A934238BF1E463446EE
:1008F00001342B6AA34202D8012ECBD9022421460F
:10090000D8F80000FFF71DFF40B10128CAD0013020
:1009100020D0B442ECD1BDE7002CE8D04FF0FF323C
:1009200021462846FFF790FE90B957B92A6AAB696D
:10093000023A6C61934210D92B7A43F001032B7277
:10094000B1E7224639462846FFF77EFE0028EDD063
:100950000128A7D14FF0FF34A5E7013BAB61EBE7DE
:10096000F8B50D46074611460468012D2BD9236AB8
:10097000AB4228D92AB14FF0FF322046FFF764FE80
:1009800030B929463868FFF7DCFE064608B9002072
:10099000F8BD012817D0431C17D000222946204655
:1009A000FFF752FE0028F3D1226AA369911E8B4201
:1009B00005D20133A361237A43F001032372B242CB
:1009C0003546DED8E3E70220E2E70120E0E7F8B5AC
:1009D00005460E46FFF770FC0446F8B9314605F1AE
:1009E0003C062846FFF700FC4FF400720746A86358
:1009F0002146304644F0CAF9EB899C4204D3E88989
:100A0000001B18BF0120F8BD01233A1931462868A0
:100A100001F001FF0028F2D10134EDE70120F2E7F7
:100A20002DE9F84307690446894605682037B7F57C
:100A3000001F24BF00238361836973B1C7F30808D3
:100A4000B8F1000F39D101334169836139B9AB89FC
:100A5000B3EB571F31D80023A36104200BE0EB89CF
:100A6000013B13EA572328D12846FFF76AFE0128E5
:100A7000064602D80220BDE8F883421C01D10120BD
:100A8000F9E72B6A834212D8B9F1000FE3D061690C
:100A90002046FFF7F1FE0646A8B10128EAD0431C24
:100AA000EDD001462846FFF792FF0028E7D16661A6
:100AB00031462846FFF798FBA0613C3527610020AE
:100AC0004544E561D7E70720D5E7F8B50F46002193
:100AD00004460668FFF78FFEA8B90546A1693046AF
:100AE000FFF70EFC78B9E3691B78E52B00D01BB942
:100AF0000135BD4201D1F8BD054601212046FFF771
:100B00008FFF0028EAD0042808BF0720F3E7000081
:100B10002DE9F84FFF2581460F4606682C464FF019
:100B2000040A4FF6FF78D9F8181019B9BAF1000F76
:100B300078D067E03046FFF7E3FB8246002861D1BA
:100B4000D9F81C000378002B76D0C27AE52B02F08E
:100B50003F0289F806205BD02E2B59D022F02001CD
:100B6000A1F1080CDCF1000141EB0C01B9424FD1BD
:100B70000F2A52D1590649D5D9F8102003F0BF03E6
:100B8000457BC9F82C20427BAA4241D1C17E827E9E
:100B900042EA012212B2002A3AD101780D24D6F895
:100BA00010C04FF0010E21F04001DFF894A0013990
:100BB00061431AF8014B00EB040B045D9BF801B094
:100BC00044EA0B24BEF1000F24D0FF2920D82CF8D2
:100BD0001140A646013101320D2AEAD102785206AF
:100BE00007D5BEF1000F04D0FF2911D800222CF840
:100BF00011205C1EE4B200214846FFF711FF824637
:100C0000002890D00023C9F818300DE09C42BAD0DB
:100C1000FF24F0E74445DED0FAE744B9FFF7EFFAE6
:100C2000A84204D14FF0000A5046BDE8F88F4FF0BB
:100C3000FF33C9F82C30F7E74FF0040AE2E700BFB2
:100C4000843B0808C16A4B1C2DE9F0410446056845
:100C5000066918D1E5274FF00108A1692846FFF77A
:100C60004FFB60B9E3691F7085F807802369B342C1
:100C70000DD201462046FFF7D3FE0028EDD0042810
:100C800008BF022003E0FFF7B6FD0028E2D0BDE870
:100C9000F08100002DE9F04F002185B00446D0F826
:100CA0000080FFF7A8FD8146002840F08C804FF0BF
:100CB000FF0A4FF0FF335746E3620093A1694046B5
:100CC000FFF71EFB814600287DD1E5692E78002EB6
:100CD0007DD0EA7AE52E02F03F03A37103D010071E
:100CE00004D50F2B04D0009BE36252E00F2B57D1A9
:100CF00094F82B30590642D4720648D5236906F081
:100D0000BF0695F80DA0E3626B7B534541D1EA7EA7
:100D1000AB7E53EA02233CD12F780121D8F810B0E2
:100D200007F03F077B1E0D275F432A4B13F8012B6B
:100D3000A81815F80290407849EA002959B3FF2F06
:100D4000039326D8484658F0E1FA7A1C02903BF803
:100D50001700019258F0DAFA0299814219D1019AEA
:100D60004946039B17461C4A9A42DFD12B785B0603
:100D700003D511B13BF817305BB9013EF7B2002142
:100D80002046FFF74DFE8146002897D01BE0B74272
:100D9000BAD0FF27F3E74FF6FF729145E3D0F8E7AB
:100DA00027B92846FFF72BFA50450CD094F82B9022
:100DB00019F0010997D10B2204F12001284643F0D4
:100DC000FBFF00288FD1484605B0BDE8F08F4FF0FB
:100DD0000409F8E7843B0808913B08082DE9F04F27
:100DE00090F82BB089B005461BF0A00440F0E180DC
:100DF00007683A6932F81430002B6BD105F12006F0
:100E00000DF1140A1BF0010F96E807008AE80700AD
:100E100000F0D68040234FF0010885F82B30B4460F
:100E20003B69B8F1050F9AE80700ACE803002CF81D
:100E3000022B4FEA12428CF800205ED9981E4246DF
:100E400030F8021F002947D10DF1130C072102F0E1
:100E50000F0E01390EF13000392888BF0EF137002E
:100E60000F2A0CF801094FEA121048D808AB7E206F
:100E70005A1802F8140C05F11F00002284468A4219
:100E800006D01CF801EF02F10109BEF1200F38D1A4
:100E9000072902F1010297BF08AB4FF0200C03EBCA
:100EA000010C013198BF1CF814CC072A00F802C0CD
:100EB000EED92846FFF7EEFE814600287CD108F1E6
:100EC0000108B8F1640FAAD14FF00709484609B0EC
:100ED000BDE8F08F01348DE74FF0100C01F0010EEA
:100EE00049080EEB4202D30344BF82F4883282F0F9
:100EF0002102BCF1010CF1D1A2E74246A4E702466F
:100F0000A5E74A46BBE729692846A1EB4411FFF74C
:100F100072FC81460028D9D14FF6FF783046FFF7A2
:100F20006EF90190A9693846FFF7EAF98146002871
:100F3000CCD1EB69E1B2019A4FF00D0CD7F810E07B
:100F40005A734FF00F02DFF8DCA0DA724A1E1873F2
:100F50000CFB02F284469876D87640451AF8019B3D
:100F60000CF1010C18BF3EF8120003EB090B18BF7F
:100F7000013203F809004FEA1029002808BF404653
:100F8000BCF10D0F8BF80190E7D1404502D03EF83F
:100F900012200AB941F040011970012300212846AE
:100FA000FB71FFF73DFD814600288FD1013CB9D18F
:100FB0001AE04FF0060989E7042887D185F82BB09D
:100FC0001BF0020F28461BBF0C340D230124B4FB79
:100FD000F3F418BF01342146FFF777FD814600285E
:100FE0007FF474AF013C8ED1A9693846FFF788F9C8
:100FF000814600287FF46AAF01462022E86943F069
:10100000C5FEEB6903CE18605960B27831889A72D8
:10101000198195F82B30EA6903F018031373012343
:10102000FB7153E7843B0808F8B50446FFF744F921
:101030000546002842D16379032B37D1277A012F47
:1010400034D104F13C0601464FF40072304643F0BF
:101050009DFE55234122722184F83A32AA2384F856
:101060003F2004F5097084F83B32522384F8222291
:1010700084F83C3084F83D30612384F8201284F8F1
:101080003E3084F8233284F82112A169FFF7A4F8D6
:10109000616904F50A70FFF79FF8A26A3B46314682
:1010A00001322068A26301F0B6FB2572002220689D
:1010B000114601F0C5FB003018BF0120F8BD2DE935
:1010C000F0470026D0F800A080460C468E75836954
:1010D000002B00F09280C36A01336DD1D8F81C1048
:1010E00000232E264D1E184615F8012F0130202A08
:1010F0000CD0052A08BFE522092804D10B2B9EBF7E
:10110000E71801337E72E71801337A720B28EBD1AE
:10111000E21800205072A27D002A5DD1002B52D02F
:101120006FF0080604F109000825361B321810F884
:10113000013B002B4AD09BB22E2B60D0A3F1410281
:10114000192A03D80A7B154200D020330373EDE738
:10115000B9F1000F05D100F520539BB2B3F5006F34
:1011600012D340F2B51140EA094058F09BF8FF282D
:10117000C7F1FF0519D9012D21D9E319020AD87544
:101180009A7502231F44002002368146DAF8103097
:10119000985B0028DCD13D46B9F1000F4FF0000309
:1011A00018BF00252544AB7598E750B1002DF3D04A
:1011B000E31998750123E5E7B1463746E6E70025D0
:1011C000EAE70546E8E73F230122A375002322440E
:1011D00093750B7B03B96372CB7A01F11C00237208
:1011E000FEF7F2FF2060CA7D8B7D43EA0223E38095
:1011F0004A7E0B7E43EA0223A380BDE8F0871025D8
:10120000A4E700002DE9F04F0B7887B0064688462A
:101210002F2BD0F800B001D05C2B09D142461378B7
:10122000904601322F2BFAD05C2BF8D0002301E03E
:10123000DBF81C30B36098F800301F2B00F22A81D5
:1012400080230021304686F82B30FFF7D4FA07B010
:10125000BDE8F08FFE2D00F246812AF815300135E9
:101260001EE108F101020592DDF8148098F80020D3
:101270002F2AF6D05C2AF4D0202B34BF042400247B
:10128000012D2CD1BAF800302E2B2ED1002306F1DF
:1012900020022AF815309D428CBF2E2120210133D7
:1012A0000B2B02F8011BF6D144F0200486F82B40EA
:1012B0003046FFF7EFFC96F82B30002800F0D9807D
:1012C0000428C4D1990603F0040240F1CE80002A1C
:1012D00000F0E0808023002086F82B30B7E7022D55
:1012E00003D1BAF802302E2BCCD00AEB45037DBBDC
:1012F00000210AEB45032AF81510002D00F0F380B9
:101300003AF81120481C202A2AD009B92E2A01D1E6
:1013100044F0030433F8022D2E2A01D0013DF9D107
:101320004FF000094FF0203208234F4672623262BC
:10133000C6F827203AF811004A1CF8B1202803D03B
:101340002E280FD1954211D044F003041146F1E745
:1013500033F8022D202A01D02E2AC9D1013DC6E73B
:101360000146CDE7994504D2954233D10B2B2AD1C2
:1013700001E00B2B22D144F003040B2396F820202C
:10138000E52A04BF052286F82020082B04BFBF00F1
:10139000FFB207F00C030C2B03D007F00303032B61
:1013A00001D144F00204A30780D4FD0748BF44F0F4
:1013B0001004780748BF44F0080477E7954202D04C
:1013C00044F00304DAD3BF002A460B234FF0080988
:1013D000FFB2BBE77F2813D940F2B511CDE9022354
:1013E00044F00203019357F05DFF10F0800FDDE938
:1013F000022310D000F07F003D49085C019C30B111
:10140000DFF8F4C01CF8011BE9B18142FAD144F0C5
:1014100003045F2010E0FF28F0D9591E894503D34B
:1014200044F00304994691E706EB0901040A09F127
:10143000010981F82040019C06EB090109F101092D
:1014400081F8200082E7A0F1410189B2192902D870
:1014500047F00207F0E7A0F1610189B219299EBFA8
:10146000203847F0010780B2E6E7002A08BF0520D0
:10147000EDE65A073FF5EBAEB379DB0635D53369B8
:101480000BF13C019BF80500C3F308031944FEF778
:10149000F8FEB06033680025CDF81480D3F810A0B2
:1014A00005A8FEF7DEFE421C1DD0B0F5803F24BF2C
:1014B000030C2AF8153083B228BF01351F2B7FF6A5
:1014C000D3AE2F2B3FF4D0AE5C2B3FF4CDAE7F2BB1
:1014D0003FF6C0AE1846074911F8012B002A3FF429
:1014E000B9AE8242F8D10620B1E60520AFE600BFD2
:1014F000043B0808FE3B0808073C0808002141712E
:10150000FEF756BF2DE9F04305468DB090461E46C6
:101510000C46002900F0BD8003F03F073946FEF776
:1015200047FF002840F0AD80414668460095FFF730
:1015300069FE024620B99DF92B30002BB8BF062268
:1015400016F01C0F6DD0002A3ED0042A39D168460F
:10155000FFF744FC0246A0BB47F00807DDF81C90EB
:101560002E46494616F8050FFEF78BFE804657F0CB
:10157000E5F8014609F10E00FEF72EFE079B20223A
:101580003046DA7200220799FEF78AFE079B002296
:101590001A775A779A77DA770123EB71B8F1000F4F
:1015A0001BD041466846AE6BFFF7DAF9024640B9F8
:1015B00031462846FEF7A4FE08F1FF310246696174
:1015C00058B10023236028E09DF8063013F0110F76
:1015D00031D1700757D43107C0D4AB6B3907079EA0
:1015E000236248BF47F04007666231466879FEF7DC
:1015F00048FE0146A06006F11C00FEF7E5FD6B8980
:10160000BA060646A3804FF00003E0602560277409
:101610006374E361636110D4002210460DB0BDE82D
:10162000F083002ACDD19DF80630DA062DD4B60716
:10163000D3D5D807D1D50722C3E70028ECD0EF894E
:1016400060617F02B7420FD30022A161002AB8D1A6
:10165000C6F30803002BDFD02846FEF7C5FDB0B166
:1016600000EB5620E061D8E72068F61BFFF769F829
:101670000128014603D9431CE4D10122E5E70222F7
:10168000E3E702469DE708229BE7042299E702224E
:1016900097E70922C1E72DE9F04F9A4685B000236C
:1016A000894603A90446CAF800301546FEF7B6FD80
:1016B0000646F0B9667CE6B9237C13F0010301937A
:1016C0007DD0E3686769DF1BAF4228BF2F4687B133
:1016D0006269C2F30803002B58D1039BDB89013BED
:1016E00013EA522815D142B9A06801280AD8022667
:1016F0006674304605B0BDE8F08FA1692068FFF739
:1017000020F8F2E7431C03D10123019E6374F0E744
:10171000A061DDF80CB0A1695846FEF765FD002810
:10172000E5D008EB0003B7F5007F00932CD37D0ACA
:10173000BBF80E20DBF8000008EB0501914249469A
:1017400088BFA2EB0805009A2B4601F055F8002847
:10175000DAD10399CB795BB1886B009BC01AA842A0
:1017600006D24FF400723C3109EB402043F0CAFA34
:101770006D02DAF800307F1BA9442B44CAF8003010
:1017800063691D446561A2E7009BE3616569E169E6
:10179000C5F308050398C5F50075BD4228BF3D4651
:1017A000FEF7AEFD0028AFD103992A46636948468B
:1017B0003C31C3F30803194443F0A4FAD9E70726E0
:1017C00097E72DE9F04F9B4685B00023894603A992
:1017D0000446CBF800301746FEF720FD064618BB3E
:1017E000667C0EBB237C9A0740F1AA806369FB42AA
:1017F00000D3DF43A7B16369C3F30802002A40F0B6
:101800008280039AD289013A12EA532201921ED1B0
:1018100073B9A06870B901462046FFF72DF848B9A2
:10182000237C43F040032374304605B0BDE8F08FBD
:10183000A169F1E7012802D102266674F4E7431C8E
:1018400001D10126F9E7A368A06103B9A06003985C
:10185000E369826B9A4203D1FEF72EFD0028F0D196
:10186000DDF80CA0A1695046FEF7BEFC0028E3D0CD
:10187000019BB7F5007F03EB000836D37D0A019A80
:10188000BAF80E3049462A44DAF800009A4284BF7A
:10189000019A9D1A42462B4600F0BDFF0028D0D188
:1018A000DDF80CA0DAF83810A1EB0801A9420BD240
:1018B00001904FF4007209EB41210AF13C0043F022
:1018C00021FA019B8AF807306D02DBF800307F1B9C
:1018D000A9442B44CBF8003063691D44E36865617B
:1018E000AB422CBFE360E56084E76269E3689A423B
:1018F00007D35046FEF7E0FC0028A2D1039BC3F8B3
:101900003880C4F81C806569E169C5F3080503984F
:10191000C5F50075BD4228BF3D46FEF7F1FC002825
:101920008FD103982A46636949463C30C3F30803C4
:10193000184443F0E7F9039B4FF00102DA71C4E762
:10194000072671E7F7B501A90546FEF767FC0446CF
:1019500068BB2C7C14F0400429D056F0EFFE296AB5
:1019600007460198FEF7CCFC044600BB6E6AF37A8A
:10197000314643F02003F3722868AA680530FEF769
:101980008FFCE96806F11C00FEF726FC394606F1DB
:101990001600FEF721FC01230198B474F474C3719E
:1019A000FFF742FB2B7C044623F040032B742046B8
:1019B00003B0F0BD13B50446FFF7C4FF28B901A971
:1019C0002046FEF72BFC00B9206002B010BD70B5B8
:1019D0000E468CB000210546FEF7EAFC044660B9CD
:1019E000314668460095FFF70DFC044690B99DF915
:1019F0002B30002B04DA029BEB6120460CB070BD4B
:101A00009DF80630DB0609D507996879FEF739FCA1
:101A1000E861F2E7042808BF0524EEE70524ECE7B7
:101A20002DE9F0470E460021D2B080463170914634
:101A3000FEF7BEFC0546D8B9D8F81C304F46CDF8A5
:101A400000800293DDF808A0BAF1000F16D14F45CF
:101A500004BF07F1FF372F23A7EB060108BFF3559B
:101A60003346DA5D01361A70721833469145F8D85C
:101A700000232846337052B0BDE8F0872021684625
:101A8000FEF7B9FE00284CD106994046FEF738FC17
:101A90000446002843D1079998F80500FEF7F1FBAA
:101AA000214602906846FEF7A6FE002839D10021A3
:101AB0006846FFF72DF80446B8BB079998F805006B
:101AC000FEF7DFFB50450AD021466846FEF7A8FF27
:101AD0000028ECD00546042D08BF0225C8E70CA954
:101AE0006846FFF7ECFA0DF14602214612F8010BA9
:101AF0004B1C58B99F4216D3F2190B4643B97B1EB3
:101B00002F225B1AC943F2540F449BE71946EDE7B5
:101B1000013B0CA81844807D02F8010DEEE7054654
:101B2000A6E70546A4E71125A2E70546D3E72DE978
:101B3000F3410D4601A90446FEF770FB0646002856
:101B400050D1667C002E4DD1E368AB4204D2227C9A
:101B500012F0020F08BF1D460022636962619DB941
:101B60000025E2686369934284BF227CE360C3F38B
:101B7000080384BF42F040022274002B32D0E36994
:101B8000AB4218BFE5612DE0019AD7897F02FBB116
:101B9000013B6A1EB3FBF7F1B2FBF7F28A4217D39F
:101BA0007A42A1691340ED1A63610029D8D0BD4281
:101BB000636922D863692B446361C5F30803002B72
:101BC000CED00198FEF710FB50B100EB5525C8E7C9
:101BD000A16881B92046FEF74FFE0128014605D1D4
:101BE00002266674304602B0BDE8F081013001D1B2
:101BF0000126F6E7A160A161D7E73B44A5EB070802
:101C00006361237C9A0706D52046FEF735FE05461C
:101C100028B90146CEE72068FEF793FD05466B1C08
:101C2000E6D0012DDCD9019B1B6AAB42D8D9A56156
:101C300029464546BBE770B5054616460C4621B316
:101C40000021FEF7B5FB68B9256031462046FFF755
:101C5000D9FAE0B994F92B30002B0BDBA379DB0622
:101C600003D40520002323600EE06879E169FEF7C4
:101C700008FBA0606B8900212046A380FEF7BBFD16
:101C80000428EED00028EDD170BD0920FCE704281F
:101C9000E7D0E7E713B501A90446FEF7BFFA00B99C
:101CA000206002B010BD73B50D4601A90446FEF7D1
:101CB000B5FA20B9014620461DB9FEF79CFD02B0D9
:101CC00070BDFEF725FF10F0FB06F8D1294620462F
:101CD000FFF7F5F931462046FEF7A2FE042808BFBB
:101CE0000020ECE770B504468CB00E460021154686
:101CF000FEF75EFB0094044670B931466846FFF774
:101D000081FA044640B99DF92B30002B07DB1DB149
:101D100029466846FFF7D3F920460CB070BD06246B
:101D2000FAE72DE9F84F884600210446FEF740FB0C
:101D3000074640B9D4F820A0A369AAF10202934251
:101D400004D8C8F800303846BDE8F88F6379012B15
:101D500017D10226054631462046FEF7F2FC431C09
:101D600038D0012838D000B901350136236AB34292
:101D7000F1D8C8F80050237AA56143F0010323721B
:101D8000E1E7E16A0646054604F13C0936B920461A
:101D900001F1010BFEF7B4FA00BB5946637909EB78
:101DA0000600022B0DD119F806300236427853EAAC
:101DB000022308BF0135BAF1010AC6F30806E5D1CE
:101DC000D7E7FEF701FA30F0704306F1040608BFCA
:101DD0000135F0E70127CCE70227CAE70746C8E745
:101DE000F0B50E4699B002210546FEF7E1FA044629
:101DF00088B9314668460095FFF704FA044650B9A1
:101E00009DF82B3098063BD4190639D49DF80670FE
:101E1000FA0703D50724204619B0F0BD0799687961
:101E2000FEF72FFAFB0606460BD46846FEF70AFFBC
:101E300004460028EFD1D6B92846FFF7F5F8044646
:101E4000E9E7EB698342E5D00E9021460CA80C959A
:101E5000FEF7D1FC04460028DDD101460CA8FEF7B0
:101E600057FE04460028D5D00428D4D1DDE7024629
:101E700031466846FEF774FD04460028CBD1DBE707
:101E80000624C8E72DE9F0430E4691B0022105462D
:101E9000FEF78EFA044600286BD1314604A804955B
:101EA000FFF7B0F90446002871D0042861D19DF8ED
:101EB0003B1011F020016CD168460095FEF7DCFC68
:101EC0000646002859D0012859D0431C5C425C4189
:101ED00056F034FC8046002C53D131462846FEF79C
:101EE00076FD044600284CD14FF0203305F13C0428
:101EF0006F1D4146EB6305F152002B64C5F843307A
:101F00002E2385F83C30102385F84730FEF764F91E
:101F1000324621463846FEF7C3F905F15C031A46FE
:101F200051F8040B994242F8040BF9D12E234FF0DB
:101F30000109069A384685F85D30FEF7B1F985F853
:101F4000079004A8FEF74AFF0446D0B90B98414613
:101F50001630FEF741F932460B993846FEF7A0F9E4
:101F60000B9B10222846DA7285F80790FFF75CF881
:101F70000446204611B0BDE8F0830724A8E70224F8
:101F8000A6E7002231466846FEF7EAFCF1E708249E
:101F9000EFE70624EDE7F0B50C46A1B002210646B6
:101FA0001746FEF705FA002878D1214608A80896BA
:101FB000FFF728F9002871D19DF84B3013F0A00FDE
:101FC0006ED10F9B6C4603F120051868083353F857
:101FD000041C2246AB4203C21446F6D108AD14AC31
:101FE0000FCD0FC40FCD0FC495E80F0084E80F008C
:101FF000394614A8FFF706F948B9169A0A9B9A427F
:1020000003D1189A0C9B9A4203D0082046E004287A
:1020100044D114A8FEF7E2FE00283FD11B990DF130
:102020000D030DF11D0001F10D0253F8044B834225
:1020300042F8044BF9D11888012410809B789370E2
:102040009DF80B30DA0658BF43F02003CB72F471D1
:10205000CB7ADB061BD50A9A169B9A4217D0707969
:10206000FEF70FF901463046FEF7BEF80146C8B14B
:102070003046FEF745F988B996F85D302E2B06D12B
:10208000169A06F15C01701DFEF70AF9F47108A8B2
:10209000FEF7D8FD10B93046FEF7C6FF21B0F0BDFF
:1020A0000620FBE70220F9E7F0B595B0074601915D
:1020B0000221FEF77DF90546002833D14FF0203389
:1020C00002AE044602937360C6F80730019B1B788A
:1020D0001F2B20D89DF80830E52B22D01CB1631EA1
:1020E000F25C202A35D0002108A808970A91FEF753
:1020F00082FB0546B0B9012108A8FEF709FD98BB8F
:102100000F9A44B3334603CB1060516019889B7813
:102110001181937221E001A8FEF7A3F8B0F5803F8A
:1021200003D30625284615B0F0BD57F0EFF840F26E
:10213000B51157F0B7F80028F3D01D4A12F8013B4B
:1021400013B19842FAD1ECE7FF2822D80A2C28D9FB
:10215000E7E71C46C2E7E523137001233846FB710D
:10216000FEF762FF0546DDE70428FBD1002CD9D03D
:10217000012108A8FEF7A9FC05460028D2D120229B
:1021800001460F9842F002FE08220F9BDA720F9A66
:10219000B8E7092CC5D814AB020A2344013403F86C
:1021A000482C14AB2344013403F8480C8EE700BFDD
:1021B000913B08082DE9F04F1C4600238BB00768BF
:1021C0004371154603790DF11F020391384605212D
:1021D000029300F035FB9DF81F30DA0700F1928280
:1021E0005E0700F1918208AA0321384600F028FB1F
:1021F00030B9089A531EB3F5004F01D21A4201D0EC
:10220000012308935DB1A5F500725E4B9A4203D994
:1022100013200BB0BDE8F08F6B1E2B42F8D1002CC1
:1022200000F07482149BB3F5007FC0F06F82029BB4
:10223000002B63D0012300222146384600F0DCFA4F
:1022400008B10120E5E794F8FF2194F8FE3143EA54
:1022500002234AF65522934201D00E20D9E7029B71
:1022600004EB031191F8B23101F5D771002BF4D0D2
:1022700001F10800FDF7A8FF814601F10C00FDF710
:10228000A3FF0990DDF824A0BAF1150FE5D9B5F543
:10229000813FBDD2039B6A0A13F0020E44D003F0C3
:1022A0000701022900F04082D80740F13D82002A50
:1022B00059D14FEA1A353448012630F8021B09B1CA
:1022C000A94239D9BAFBF6F540F6F5714FF0010B8A
:1022D0008D424FF0200193BF05EB450502354FF0CD
:1022E00002084FF0010894BF01356D0005919CBFB5
:1022F0006D08033505F2FF156D0A39E209AA0121BF
:10230000384600F09DFA00289BD1039B13F0080F7C
:10231000099B14BF4FF000094FF03F094B459CD378
:10232000A3EB09030993ADE70399C907BFD46FE78E
:10233000520000E2114605E27600BEE7B8F1020F56
:1023400024D14FF6F571049B8B420ED9002A40F040
:10235000E7817200402AAAD9BEF1000F40F0E78160
:10236000802A3FF67AAF1646ACE740F6F571049B3B
:102370008B4213D8002A7FF470AF7200802A96D95E
:102380006BE700BF00FEFF00AE3B080840F6F573A8
:10239000049A9A423FF661AF4FF001084FF4007281
:1023A0000021204642F0F2FCD94BB8F1030F84F82B
:1023B0000EB01A68CBF3072B667322605A6884F854
:1023C0000FB062601A899B7A22814FF00202A372D9
:1023D0004FF0000322734FF00102E372637418BFE1
:1023E0000223BAF5803F2274A37480F0228184F81E
:1023F00013A0CAF3072A84F814A0F8234FF0000AA8
:10240000494604F11C0063753F2384F819A0237624
:10241000FF2384F81BA0A376FDF7DEFEB8F1030FBF
:1024200040F00D8156F08AF9014604F14300FDF7B2
:10243000D3FE294604F12400FDF7CEFE022304F169
:10244000470284F82DA084F82C30012384F82EA0B4
:1024500084F83030062384F82FA084F832308023AB
:1024600084F831A084F84030292384F833A084F81C
:102470004230A84B03F1100153F8040B8B4242F891
:10248000040BF9D119884FF0550B9B783846118011
:10249000214693706FF0550384F8FEB14A4684F8E4
:1024A000FF31012300F0B7F9824600287FF4C9AE5E
:1024B000B8F1030F3FD1012309F106022146384646
:1024C00000F0A9F94FF400725146204642F05EFC3C
:1024D000522341227221237004F5F470637061234A
:1024E000E270A37084F8E731049B84F8E41184F867
:1024F000E511591E84F8E621FDF76EFE022309F16D
:102500000702214684F8EC316FF0550384F8EDA101
:10251000384684F8FF31012384F8EEA184F8EFA156
:1025200084F8FEB100F077F901232146384609EB23
:10253000030200F070F9149B0021204623F4FF727F
:1025400022F0010242F022FCB8F1030F40F0948027
:10255000F8232370FF236370A370E370237163710A
:10256000A371E37123726372A3720F23E372149B4E
:102570004FEA532B5D45AA462146019A28BFDA4609
:102580003846534600F047F9014600287FF459AE1B
:102590004FF40072204642F0F9FB019BB5EB0A05AF
:1025A00053440193E6D1059BB8F1030F18BF1E46B3
:1025B0005E453546019A214628BF5D4638462B4682
:1025C00000F029F900287FF43CAE019B761B2B44D8
:1025D0000193EDD1B8F1030F58D0099BB3F5803FBB
:1025E00056D2B8F1020F0CBF04250125029B002B27
:1025F00050D0002201232146384600F0FDF8024663
:1026000000287FF41EAE029B04EB031383F8B25143
:1026100001232146384600F0FEF800287FF411AE71
:1026200000223846114600F00BF9003018BF012097
:10263000EFE5514604F12000FDF7CEFDDDE656F052
:102640007DF8014604F12700FDF7C6FDC5F3072319
:1026500004F12B02A575E375802384F82430292327
:1026600084F826302C4B03F1100153F8040B8B42F5
:1026700042F8040BF9D105E7B8F1010F27492046CC
:1026800018BF6FF00701FDF7A7FD70E70C25ADE758
:102690000625ABE7039B1B07C2D44FF400720299D7
:1026A0002046012642F072FB5523099A494684F8D8
:1026B000FE31AA234A4404F5E37084F8FF31029BFB
:1026C00084F8BF6184F8BE3184F8C13143F6C16338
:1026D00084F8C06184F8C251B2FBF3F2FE2384F89F
:1026E000C52184F8C331930843F03F0384F8C43113
:1026F000FDF772FD099904F5E570FDF76DFD3346B0
:10270000029A86E7032084E50A2082E5112080E50D
:10271000CA3B0808D63B0808EA3B0808F8FFFF0058
:10272000BEF1000F3FF499AD002A7FF403AE4FEAEB
:102730005A452F48012230F8021B19B1A9427FF6F1
:10274000F7AD00212B4EBAFBF2F08500A0F57F40DB
:10275000F63805F20725B0424FEA55253FF67DAD24
:1027600016464FF0200B0A464FF003080021059152
:1027700009EB0B01DDF820C0B8F1030F01910599B9
:1027800008BF019B05EB0100019908440CF1FF31E2
:10279000CCF1000C014401EA0C01A1EB000105BFE2
:1027A0005B188B446D18194608BF0191C9EB0611DF
:1027B00008448245FFF451AD059BB8F1030FAAEB25
:1027C0000301A1EB0B01A1EB0501B1FBF6F30493AF
:1027D0007FF4B4AD4FF6F5718B423FF6DFAD002AC2
:1027E0007FF43BAD012E7FF638AD72089CE700BF49
:1027F000BC3B0808FFFFFE0F10B50C4611461A46F9
:1028000038B1234604303EF07DFD003018BF012072
:1028100010BD0420FCE710B50C4611461A4650B115
:10282000234604303EF092FD10F11E0F05D000301B
:1028300018BF012010BD0420FCE70220FAE70000C9
:1028400070B50D4614460646002833D001F0070344
:10285000234AD15C00292FD0002204303EF0A0FD95
:10286000062D27D8DFE805F008050A1626191900F5
:1028700006202BF0C3F82060002070BD062805D18B
:102880004FF4007323802388B360F5E72BF0B6F88C
:102890002080F8E701232360EEE7062801D04308F3
:1028A00006D1336A002B0CBF042300232370E3E717
:1028B0000123FBE70420E0E7062DFBD801A353F832
:1028C00025F000BF79280008712800088128000839
:1028D00095280008B5280008A3280008A3280008A8
:1028E000C0D90708086833F0D4BC000037B51D46CE
:1028F000043001AB1446FEF764FF38B1064B1B5C95
:102900004FF0FF342B60204603B030BD019BA34243
:10291000F9D01C23F4E700BFE7D9070813B51C461C
:10292000043001ABFEF7B7FE30B1044B1B5C4FF037
:10293000FF30236002B010BD0198FBE7E7D907081C
:1029400070B50C46054608462AF0CEFF23460246DF
:1029500002492846BDE8704001F02AB8DCD90708D2
:102960002DE9F843284D804610468946002431F071
:1029700013F82A46013810F8013FCBB92C201DF07E
:1029800067FC07460646484647F8045B31F004F802
:1029900039460246E3B208F14400FEF7B3FD0546AE
:1029A00040B330461DF06EFC184B585D2AF0EEF92E
:1029B000722B11D008D8612B17D0622B18D02B2B7B
:1029C000D9D144F00304D6E7772B08D0782B09D06F
:1029D000742B08BF1546CEE744F00104CBE744F062
:1029E0000A04C8E744F00604C5E744F01204C2E74D
:1029F000074DC0E7E30603D531693846FFF797F87E
:102A00003046BDE8F88300BF38DA0708E7D9070881
:102A1000FCD90708022970B5044615461E4613D195
:102A20005368012B0AD0022B0CD01BB91168201D52
:102A3000FFF77DF8A3692B60002070BD81692B68CA
:102A40001944F4E70169FAE701290AD10430FEF7D5
:102A500079FF0028F0D0084B1B5C33604FF0FF304B
:102A6000EBE7042906D14368002BE5D00430FEF7DC
:102A7000A1FFEEE71623F0E7E7D907082DE9F04FAD
:102A800006291E4680468B462DED028B85B0B0EEA2
:102A9000408A00929DF8403014D8012906D93F237E
:102AA00008F8013B002388F8003001E00029F9D143
:102AB000BBF1010F94BF0020012005B0BDEC028BDB
:102AC000BDE8F08F10EE102A0546002A24DAB4EE95
:102AD000400AF1EE10FA1FD6B1EE408A2D2305F818
:102AE000013BF0EEC87A9FEDBE7A009BF4EE477A88
:102AF00003F02003F1EE10FA13DD83F04902E81C25
:102B00002A7083F04E0283F046036A70AB70002394
:102B10000370A0EB0800D0E7002BE2D005F8013BE2
:102B2000DFE7B4EE488AF1EE10FA08D743F04E0220
:102B300083F04103E81C2A706B70AA70E7E7009BE2
:102B4000002E43F0200AB8BF0626BAF1670F02D163
:102B5000002E08BF0126A5EB080718EE103AABEBD4
:102B60000707191E07F1FF391CD1BAF1660F09D109
:102B7000731C66214B454FF00003A8BFFE1E771C57
:102B800099460CE0731D51464B454FF00003A8BF1A
:102B9000FE1FBAF1650F1F46F2D14FF02B099C467C
:102BA0001C4638E0C1F3C7539FED8E7AB1F17E5FCA
:102BB000A3F17F0307EE903AF8EEE77A67EE877AA3
:102BC000FDEEE77A17EE904A80F0AB806342F8EEB4
:102BD000E70AB2EE040A01933FF0E8F8019B1C46B5
:102BE000B4EEC08AF1EE10FA7FD4BAF1660F08D0C5
:102BF000BAF1670F40F08480042C00F38180631EDB
:102C00001E44731C4B454FF00003A8BFFE1E99469F
:102C10009C46771C6621652926EAE67040F0D6803E
:102C2000471C1E46F2EE048A0023ACEB060201921A
:102C3000002F80F2D980042B28DD6B1E4FF0300C62
:102C40001E785F1E2E2E00F00581A6F1300EBEF11B
:102C5000090F40F2018101331E78302E16D15F78C2
:102C60002E2F40F00681662900F00381B9F12D0F67
:102C70001F705E7040F0FB80013C08BF4FF02B09D5
:102C800029468B42C0F0FC8031211970BAF1670FE0
:102C90000AD148B12B461D46013B15F8012C302ABC
:102CA000F9D02E2A08BF1D46B9F1000F18D00A210D
:102CB000009B85F80190043503F0200A94FBF1F3A2
:102CC00093FBF1F201FB13444AF0450A01FB123277
:102CD000303405F804AC303205F8014C05F8022C0C
:102CE0000023A5EB08002B70E7E60134B2EE040ADE
:102CF000634200EE903AF8EEE00A3FF057F86FE7D3
:102D0000BB1FB34204DCBAF1670F14BFFE1F1E469F
:102D100088EE008A6342514600274FF02D09BC46D9
:102D200079E7631CB2EE040A00EE903AF8EEE00A8E
:102D30003FF03CF8B4EEC08AF1EE10FA15DABAF1C1
:102D4000660F20D14C452ADA331901334B4505DB98
:102D5000A9EB0406023E731C08BF0026A7192346F0
:102D6000A4464FF00009013754E7631CB2EE040A91
:102D70000193A31C00EE903AF8EEE00A3FF016F83B
:102D8000019B1C46D6E7BAF1650F08D0BAF1670F70
:102D900010D02346514600274FF02B09BFE7BB1F39
:102DA000B34200DCFE1F002723464FF02B096521AC
:102DB000BC4630E7331D4B4500DBBE1FB44202DB8F
:102DC00023466721E7E7631CF61AC7E767297FF404
:102DD00028AF002ED6BF01270746384621E700BF9F
:102DE000FFFF7F7F9B209A3E002E30DD07EE906A2A
:102DF000B2EE040AF8EEE70ACDE902103EF0D6FF83
:102E0000DDE902100023B4EEC80AF1EE10FA04DC8A
:102E1000013338EE408A092BF5D1AC466FB1019AE7
:102E200003F1300EF2420CF801EB06D128B14FF05D
:102E30002E0E05F1020C85F801E0002E07F1FF3798
:102E400006F1FF366546D8BF28EE288AF0E6B7EED1
:102E5000000AD7E73B46F3E6392E02D001361E7052
:102E6000FAE6984587F801C0F4D14346F4E6013408
:102E700006E7691CA1EB08065E4538BF0D46FFE674
:102E800011F8016C01F80169FBE600BF08B50446C2
:102E900031B1054B4A6C0360002309682CF014FE25
:102EA00020461DF0A3F900BF0C6307082DE9FF477A
:102EB0001F460192461812B1023A222A34D805461A
:102EC000B5422C4639D215F8010B1EF023FB804683
:102ED0000028F5D123782B2B29D12C46311B2046F5
:102EE00001AA28F0F0FA25180024A946B1454B465E
:102EF00026D3B8F1000F00D06442640044F001040E
:102F0000AB4209D01D46B5422B4641D21878013557
:102F10001EF000FB0028F6D12049019A20482CF031
:102F200097FD3946FFF7B2FF1E4829F02DFD2D2BE6
:102F300004BF2C464FF00108D0E74FF00008CDE762
:102F400019F8012BA2F1300ABAF1090F09D95F2A49
:102F5000CCD042F02002A2F161011929C9D8A2F116
:102F6000570A01995145C4D9204637F03DFA28B98E
:102F7000019B03FB04A494EA4403B7D5019B42469A
:102F8000711B03A803952DF03FFF039B0446B7E791
:102F9000C2D1204604B0BDE8F08700BFF452070854
:102FA000FC630708DF5207082DE9F04F2DED068B73
:102FB0009FEDC49A85B04FF000090446B0EE49AACF
:102FC0004718C846DFEDC09ACDE90123149B03934F
:102FD000BC4280F0948120781EF09CFA00283DD1FC
:102FE00023782B2B40D10134BC4280F08881237898
:102FF00043F02003692B3DD1A31C9F4240F2748112
:10300000637843F020036E2B40F06E81A37843F089
:103010002003662B40F06881E31DE51C9F421AD90E
:10302000E37843F02003692B15D1237943F0200383
:103030006E2B10D1637943F02003692B0BD1A37958
:1030400043F02003742B06D1E37943F02003792B5E
:1030500001D104F108059FED9D8A20E0B0EE498A78
:103060000134B0EE489AB3E72D2BC0D101344FF0B4
:103070000108B9E76E2B43D1A31C9F4240F2348173
:10308000637843F02003612B40F02E81A37843F056
:1030900020036E2B40F02881E51C9FED8D8A019B5B
:1030A00083B1BD420ED22B7843F020036A2B09D1A5
:1030B000F7EE007AAC4249F0020905F1010508BFBC
:1030C000B0EE678AB8F1000F03D0B1EE488A4FF036
:1030D0000108A5420DD0BD422C4680F0C880207862
:1030E00001351EF017FA0028F5D1029B002B40F0A5
:1030F000D280784978482CF021FC0399FFF7C6FE6E
:103100000023B2EE047A2546DFED6E8A9E461A460B
:103110009C461E46294611F801BBABF1300ABAF1B4
:10312000090F51D8022E0AD16C4DAC4502DC0A259C
:1031300005FB0CAC8F4200F289800D465DE0BAF1D0
:10314000000F04D0F4EEE98AF1EE10FA13DB0EB9A9
:103150000132EFE70EF1010E0126EBE7F4EEE98A0A
:10316000013AF1EE10FA49BFF0EE4A7A0133E8EE87
:10317000877AF0EE678A002AF0D17246F4EEE98A87
:103180007AB9F1EE10FA1AD507EE90AA012EF8EEF0
:10319000E77AE8EE877AF0EE678A51D1013B9646EE
:1031A000C8E7F1EE10FA02F1FF3241BFF0EE4A7AC1
:1031B00003F1FF33E8EE877AF0EE678ADEE7002E50
:1031C00041D10133B646B5E796B9BBF12E0FC3D056
:1031D0004BF0200ABAF1650F0CD18F4240F2968075
:1031E0006E782B2E27D1A91CB94282D00226A1E7E6
:1031F000022EEDD1BBF15F0F9CD008B1CCF1000CD9
:1032000013449C441CF1250FBEBFDFED357A0CF151
:10321000250C68EEA78A1CF1090F19D3CCF1000325
:10322000B2EE040A00EE903AF8EEE00A3EF0BEFD7F
:1032300088EE808A33E72D2E07D1A91C0120D3E721
:103240009646164676E7964686E702260D4661E7DD
:1032500007EE90CAB2EE040AF8EEE70A3EF0A6FDC9
:1032600020EE288A1BE725469FED168A1BE77FF490
:103270003CAFB9F1010F3FF43CAFB9F1000F11D0F1
:10328000F0EE480AB0EE490A05B0BDEC068BBDE889
:10329000F04F2BF0F3BBB9F1000F7FF42AAF4FF0E2
:1032A0000109DEE6029B23B1DFED060AB0EE480A13
:1032B000EAE7B0EE480A05B0BDEC068BBDE8F04F7A
:1032C0002CF010BD00000000EC78AD600000807FA5
:1032D0000000C07FD9520708FC63070864666606D1
:1032E000EA1C080200000000019B002BBBD1B8F1D2
:1032F000000F3FF4FEAE25461FED068AE5E60022EC
:1033000025465FED088A1346944679E73FF4F1AE0F
:1033100013E700BF0846114642F0C0BE70B505462F
:1033200008460E4641F06AFD044620B102466B682D
:10333000314628689847204670BD00002DE9F74FB8
:10334000019191469DF8301006460D9A11F0DF0F5D
:10335000A2EB09023DD030290CA9244F0EBF4FF03B
:1033600010080F464FF0010813F0800435D002EB2F
:10337000D2746410151B002C36DDA246D045C3461E
:1033800073683946A8BFD3463068AAEB0B0A5A4681
:103390009847BAF1000FF1DCB9F1000F05D04C44A9
:1033A00073684A46019930689847002D0DDD2C441A
:1033B000A845C14673683946A8BFA9463068A5EB41
:1033C00009054A469847002DF2DC204603B0BDE8C7
:1033D000F08F074F4FF01008C6E713F0010501D139
:1033E0001446C8E71546D7E70024D5E73C4307084D
:1033F0002B4307082DE9F043074689B00020119DB3
:103400009DF84880139E8DF80F0002B3814219DAAF
:103410002D2249428DF80F20109A08AC0DF1100EA4
:10342000A2F10A00B1FBF3FC03FB1C12092A8CBFBA
:103430001218303204F8012D74450FD08B420DD88C
:103440006146EFE7A80727D52B228DF80F2000292A
:10345000E2D130230DF11F048DF81F3015F0400923
:103460009DF80F301CD023B301222B460DF10F0124
:103470003846013ECDE90082FFF760FF814608AA89
:103480002B4621463846121BCDE90086FFF756FF32
:10349000484409B0BDE8F0836A07D8D52022D4E7B4
:1034A000002BECD004AA9442E9D904F8013C013C79
:1034B000E5E79946E3E700002DE9F04F93B0804639
:1034C0001E46C8079DF874300C4691461C9D069315
:1034D000DDE91E7A0BD4A10703D122687A4B9A4208
:1034E00005D020462AF08AFA400040F0010415F089
:1034F000810306D1069A302A03D15745B8BF5746F3
:103500009A4620460DF1280B2DF094FB002818DB7D
:10351000AA0712D52B238DF828300DF12903E806D0
:10352000F6B21DD5B9F1020F0DD130211A4602F8BD
:10353000021B711C5970134612E06B0701D5202342
:10354000E9E75B46EBE7B9F1080F61D1A9054FF058
:1035500030021A7049BF06F10E0201335A7002336D
:10356000002215F0200F0EA91A70A3EB0B030B918C
:103570004FF0100105930CBF13462C23BAF1010F35
:103580008DF82720C8BF45F04005CDE90C1215F095
:103590004001CDE90263079144D023460CA90BA852
:1035A000CDE900920DAA2DF025FA037881462D2B46
:1035B00006D18DF8273000F101090D9B013B0D93D9
:1035C000BAF1010F3CDD0D9C079B5445B8BF544632
:1035D0002BB19DF8273003B10134059B1C44A74251
:1035E0002BDD15F00103A7EB040427D126461C466A
:1035F00025F001054EB12023019634494046009341
:1036000000231A46FFF79AFE06463023069319E078
:10361000B9F1100FA4D130211A4602F8021B06F1AD
:10362000170187E70AAB0DAA0CA90BA8CDE90093F7
:1036300023462DF0DFF98146C2E700240026D7E7B4
:1036400000242646079BDBB19DF8273053B10023A9
:1036500001220DF127014046013FCDE90032FFF77D
:103660006DFE0644059B5BB100230122594640468E
:10367000CDE90032059AFFF761FE059B0644FF1A6B
:10368000069BBAF1010FC8BF57460D9A49460093F1
:10369000404601972B46FFF751FE06444CB12023CC
:1036A00001940A494046009300231A46FFF746FE5C
:1036B00006440B980EAB984201D01CF0E3FD304657
:1036C00013B0BDE8F08F00BF68690708A87A080842
:1036D0002DE9F04316468BB080469946B207129FFB
:1036E0003CD416F0040F0CBF0023202300930A469D
:1036F000139B202102A8FFF7C1F9F30504460DD55D
:10370000431C1F2B0AD80AAA00211444252204F8BE
:10371000202C0AAA1C461A4402F8201C16F0400568
:103720001ED09DF808302F2B4FF000031AD801222D
:1037300002A94046013F013CCDE90032FFF7FEFD02
:103740000DF109010546334622464046CDE9009772
:10375000FFF7F4FD28440BB0BDE8F0832B23C5E749
:1037600002A9F0E702A91D46EDE700002DE9F04FA0
:10377000824689B0144600260B461D4613F8012BDD
:103780000AB1252AF9D1A94208D26F1ADAF8043011
:10379000DAF800003A463E44984729460B78002B59
:1037A00000F0FE80013120234FF000090A4612F894
:1037B000015B0DB90A271DE02D2D03D149F0010948
:1037C0001146F3E72B2D02D149F00209F8E7202D2D
:1037D00002D149F00409F3E7212D02D149F008098B
:1037E000EEE7302D22D149F040092B46E8E707FBF0
:1037F0000525303D884611F8012BA2F1300009283B
:10380000F5D92E2A3AD198F801202A2A10D04FF063
:10381000000B0A27884611F8012BA2F13000092875
:103820000CD807FB0B2BABF1300BF3E70025C1E7FE
:1038300054F8042B08F1020822EAE27B98F80020F1
:103840006C2A08BF08F1010898F80070002F00F0FA
:10385000A780642F00F0838028D8502F2DD010D857
:10386000A7F14502022A40F28880DAF804300122EA
:103870004146DAF80000984701364BE04FF0FF3B35
:10388000DCE7622F3AD04BD8582FEED17A1C27F0C4
:103890000F07CDF8049002F006020F3FCDE9023584
:1038A000FFB2C2F110030097002260E0712F41D0F7
:1038B0000BD8672F61D9702FD7D1CDF80490CDE9FF
:1038C0000235612300931023EEE7752FDED0782FA9
:1038D000DCD0732FC9D154F8047B0593384641F0EE
:1038E0008DFABBF1FF3F0246059B02D0584528BF29
:1038F0005A463946CDE900354B4607E054F8042BCB
:10390000CDE900354B4642B1042227495046FFF726
:1039100015FD064408F101012EE705222349F5E7CC
:1039200054F8042B07A98DF81C200122CDE900359D
:103930004B46EBE707A954F8040B05931DF0C1FBB8
:10394000BBF1FF3F0146059B04D0079A934538BF62
:10395000CDF81CB0079ACDE900354B46D6E7CDE946
:10396000023561230122CDF8049000930A2354F814
:10397000041B5046FFF73EFDCBE70734059324F0C8
:103980000704F4E802016AF0BDFE059B00EE100A90
:103990004A4639465046CDE9005BFFF799FEB8E745
:1039A000304609B0BDE8F08F2043070825430708DB
:1039B0000EB403B503AA52F8041B0192FFF7D6FE1A
:0C39C00002B05DF804EB03B0704700009B
:020000040802F0
:10000000FEE700000F490020D1F8883043F4700368
:10001000C1F888300C4B1A6842F001021A609860EF
:100020001A6822F0847222F480321A60074A5A60F9
:100030001A6822F480221A60D8604FF000638B6047
:10004000704700BF00ED00E000380240103000248F
:1000500070B52F4D94B0002410260AA8C5F8904022
:1000600032462146049424F091FE2B6C4FF480011B
:1000700008A843F080532B642B6C042503F08053B5
:100080000193019B234B1A6842F440421A600122FB
:100090001B68059403F440430293029B4FF48033A2
:1000A000CDE9082302230F22CDE90E311293092353
:1000B0000392D82213934FF48053CDE90B464FF4AB
:1000C000A056CDE91052CDE9066329F05BF910B1D5
:1000D00011482EF0ADFB29F0C7F808B10F48F8E73A
:1000E000119B03A81099DB00B3FBF1F33021B3FBA4
:1000F000F1F201FB123212990032B3FBF1F118BF99
:10010000012230F073F808B10548E2E714B070BD81
:100110000038024000700040C0EA0608D2EA060833
:10012000ECEA06080446DFF830D00C490C4A0D4BC7
:1001300003E051F8040B42F8040B9A42F9D3002073
:1001400009490A4A01E041F8040B9142FBD3FFF749
:1001500059FF20462EF0C0BCF8FF0420A4A20808D6
:10016000000001205400012000400120BC33022087
:1001700040F8044B40F8045B40F8046B40F8047B03
:1001800040F8048B40F8049B40F804AB40F804BBF3
:1001900040F804CB40F804DB68467047024B5A69CC
:1001A000026058610020704740C90120024B5A6923
:1001B00012685A61704700BF40C90120C4600561E0
:1001C00046618761C0F81C80C0F82090C0F824A068
:1001D000C0F828B0C0F82CD080ED0C8B80ED0E9BC1
:1001E00080ED10ABC0F808E0FFF7D8BF104A08B5A3
:1001F00053690BB92EF05CFC1968586051611846C0
:10020000C468056946698769D0F81C80D0F82090D9
:10021000D0F824A0D0F828B0D0F82CD090ED0C8BDA
:1002200090ED0E9B90ED10ABD0F808E001207047E8
:1002300040C9012010B50021044600F045FB18B963
:1002400014B120460CF08CFB10BD002100F03CBB2B
:1002500010B50121044600F037FB18B914B120464F
:100260000CF07EFB10BDFFF7E5BF10B501220C4678
:1002700000F06CFC18B914B120460CF071FB10BDF5
:1002800000F064BC00F0F2BB484308B50830FFF74B
:10029000DCFF40B1044B5A6A02B110600021C0E992
:1002A00000125862083008BD40C90120034678B1E9
:1002B00053F8042C083812B153F8081C116053F895
:1002C000083C13B15A6000F0D1BB024B5A62FAE706
:1002D000704700BF40C901202DE9F04100252A4C9C
:1002E0000326D4F8B4720021013143189A0803F0B0
:1002F0000303BA5C5B0042FA03F303F00303022B2F
:10030000F2D00901D4F8C0324FEA910C03EB00108F
:1003100069B300EB8C0C03681A0725D1D4F8C0121E
:100320005A1A99424FEA121E4FEA92170EF0030230
:100330001AD8D4F8C4125200994215D9D4F8B4820C
:1003400006FA02F318F8071041FA02F20B4302F022
:100350000302012A08D13F2D08F8073004EB4503BA
:100360000CD80135A3F8D0E204306045D3D145B1B3
:10037000013D04EB4503B3F8D002B2E7C4F8CC2248
:10038000F2E7BDE8F08100BF40C90120F0B4194F89
:1003900001224FF0030CD7E9AF53C01A0409C10979
:1003A00004F0070680096B5CB240A60823EA02034A
:1003B0006B5404F00301D7F8C832D7F8B45298420E
:1003C00038BFC7F8C8022A5C490001340CFA01F3AF
:1003D00004F0030122EA03024B00AA55A608D7F84D
:1003E000B452AA5D42FA03F303F00303022BEBD0ED
:1003F000F0BC704740C9012021F00F03002170B507
:100400001C1A154E154DE400C5F8C432A6FB046451
:10041000C5F8B402640AA3EB841306192246C5F892
:10042000C032C5E9AE4624F0B1FC0021A200D5F8E7
:10043000BC020732D20824F0A9FC002301214FF0AE
:10044000FF32C5F8C832A5F85013C5F858232B81E0
:10045000C5F8543370BD00BFF32C23FA40C9012006
:10046000024A138901331381704700BF40C901203C
:10047000024A1389013B1381704700BF40C9012024
:10048000024B1889003018BF0120704740C9012075
:10049000F8B51C4C00220327238904F1080504F554
:1004A0000276C4F854230133C4F8CC22238155F8D2
:1004B000042F130719D1D4F8C012531A8A424FEAF5
:1004C00013104FEA931C00F003030ED3D4F8C412A8
:1004D0005B008A4209D2D4F8B41211F80CE04EFA4B
:1004E00003F202F00302012A02D0AE42DFD1F8BDCE
:1004F00007FA03F343EA0E0301F80C30FFF7ECFEB2
:10050000F3E700BF40C9012079B3F8B5041F174EC7
:10051000032704EB810554F8043F1A0719D1D6F8D4
:10052000C0125A1A99424FEA12104FEA921C00F078
:1005300003020ED8D6F8C4125200994209D9D6F84F
:10054000B41211F80CE04EFA02F303F00303012B8E
:1005500002D0A542DFD1F8BD07FA02F242EA0E024C
:1005600001F80C20FFF7B8FEF3E7704740C90120FF
:100570002DE9F04F804C85B0D4F8B832D4F8CC22B5
:100580009B00002A74D000274FF0030BC4F8CC72F4
:10059000002B00F09C80002002E00130984263D2E2
:1005A000D4F8B4C2810800F003021CF80110520014
:1005B00041FA02F202F00302032AEED101460022C0
:1005C000002301335D184FEA950E05F003051CF872
:1005D0000EE06D004EFA05F505F00305022DF0D092
:1005E0001B01D4F8C0524FEA930805EB011183B305
:1005F00001EB88080D682E0728D1D4F8C032A5EB8E
:10060000030C9D424FEA1C194FEA9C1C09F003039E
:100610001CD3D4F8C4625B00B54217D2D4F8B4E25C
:100620000BFA03F51EF80CA04AFA03F345EA0A0593
:1006300003F00303012B09D13F2A0EF80C5004EB01
:10064000420500F291800132A5F8D0920431414573
:10065000D0D1002A00F08B80013AD4F8B4C204EB68
:100660004203B3F8D012ABE7D4F8CC22002A8DD1E4
:100670006BB300214FF0030A4FF001094FF002085D
:100680000E4605E0BEF1010F37D001369E421ED264
:10069000B708D4F8B40206F00305C25D00EB070CFE
:1006A0006D0042FA05FE0EF0030EBEF1020F17D0E8
:1006B000BEF1030FE6D108FA05F50136002122EA62
:1006C0000502C255D4F8B8329B009E42E0D323897C
:1006D0000022013BC4F8C822238105B0BDE8F08F99
:1006E0000029D2D00AFA05F5012122EA05028CF888
:1006F0000020D4F8B8329B00C7E7F308D4F8BC1246
:1007000006F0070B11F803E0194401934EFA0BF0C1
:10071000C307E7D53001D4F8C02252F800C0104416
:10072000BCF1000F14D002AAB2210BF0EBFADDE904
:10073000013242B10CF06CFBDDE902010CF038FB38
:100740000CF07CFB019BD4F8BC22D11812F803E01A
:1007500009FA0BFB2EEA0B0E81F800E0D4F8B43254
:1007600003EB070CDA5DBDE7C4F8CC326EE7D4F8D2
:10077000B8329B0011E700BF40C90120044B0021A3
:100780001A89C3F8CC1201321A81FFF7F1BE00BFFB
:1007900040C901204B4A00232DE9F04FD2F8C41282
:1007A00083B0D2F8C0421F46D2F8B4E29946D2F8DC
:1007B000B822091B43601E4601609C4683601C46AC
:1007C00001931946C3609A4603614FEA8208436168
:1007D00083619EF800304FEA4A0A43FA0AF303F0B5
:1007E0000303012B3BD0002B56D0022B02D1013644
:1007F00001344660013188450CBF0125002532D007
:100800008B0801F0030A1EF803304FEA4A0243FA4C
:1008100002F212F0030214BFAB464FF0010BBBF122
:10082000000F41D1012AD6D15D461346012C21D0BB
:10083000022C02D14269013242614C4501D9A146E4
:100840008461DBB98B0801F0030A1EF803304FEA1C
:100850004A0A43FA0AF303F00303012BC3D101361A
:100860001C464660C6E7012B14BF2B4645F001032A
:10087000012CDDD1026901320261DEE7BC4502D9FB
:100880006746C0F80CC0ADB1019B36011B01C0E941
:10089000016303B0BDE8F08F019A0CF1010C1C4616
:1008A000013201928260A5E7012A14BF2B4645F070
:1008B0000103BBE78B08AC4601F0030A1EF80330C6
:1008C00089E700BF40C901200F302DE9F047070933
:1008D00059D0654E3389002B55D1B6F850330D46AB
:1008E000002B0CBF4FF0010E4FF0000E4FD1D6F889
:1008F000C842D6F8B8C2644538D2D6F8B402611EF0
:10090000002201441AE0013297424FD913F00C0F34
:100910001ED10132974240F29E8013F0300F1CD15D
:100920000132974240F29A8013F0C00F1AD101327F
:10093000974240F296800134644517D211F8013F86
:1009400013F0030FDFD013F00C0F4FF00002E0D0D4
:1009500013F0300F4FF00002E2D013F0C00F4FF051
:100960000002E4D0013400226445E7D3BEF1000F59
:1009700009D135F00BFAD6F8C842D6F8B8C24FF014
:10098000010EA445B9D800242046BDE8F087D6E979
:10099000D5239A42ABD335F0F9F9D6F8C842D6F848
:1009A000B8C26445EFD24FF0010EA6E7A400A11A29
:1009B000012A01F1010803D1631C9B08C6F8C83263
:1009C000012308F0030C4FEA980E02310CFA03FCE5
:1009D00010F80E908C4203FA0CF343EA090300F876
:1009E0000E3012D34FF0020E01F003038808D6F840
:1009F000B4C201315B001CF800908C420EFA03F384
:100A000043EA09030CF80030EED2D6F8C0A24FEA50
:100A10000819D6F8543312010AEB090400211F44C7
:100A20002046C6F8547324F0B1F9EB07ACD5002387
:100A3000D6F8BC124FEAD80208F007084AF8093085
:100A40000123885C03FA08F848EA0008204601F808
:100A50000280BDE8F087A4000134A8E7A4000234B6
:100A6000A5E7A4000334A2E740C90120F0B41C4E5E
:100A7000338993BB88B3D6F8C0320121D6F8BC7253
:100A8000C01A0409C50904F0070C83097A5D01FA4C
:100A90000CF122EA010204F003017A55A508D6F808
:100AA000C8220327D6F8B402934238BFC6F8C8322A
:100AB000C25C4900013407FA01F304F0030122EAA1
:100AC00003024B004255A508D6F8B402425D42FA33
:100AD00003F303F00303022BEBD0F0BC704700BF1D
:100AE00040C90120034610F00F001AD1164AD2F86F
:100AF000C012994217D810B4D2F8C4429C420DD902
:100B00005B1AD2F8B4121C099B0904F00302CB5CF7
:100B10005200134103F00303012B05D05DF8044B91
:100B20007047002070477047013023189A0803F07F
:100B300003038A5C5B0042FA03F303F00303022B16
:100B4000F2D00001EAE700BF40C901202DE9F84FCB
:100B50000B460746002800F0A780584D2C89002935
:100B600073D0002C73D1D5F8C00201F10F06D5F86F
:100B7000B832A7EB000A36094FEA830923464FEA49
:100B80001A1C0CF1010EF14540F29480D5F8B40224
:100B90004FF001084FEA9E0B0EF0030410F80BB063
:100BA00064004BFA04F404F00304022C53D024B97B
:100BB000013303EB0804B4424FD3464541D022D35E
:100BC0004344B3424ED2002A41D0D5F8BC324FEA5A
:100BD000DA1A0CF0070C084613F80A1041FA0CF167
:100BE00001F00101FFF770FE044680B34FEA0812DE
:100BF000394624F087F82B8923BB3846FFF7C6FB1C
:100C00002046BDE8F88F66444FF00309C4443046DF
:100C100000F003034FEA900ED5F8B41201305B00E8
:100C200011F80E40604509FA03F324EA030301F8C2
:100C30000E30EDD1B608D5F8C8329E4238BFC5F89F
:100C4000C8623C462046BDE8F88F002CD6D0002470
:100C50002046BDE8F88F08F101080EF1010EF145BC
:100C600098D1AAE70CEB0800B444844510D90221BE
:100C700000F003038408D5F8B42201305B0012F8B9
:100C800004E0844501FA03F343EA0E031355EFD160
:100C9000A6EB08023C4607EB08100021120124F0E5
:100CA00075F82046BDE8F88F01461846BDE8F84FB4
:100CB000FFF70ABE4FF001087FE700BF40C90120DF
:100CC00010B58AB00B4C03A8FFF764FD059A049B8E
:100CD000204600920849039AE2F76AFE069A099BA9
:100CE00020460649CDE90032DDE90723E2F760FE40
:100CF0000AB010BD1843070848EB06086CEB06085D
:100D00002DE9F843DFF86C914A49D9F8C0224A48E6
:100D1000E2F74EFED9F8B812890076D00024DFF849
:100D20005881464F444E0CE0012D49D02E224449B3
:100D30003046E2F73DFED9F8B81201348900A142ED
:100D400063D904F00305A206D9F8B4024FEA4505B9
:100D50000BD0A308C35C43FA05F505F00305022D8B
:100D60002CD0032DE0D16D22E1E7A4464FEA9C028E
:100D70000CF00303825C5B0042FA03F39B0703D190
:100D80000CF1010C8C45F1D3ACEB04027F2A0CD999
:100D900092092C4930462CF03F04E2F709FED9F8BD
:100DA000B832B4EB830F30D2002508EA041239467A
:100DB0003046E2F7FDFDD9F8B402CAE73D22B6E7B6
:100DC000D9F8C02223012049D2588A4223D01F4B90
:100DD0009A4222D01E4B9A4225D01E4B9A421ED0D8
:100DE0001D4B9A421BD01D4B9A421AD01C4B9A4263
:100DF00017D01C4B9A4218D01B4B9A4217D01B4B52
:100E00009A420CBF4D22682291E719490A48BDE871
:100E1000F843E2F783BA542289E74C2287E753224A
:100E200085E7412283E7442281E746227FE7422289
:100E30007DE700BF00EB0608184307083CEB0608F7
:100E400044EB060820EB0608AC790708CC6A0708D3
:100E5000B05C0708F877070838760708CC58070809
:100E60005458070814650708A4650708A86C070804
:100E70001CEB060840C90120F0FF0F00054B02687B
:100E80001B6A59688A4203D3521A02601846704797
:100E90001B68F6E740C90120014441F2055388422E
:100EA00004D398B2002808BF0120704703EB431316
:100EB00010F8012B5340F2E7034B044A1A62002258
:100EC000C3F80C22704700BF40C9012084AB07085B
:100ED0002DE9F04780460E46FFF7DEFF124B07462E
:100EE0001C6A0CB920461AE0D4F80C90002504F1D5
:100EF000180A4D4501D12468F3E7236933F815300A
:100F0000BB420ED163695B5DB3420AD132464146B2
:100F10005AF8250023F050FF18B960682844BDE84E
:100F2000F0870135E5E700BF40C901202DE9F8430E
:100F300081460E46FFF7CCFF0246002840F08B802A
:100F4000FF2E03D9454946480AF056FF454C751C0B
:100F5000D4F80C0290B1D4E984132B448B4229D9E4
:100F60002944FFF78DF90746D8B90246D4F8141280
:100F7000D4F80C02FFF784F9C4F80C72802D2F46C8
:100F800038BF80273846FFF760F9C4F80C02D0BBA1
:100F90002846FFF75AF9C4F80C0298BB28460BF014
:100FA000DFFCD4F810322B44C4F81032D4F80C32E1
:100FB000002BE3D0D4F814323146D4F80C724846F2
:100FC0001D441F44C4F81452FFF766FF49464FF012
:100FD000000980463246384623F094FE07F8069012
:100FE000236AD3E90253AB4225D36D000A2D38BFE3
:100FF0000A25C5EBC5001830FFF727F948B9C4F832
:101000000C02CBE72F460023C4F81072C4F8143248
:10101000D0E700F11803226A03EB85030260036145
:1010200003EB450343615368D268C0F80C90134446
:10103000C0E901352062236AD3E903215B6921F805
:101040001280911D9E54236A43F821705868D96814
:1010500002440131D9601046BDE8F883B31807088F
:101060005862070840C9012010B5044623F0C6FEA7
:1010700001462046BDE81040FFF758BF07B5019074
:1010800001A8FFF7FBFE019A036933F8120003B0D1
:101090005DF804FB07B5019001A8FFF7EFFE019B87
:1010A0004269D05C03B05DF804FB07B5019001A86C
:1010B000FFF7E4FE019B063350F8230003B05DF810
:1010C00004FB13B5019001A80C46FFF7D7FE019B66
:1010D0004269D25C063350F82300226002B010BD92
:1010E0002DE9F8431D46002307468846036016464F
:1010F0000B6013602B60154BDFF854901C6A0CB129
:101100004C4505D12B68326813442B60BDE8F88349
:101110003B6801333B60E268D8F8003013446269F1
:10112000C8F80030E368D1188A4207D32046FFF799
:10113000D9FC2B68246818442860E0E7336812F86B
:10114000010B013303443360EEE700BF40C90120C7
:1011500084AB07082DE9F8430D4B0E4F1C6ADFF8EE
:101160003880DFF838900CB1BC4201D1BDE8F8837B
:1011700004F11805E36805EB8306B54201D3246842
:10118000F1E755F8042B41464846E2F711FCF4E735
:1011900040C9012084AB0708AC18070818430708AA
:1011A00030B50023202411F8012F0AB9027030BD98
:1011B000120600F101051ED50BB1047028460B780C
:1011C000114A03F07F0363B9013A12F8013F054663
:1011D000013013F0800F0BD003F07F032B7001233D
:1011E000E1E712F9015B002DFBDA013BDBB2EAE734
:1011F00000F8013CE9E7012B04BF047028460B7896
:1012000000F8013B0223CEE7B1EB060838B544688D
:10121000054603680C449C4210D9037BDB0703D5C9
:10122000002107480AF0E8FD1034806824F0070424
:1012300008342146FFF719F82C60A86038BD00BFBC
:101240005862070870B504460E4611461546FFF76A
:10125000DDFF31462A46D4E90130184423F07EFDF3
:1012600062682A44626070BD70B5466804468E426A
:10127000354628BF0D460121FFF7C8FFA368681C4B
:10128000721B5919184423F069FD6368A068013383
:101290002844636070BD38B50446081E4FF0000551
:1012A00008BF012065602060FEF7C4FF237BA060BB
:1012B00065F30003237338BD38B505460C4601318C
:1012C000FFF7E9FF6C6038BD00230160C0E901321F
:1012D000037B43F0010303737047000038B51446E5
:1012E0000546FFF7D8FF024B2560636038BD00BF9D
:1012F00045120208037BDB0710B5044602D4806860
:10130000FEF7C0FF0023A36010BD38B505461020CE
:10131000FEF790FF04462946FFF7BDFF204638BD83
:1013200010B5044650B1037BDB0702D48068FEF79A
:10133000A9FF2046BDE81040FEF7A4BF10BD000085
:1013400038B5037B04460D46DB0703D5002107486B
:101350000AF052FD016880682944FEF786FF236881
:10136000A0601D441844256038BD00BF58620708BE
:1013700038B504460D46FFF749FFD4E901301D4456
:101380001844656038BDD0E9002310B59A42044680
:1013900002D10121FFF7D4FF0021D4E90132D15459
:1013A000A06810BD10B50C460121FFF7E1FF0470E5
:1013B00010BD7F29F8B50C46CEB204D80121FFF745
:1013C000D7FF0670F8BD06F03F06B1F5006FC1F318
:1013D000871546F0800607D265F03F050221FFF72A
:1013E000C7FF46700570EDE705F03F05B1F5803F9A
:1013F000C1F3073745F0800508D20321FFF7B8FF96
:1014000067F01F03457003708670DBE70421A40CAE
:10141000FFF7AEFF07F03F0364F00F04857063F041
:101420007F03C67004704370CCE738B505460C46A0
:10143000084623F0E3FC214602462846BDE8384032
:10144000FFF700BF10B51446FFF70EFF047010BD84
:1014500010B51446FFF708FF047010BD43688B42B7
:101460002CBF5B1A00234360704738B515464268AD
:1014700004460B468A4203D929448A4201D8436074
:1014800038BD8068521A0144184423F067FC626832
:10149000521B6260F4E703781A060AD503F07F0353
:1014A0004022134207D110F8012F02F0C001802919
:1014B00005D01846704723EA02035208F1E702F00C
:1014C0003F0242EA8313EEE7421C104601320378E2
:1014D00003F0C003802BF8D070470023814201D86D
:1014E0001846704711F8012D02F0C002802A18BF7B
:1014F0000133F3E701440346002099421A4600D81D
:1015000070471278013302F0C002802A18BF013000
:10151000F3E700007F289DBF024B185CC0F340003A
:10152000002070474D4307087F289DBF024B185C81
:10153000C0F3C000002070474D4307087F289DBFBF
:10154000024B185CC0F38000002070474D43070831
:101550007F289DBF024B185CC0F3801000207047AD
:101560004D4307087F2809D8064B1B5C13F00C0F6E
:1015700006D1A0F15F0358425841704700207047E0
:10158000012070474D4307087F289DBF024B185C20
:10159000C0F30010002070474D4307087F289DBF0F
:1015A000024B185CC0F34010002070474D43070801
:1015B00008B50246FFF7E8FF00B12032104608BD2B
:1015C00008B50246FFF7EAFF00B1203A104608BD11
:1015D0003038092884BF20F020000738704710B544
:1015E00001440246E5240020914203D8B0FA80F07D
:1015F000400917E012F8013B30B103F0C003802B23
:1016000011D10138C0B2EFE7BF2B09D9F72B09D8A8
:10161000DB0803F0060344FA03F303F00300E3E7F7
:101620001B06E1D510BD0020FCE7023981420B46C4
:1016300003D31A880239002AF8D002331B1A581033
:10164000704770B51C09944216D2121B01EB44017D
:1016500003F00F0315460E46012D31F8024B18BF5B
:101660003468013D24FA03F4A4B220F8024BF2D10D
:1016700004B9013A104670BD0022FBE7F0B5059DA4
:101680000024521B2746A5420FD16D0000234419A8
:101690000D449A4214D104EB42031FB101210233DD
:1016A00024F81210181A4010F0BD31F8146033F805
:1016B00014C066443E4420F81460370C0134E2E75D
:1016C00035F813603E4424F81360370C0133E0E72B
:1016D000F0B4049E0025921B2C46AE420AD176003F
:1016E000002385190E449A420FD105EB4201F0BC4C
:1016F000FFF79BBF31F815703C4433F81570E41BBD
:1017000020F8154024140135E7E736F813100C448F
:1017100025F8134024140133E5E72DE9F043079C35
:101720000239DDF828E0154684464FF6FF78A4EB31
:101730000209DDE9087655B900EB42011FB101232A
:10174000023120F81230BDE8F043FFF76EBF31F8E8
:10175000024F013D4444264405EB0904AC4296BFC8
:1017600033F8024B4FF6FF744444744486EA040E87
:10177000360C17FA8EF74FEA144E2CF8027B3F0C0A
:10178000D9E7022938B538BF0221044680680D46E2
:1017900018B12368B1EB930F07D96900FEF765FD17
:1017A0002368A06065F39F03236038BD38B5054604
:1017B0000C20FEF73FFD03782A78044662F300030D
:1017C0006FF34103037028682368C0F39D0060F342
:1017D0009F03400023606B686360FEF72BFDA060F1
:1017E0002A68A968C2F39D02520023F08BFA2046B2
:1017F00038BD4B0018441A4410B509B9084610BD4D
:1018000030F8023D32F8024D1B1B002B02DB04D1E5
:101810000139F2E74FF0FF30F1E70120EFE710B5B3
:10182000044638B18068FEF72DFD2046BDE8104023
:10183000FEF728BD10BD38B50C4602210546FFF75E
:10184000A0FF002C2B78B6BF01220022644262F375
:1018500000032B7000236B6004B938BDD5E9013259
:10186000581C686022F81340240CF5E70023C0E9F7
:1018700000338360704728B103789B0702D48068E7
:10188000FEF700BD704738B505460C464968FFF7BE
:1018900078FF22782B78A86862F300032B706368C6
:1018A000A1686B606268BDE83840520023F02ABA34
:1018B0000A4629B90178426062F30001017070475D
:1018C000FFF7B9BF08B5FFF7D1FFBDE80840FFF744
:1018D000EFBF30B4046862F39F040022046004F098
:1018E000FC0444F00204C0E901210470194630BC34
:1018F000FFF7DEBFF8B517461E469DF818500421C5
:101900000446FFF73EFF3846314635B1002F76F1E9
:1019100000030CDA784266EB4601237865F3000396
:1019200023700023636050EA010302D1F8BD002553
:10193000F3E7D4E901325D1C656022F81300030C63
:101940000A0C43EA014311461846ECE72DE9F04141
:1019500010EE106A03780746F20F62F3000303707B
:10196000C6F30F4313F4FF4307D13B786FF3000333
:101970003B7000237B60BDE8F081B3F5FF4FF4D0EE
:10198000C6F3C753A3F17F04002CEEDB04D1012181
:10199000BDE8F041FFF74FBFB3F16F08C6F316067D
:1019A00048BFA3F16008162C46F400064FEA281839
:1019B00021DCC4F11704E6400024254641463846A0
:1019C000FFF7DFFEC7F8048025B16A000021B86880
:1019D00023F0DCF944B106FA04F2C4F11004BB6848
:1019E000E64023F815200135A845C4D0BB6823F88C
:1019F0001560360CF7E7B3F1960504F1090448BF0A
:101A0000A3F1870504F00F042D11D7E72DE9F84362
:101A10008F18C2F35B0204460D46511C9846089E7F
:101A2000FFF7AFFE2278002329461FFA86FC68F3F1
:101A3000000263602270B942084602D3401BBDE831
:101A4000F88302780131A2F13003092B05D9A2F104
:101A50004103192B14D8A2F13703B342EED2D4E9D3
:101A600001E0F0468146B8F1000F10D100EB4E02C4
:101A700013B1023220F81E30121A52106260DAE7F7
:101A8000A2F16103192BD9D8A2F15703E5E7B9F800
:101A9000002008F1FF3802FB0C3329F8023B1B0C35
:101AA000E1E7F8B5044615461E46C1B1531E4FF096
:101AB000FF371E44E90020460F310909FFF761FE98
:101AC000237800216FF30003616023704DB9D4E9DE
:101AD000011000EB4101FFF7A8FD6060F8BD012790
:101AE000E8E700230F290ADC3278013D3E4402FA80
:101AF00001F201F1080143EA02039BB2F2D16268EC
:101B00001039501C6060A06820F81230DEE738B54C
:101B10000B78044605780A4603F0010305F001003E
:101B2000181A0BD161685368994208D30AD8926891
:101B3000A068FFF75EFEEB0748BF404238BD4FF09C
:101B4000FF30F8E70120F6E7884210B5044601D0DF
:101B5000FFF799FE23786FF30003237010BD8842CE
:101B600010B5044601D0FFF78EFE63683BB12378C1
:101B7000C3F30002C2F1010262F30003237010BD3F
:101B800088421FB5044601D0FFF77DFE626862B946
:101B900001212046FFF7F5FD0123A2681380636051
:101BA000237843F00103237010E02378D9070FD581
:101BB0006FF30003A168237001230846ADF80E30CF
:101BC00000930DF10E03FFF783FD606004B010BDBC
:101BD000511C2046FFF7D5FD0123D4E90121ADF8C2
:101BE0000E30009308460DF10E03FFF747FD6060CD
:101BF000D6E72DE9F0470E4649680546174601B17C
:101C00002AB931462846BDE8F047FFF73CBE02F14D
:101C10000F0424092144FFF7B4FD706817F00F0E7C
:101C2000A96804EB0007B36808BF4FF0100E00224C
:101C300007F1004803EB4009CEF1100E08F1FF3820
:101C40004FEA480801EB080C0146E24611BB6FF071
:101C5000010322FA0EF208F1020858430CEB0009C6
:101C60002CF8002004F1004203FB0493013A0233F4
:101C70005200184623F08AF80346434417B133F85C
:101C8000022D8AB12B786F60327862F300032B70DB
:101C9000BDE8F08739F8023D01391A4322FA0EF304
:101CA00012042AF80239D1E7013FE7E7F0B50E4602
:101CB000496885B00546144601B12AB9314628461F
:101CC000FFF7E1FD05B0F0BDFFF75BFD2346A86817
:101CD000D6E90121FFF7B5FC2B7868600246317820
:101CE00061F300032B70DB07ECD500232109776833
:101CF000ADF80E309F4201D08B420FD18F42E1D917
:101D0000B36804F00F0433F81110012303FA04F44C
:101D1000013C214213D0ADF80E3008E0B06830F835
:101D2000130050B101238F42ADF80E30E8D8A968F6
:101D300001234AB90B806B60C4E70133DAE7BDF8D1
:101D40000E30002BBED0F2E7009308460DF10E03D3
:101D5000FFF794FC6860B5E773B553680C464968B3
:101D600006461546994206D308D89268A068FFF740
:101D700040FD002802DA23462C461D4623782A78A7
:101D800061685340DB071BD401313046FFF7F9FC93
:101D90006B68B0680093AB68D4E90121FFF76EFC73
:101DA000706023787268C3F30003002A0CBF00231D
:101DB00003F00103327863F30002327002B070BDA9
:101DC0003046FFF7DEFC6B68B0680093AB68D4E97F
:101DD0000121FFF77DFCE3E7F7B553680C4649683E
:101DE00005461646994206D324D89268A068FFF7A4
:101DF00000FD00281EDA2346012734461E462378BC
:101E0000327861685340DB0716D501312846FFF769
:101E1000B8FC7368A8680093B368D4E90121FFF7A0
:101E20002DFC68606A682B7892B962F300032B700E
:101E300003B0F0BD0027E2E72846FFF7A2FC736875
:101E4000A8680093B368D4E90121FFF741FCE8E7F3
:101E5000227802F00102002FE7D0C2F10102E4E78C
:101E60002DE9F04F15464A680E4685B06B6804466A
:101E70009A423EBF0B462E461D4633787168DB07FB
:101E800021D42B7813F001071DD1FFF77AFCA0684D
:101E9000B6683B46D5E9011C99420BD100EB4101E4
:101EA000FFF7C3FB237860606FF30003237005B076
:101EB000BDE8F08F36F813203CF813502A4020F884
:101EC00013200133E8E701312046FFF75AFCAB68E5
:101ED00032782F78009382EA070302F0010207F0BC
:101EE0000107D6F804E0DB43A068C7F1000803F05F
:101EF000010381461FFA88F8C3F1000C1FFA8CF128
:101F0000C2F1000C02911FFA8CF1F4460191B16804
:101F1000A1F1020A6968A1EB0E010391BCF1000F67
:101F200015D100EB4E011BB10123023120F81E3008
:101F3000FFF77BFB606033782A78C3F30003C2F3BA
:101F400000021340227863F300022270AFE73AF8F0
:101F500002BF0CF1FF3C019981EA0B0B03995A4433
:101F600001EB0C0BE34597BF0099C34631F802BB68
:101F700088EA0B0B98BF009102995F4402EA070BB5
:101F80003F0C120C8BEA010B13FA8BF329F8023B7E
:101F90001B0CC3E72DE9F84F16464A680D46044668
:101FA00073689A423EBF0B4635461E462B786968D9
:101FB000DB072ED4327812F001082AD1FFF7E1FBBB
:101FC000A9686D684246A768D6E9013CED1A9342BC
:101FD00010D15B00002219443B44954213D103EB1E
:101FE0004503DB1B5B10636023786FF300032370F2
:101FF000BDE8F88F31F812003CF81260304327F842
:1020000012000132E3E731F8120023F81200013226
:10201000E3E701312046FFF7B4FB2F7869684FF002
:10202000010907F00107AD68A068C7F10008A5F134
:10203000020E82460D461FFA88F8D6E9012336784B
:10204000A2EB010B06F00106C6F1000C1FFA8CFC96
:1020500045B900EB4101FFF7E8FA2378606043F0EF
:102060000103C4E73EF8022F013D88EA020217444B
:102070000BEB0502AA4296BF33F8022B62468CEAAC
:102080000202164447EA0602360C3F0CD24319FA04
:1020900082F22AF8022B4FEA1249D9E7F0B5164628
:1020A0004A680C4685B0736805469A423EBF0B46A7
:1020B00034461E462778616833785F4017F0010781
:1020C0003AD1FFF75EFB237813F0010328D1A26811
:1020D0006468A868D6E90117641A994210D14900CA
:1020E00000230A440144A34214D101EB4301FFF74A
:1020F0009CFA2B7868606FF300032B7005B0F0BD7D
:1021000032F8136037F813C086EA0C0620F8136023
