:020000040800F2
:10000000F8FF0420557D050853D8040841D804089A
:1000100055D8040865D8040875D804080000000005
:1000200000000000000000000000000085D8040867
:1000300087D8040800000000F9E7040831E8040844
:100040002D7C050871D9040883D9040889D90408CE
:10005000816D05082D7C050805D904080BD9040815
:1000600011D9040817D904081DD904085D0B050827
:100070006D0B05087D0B05088D0B05089D0B05080C
:10008000AD0B0508BD0B05082D7C05082D7C05086A
:100090005D2D0508652D05086D2D050823D904087B
:1000A0009DD90408A3D90408B5D90408BBD904080C
:1000B000C1D90408C7D90408CDD904084DDA040809
:1000C00053DA04082D7C05082D7C05082D7C0508D5
:1000D0002D7C05081DDA040823DA040829DA04084F
:1000E00047D9040877D9040895D80408F9D9040831
:1000F000FFD9040817DA040811DA0408CD0B050843
:100100002D7C05082D7C0508D5D904082D7C050813
:100110002FDA040835DA0408EDD90408F3D9040805
:10012000DD0B0508ED0B0508FD0B05080D0C05089A
:100130001D0C0508494205087DD904082D7C0508D9
:10014000732D05087B2D0508832D050889D8040823
:100150002D0C05083D0C05084D0C05083BDA04087C
:1001600059DA04085FDA04082D7C05082D7C05089F
:100170002D7C05082D7C05082D7C0508000000005D
:100180002D7C05082D7C050841DA040847DA0408AF
:100190002D7C05082D7C05082D7C05082D7C050887
:1001A0002D7C05082D7C05082D7C05082D7C050877
:1001B0002D7C05082D7C05082D7C05082D7C050867
:1001C0002D7C05082D7C0508006870470B0A01701E
:1001D00043700B0C090E8370C1707047036A0239BB
:1001E000023B8B4283BFC389406B01FB03000020AD
:1001F0007047C2F307238A76CB764379032B01BF7E
:10020000120C0A75120A4A75704700F10B010022A0
:10021000D30143EA520310F8012B52FA83F38842C8
:10022000DAB2F5D11046704737B50D46044620B90D
:10023000092000232B6003B030BD0368002BF7D0EA
:100240005A79002AF4D081885A899142F0D11868ED
:100250000DF10702062102F089FA9DF8073003F03C
:100260000103034313F0FF00E2D12368E2E72DE925
:10027000F0470026D0F8009007460C468E7583693B
:10028000002B00F08C80C36A01336DD1FA69002322
:100290002E26551E184615F8011F013020290CD0B6
:1002A000052908BFE521092804D10B2B9EBFE718BB
:1002B00001337E72E718013379720B28EBD1E11814
:1002C00000204872A17D00295ED1002B53D06FF031
:1002D000080604F109000825361B331810F8011B25
:1002E00000294BD02E298BB25BD0A3F141011929F3
:1002F00003D8117B0D4200D020330373EDE7B8F132
:10030000000F05D100F520539BB2B3F5006F13D356
:1003100040F2B51140EA084057F058FDFF28C5F1FA
:10032000FF0A19D9BAF1010F21D96319020AD87548
:100330009A7502231D44002002368046D9F81030F9
:10034000985B0028DBD1B8F1000F4FF0000318BF15
:1003500000252544AB7599E748B1BAF1000F08D0E4
:10036000631998750123E5E7B0463546E6E70025B1
:10037000E9E75546E7E73F23A3750123234400211E
:100380009975137B03B96372D37A02F11C0023724F
:10039000FFF71AFF2060D38AE380138BA380BDE8A8
:1003A000F08710250B46A8E738B50568044615F810
:1003B000010B20B140F2B51157F028FD08B12560BE
:1003C00038BD4FF0FF30FBE737B5C37904461BB9A2
:1003D0000025284603B030BD00F13C01826B0123AB
:1003E0000068019102F0ADF9054680B9E36AE07159
:1003F000A06B626AC31A9342EAD2A3790199022BD5
:10040000E6D102440123206802F09BF9E1E70125CF
:10041000DFE738B5836B05460C468B4210D0FFF7FB
:10042000D3FF60B92246012305F13C01286802F0A0
:1004300079F900281CBF4FF0FF340120AC6338BDB0
:100440000020FCE738B500230546C3714FF0FF33A9
:100450008363FFF7DEFF044600BBB5F83A224AF695
:1004600055239A421CD195F83C30EB2B03D018331E
:10047000DBB2012B16D803220B4905F1720043F0C1
:100480001BFA48B10522094905F18E0043F014FA20
:10049000003818BF01204400204638BD0424FBE783
:1004A0000324F9E70224F7E7CC640808D0640808BD
:1004B0002DE9F041044686B001F0FE05006863793D
:1004C0008BB106210DF1070202F050F99DF80730BB
:1004D000D90708D41DB113F0040500D00A25284619
:1004E00006B0BDE8F08100230DF107020521206868
:1004F000637102F03BF99DF80730DA0700F1EB80F9
:100500000DB15B07EAD400212046FFF79BFF0228CC
:10051000034603D0012824D8257975B302AA04F232
:10052000022304F24221174613F8040C10B11846B6
:10053000FFF74AFE103342F8040B9942F4D12679B2
:1005400006B1013E57F826507DB129462046FFF7F7
:1005500079FF0346227952B9012B0ED90136032EB9
:10056000F0D9042B07D10125B9E70323F2E7042BC7
:10057000F9D0012B01D90D25B1E7B4F84730B3F517
:10058000007FF8D1B4F8527027B904F16000FFF78A
:100590001BFE074694F84C3067625A1EA371012A6D
:1005A000E9D894F84960E681002EE4D0721E324208
:1005B000E1D1B4F84D8018F00F0FA4F80C80DAD117
:1005C000B4F84F0018B904F15C00FFF7FDFDB4F872
:1005D0004A20002ACFD007FB03FE02EB181CF4448C
:1005E0006045C8D3A0EB0C01B142B1FBF6F3C2D316
:1005F0003D498B42BFD84FF6F5718B426DD903262A
:10060000501902330CEB0502032E2362A562E0624F
:10061000626350D1B4F8662058EA0202ABD19B0065
:1006200004F16800FFF7D0FD03F2FF132063B7EB7E
:10063000532FA0D34FF0FF33032EC4E905334FF0FF
:10064000800323722BD1B4F86C30012B27D1691CA5
:100650002046FFF7DEFE10BBB4F83A224AF65523D7
:1006600020729A421BD1214B04F13C00FFF7ACFDF4
:10067000984214D103F1FF5304F50870FFF7A4FD6D
:1006800003F500532033984209D104F50970FFF7B0
:100690009BFDA06104F50A70FFF796FD6061144AA6
:1006A000002566711388E56101339BB21380638175
:1006B000104B236113E7B8F1000F3FF45CAF022E3B
:1006C0004FEA430170441BBFC91803F001030B46F6
:1006D00003EB5103A8E7032501E740F6F576B342A3
:1006E0008CBF022601268BE7F5FFFF0F52526141B6
:1006F0006CC101206EC1012001292DE9F047064699
:100700000C46174674D9036A8B4271D94379022B80
:1007100040D0032B51D0012B6AD101EB5108C16AA3
:1007200001EB5821FFF775FE054640BB14F00104AC
:1007300006F13C0908F1010AC8F3080818BF3B019B
:10074000304617BF19F80820FBB203F0F00302F09F
:100750000F0218BF134309F808300123F16AF3713F
:1007600001EB5A21FFF755FE054640B9CAF3080AC6
:1007700044B1C7F3071709F80A700123F37128463B
:10078000BDE8F08719F80A30C7F3032723F00F03F9
:100790001F43F0E7C16A01EB1421FFF73AFE05465B
:1007A0000028ECD1640006F13C0304F4FF741F55EB
:1007B0001A19C7F307275770DFE7C16A01EBD41195
:1007C000FFF727FE05460028D9D1A40006F13C0317
:1007D00027F0704704F4FE7423441846FFF7F4FC36
:1007E00000F0704047EA00011846FFF7EFFCC4E74D
:1007F0000225C4E7F7B505460191FFF7E5FD04467C
:1008000000BB05F13C07019928464FF40072FFF741
:10081000E5FC21460646A863384643F025F8EB89F7
:100820009C4205D3E889001B18BF012003B0F0BD2E
:10083000012332193946286801F083FF0028F1D1DD
:100840000134ECE70120F1E7F8B50446FFF7BCFD01
:100850000546002842D16379032B37D1277A012F2F
:1008600034D104F13C0601464FF40072304642F0A8
:10087000FBFF55234122722184F83A32AA2304F562
:10088000097084F83F2084F83B32522384F8201208
:1008900084F83C3084F83D30612384F8211284F8D8
:1008A0003E3084F82332A16984F82222FFF78EFCBF
:1008B000616904F50A70FFF789FCA26A3B4631467C
:1008C00001322068A26301F03CFF257200222068FB
:1008D000114601F04BFF003818BF0120F8BD032876
:1008E0004B8B04BF8A8A43EA0243184670470129AA
:1008F000F8B506460C464ED9036A99424BD2437965
:10090000022B29D0032B34D0012B44D101EB51050C
:10091000C16A01EB5521FFF77CFD10B14FF0FF30AC
:10092000F8BD6F1CC5F30805F16A3046354401EB8C
:10093000572195F83C50FFF76CFD0028EED1C7F326
:100940000807374497F83C3045EA0320E3074CBFDB
:100950000009C0F30B00E3E7C16A01EB1421FFF7C4
:1009600058FD0028DAD1640004F4FF743444A08FE9
:10097000D6E7C16A01EBD411FFF74BFD0028CDD1BA
:10098000A40006F13C0004F4FE742044FFF71CFCB4
:1009900020F07040C4E70120C2E773B50C4606465C
:1009A00011460568012C2CD92B6AA34229D92AB1FA
:1009B0004FF0FF322846FFF79FFE40B921463068CE
:1009C0000194FFF794FF0199044610B9002002B08A
:1009D00070BD012815D0431C15D000222846FFF712
:1009E0008BFE0028F3D12A6AAB69911E8B4205D297
:1009F0000133AB612B7A43F001032B72A242DDD8A5
:100A0000E4E70220E3E70120E1E72DE9F041804639
:100A100005680F4649B96E69C6B12B6AB34298BFE3
:100A20000126AB69A3B9002406E02846FFF75FFF63
:100A30000128044603D801242046BDE8F081421C69
:100A400051D02B6A8342F7D83E46EAE70126E8E711
:100A5000BE422B6A14D1741CD8F80000A34298BF80
:100A600002242146FFF743FF0128E4D0431C3AD07B
:100A7000D8B16B69012B03D92A6A9A4288BF1E46F6
:100A8000344601342B6AA34202D8012ECBD0022473
:100A90002146D8F80000FFF72AFF40B10128CAD04C
:100AA000013020D0B442ECD1BDE7002CE8D04FF0AB
:100AB000FF3221462846FFF71FFE90B957B92A6A30
:100AC000AB69023A6C61934210D92B7A43F001036F
:100AD0002B72B1E7224639462846FFF70DFE002863
:100AE000EDD00128A7D14FF0FF34A5E7013BAB6162
:100AF000EBE72DE9F8430769044689460668203785
:100B0000B7F5001F24BF00238361836973B1C7F366
:100B10000808B8F1000F39D101334169836139B94F
:100B2000B389B3EB571F31D80023A36104200BE036
:100B3000F389013B13EA572328D13046FFF7D7FE4C
:100B40000128054602D80220BDE8F883421C01D1E5
:100B50000120F9E7336A834212D8B9F1000FE3D0DC
:100B600061692046FFF751FF0546A8B10128EAD088
:100B7000431CEDD001463046FFF73CFE0028E7D18C
:100B8000294630466561FFF729FBA0613C3600200D
:100B900027614644E661D7E70720D5E72DE9F0470E
:100BA000FF2706468846D0F800903D4604244FF6BD
:100BB000FF7AB16911B9002C64D054E04846FFF7C0
:100BC00028FC044600284ED1F0690178002961D044
:100BD000C37AE52903F03F03B37149D02E2947D0EA
:100BE00023F02002A2F1080CDCF1000242EB0C021F
:100BF00042453DD10F2B40D14C0637D5336901F02A
:100C0000BF01477BF362437BBB4231D1428B7ABB4E
:100C100003780D25D9F8104023F04003DFF878E081
:100C2000013B6B4301251EF801CB30F80CC00DB31E
:100C3000FF2B1DD824F813C06546013301320D2A5D
:100C4000F1D10278520605D525B1FF2B10D800222C
:100C500024F813204B1EDDB200213046FFF749FF78
:100C600004460028A5D00023B3610CE08D42CAD011
:100C7000FF25F1E7D445E1D0FAE73DB9FFF7C5FA22
:100C8000B84203D100242046BDE8F0874FF0FF337F
:100C9000F362F8E70424E6E79A650808B1F5001F57
:100CA000F8B506460C46056801D30220F8BDCA0611
:100CB000FBD182680161BAB96B79022B01D92B6B28
:100CC0009BB9AB89B3EB541FEFD9286BC6E905205C
:100CD0000028EAD000EB54203C35C4F30804B0618E
:100CE00000202544F561E1E71346EF891A467F02AB
:100CF000BC42114603D22846FFF770FAE6E7306897
:100D0000FFF7F5FD431C024606D00128CDD92B6A1A
:100D10008342CAD9E41BEBE70120C7E7F8B50E46CA
:100D2000002104460768FFF7B9FFA8B90546A16985
:100D30003846FFF76EFB78B9E3691B78E52B00D0E6
:100D40001BB90135B54201D1F8BD05460121204648
:100D5000FFF7CFFE0028EAD0042808BF0720F3E7FA
:100D6000C16A4B1C2DE9F04104460568066918D19B
:100D7000E5274FF00108A1692846FFF74AFB60B953
:100D8000E3691F7085F807802369B3420DD20146DD
:100D90002046FFF7AEFE0028EDD0042808BF022051
:100DA00003E0FFF77BFF0028E2D0BDE8F081000000
:100DB0002DE9F04F002185B00446D0F800B0FFF7D0
:100DC0006DFF0546002840F08D804FF0FF084FF082
:100DD000FF3AC146C4F82CA0A1695846FFF719FB99
:100DE000054600287ED1E6693778002F7ED0F27A5A
:100DF000E52F02F03F03A37103D0100704D50F2B9A
:100E000004D0C4F82CA050E00F2B56D194F82B300E
:100E1000590640D47A0646D5236907F0BF0796F8ED
:100E20000D80E362737B43453FD1738B002B3CD134
:100E300035780122DBF8103005F03F05DFF8B4907B
:100E400000930D23013D5D4319F8013BF35A7AB33A
:100E5000FF2D2AD81846039356F0ECFF009B691C1F
:100E6000029033F81500019156F0E4FF029A824295
:100E70001BD1039B01991A460D461D4B9945E3D1A1
:100E800033785B0604D51AB1009B33F8153063B98B
:100E9000013F5FFA87F900212046FFF72AFE054649
:100EA000002899D01EE0B945BCD04FF0FF09F2E709
:100EB0004FF6FF718B42E0D0F7E7B9F1000F04D194
:100EC0003046FFF7A2F940450CD094F82B5015F0AE
:100ED000010596D10B2204F12001304642F0ECFCD2
:100EE00000288ED1284605B0BDE8F08F0425F9E72B
:100EF000A76508089A6508082DE9F04F90F82BB00F
:100F000089B005461BF0A00440F0E38007683A6909
:100F100032F81430002B6DD105F120060DF1140AC2
:100F20001BF0010F96E807008AE8070000F0D88060
:100F300040234FF0010885F82B30B4463B69B8F1E7
:100F4000050F9AE80700ACE803002CF8022B4FEAE3
:100F500012428CF8002060D9981E424630F8021FD9
:100F6000002949D10DF1130C072102F00F0E0139B0
:100F70000EF13000392888BF0EF137000F2A0CF827
:100F800001094FEA12104AD801F120037E200DEB2F
:100F9000030202F8140C30460022914206D010F8E9
:100FA00001CB02F1010EBCF1200F3AD105F11F0C6B
:100FB000072902F1010297BF01F12003202001312E
:100FC0000DEB030098BF10F8140C072A0CF8020070
:100FD000EED92846FFF7ECFE814600287CD108F1C7
:100FE0000108B8F1640FA8D14FF00709484609B0CD
:100FF000BDE8F08F01348BE74FF0100C01F0010ECB
:1010000049080EEB4202D30344BF82F4883282F0D7
:101010002102BCF1010CF1D1A0E74246A2E7024651
:10102000A3E77246B9E729692846A1EB4411FFF707
:1010300035FE81460028D9D14FF6FF783046FFF7BC
:10104000E4F80190A9693846FFF7E3F981460028E2
:10105000CCD1EB69E1B2019A4FF00D0CD7F810E05A
:101060005A734FF00F02DFF8DCA0DA724A1E1873D1
:101070000CFB02F284469876D87640451AF8019B1C
:101080000CF1010C18BF3EF8120003EB090B18BF5E
:10109000013203F809004FEA1029002808BF404632
:1010A000BCF10D0F8BF80190E7D1404502D03EF81E
:1010B00012200AB941F0400119700123002128468D
:1010C000FB71FFF716FD814600288FD1013CB9D195
:1010D0001AE04FF0060989E7042887D185F82BB07C
:1010E0001BF0020F28461BBF0C340D230124B4FB58
:1010F000F3F418BF01342146FFF710FE81460028A3
:101100007FF474AF013C8ED1A9693846FFF781F9AD
:10111000814600287FF46AAF01462022E86942F048
:10112000A3FBEB6903CE18605960B27831889A72DC
:10113000198195F82B30EA6903F018031373012322
:10114000FB7153E79A6508082DE9F04F036887B0F3
:101150000646884601930B782F2B01D05C2B09D1D2
:1011600042461378904601322F2BFAD05C2BF8D0F0
:10117000002301E0019BDB69B36098F800301F2B6E
:1011800000F2318180230021304686F82B3007B0F1
:10119000BDE8F04FFFF782BDFE2D00F24C812AF82A
:1011A0001540013525E108F101030593DDF81480B0
:1011B00098F800302F2BF6D05C2BF4D01F2C8CBF6E
:1011C00000240124012D4FEA84042ED1BAF8003006
:1011D0002E2B30D1002306F120022AF815309D4233
:1011E0008CBF2E21202101330B2B02F8011BF6D1DD
:1011F00044F02004E4B2304686F82B40FFF7D8FDD7
:1012000096F82B30002800F0DD80042840F014818F
:10121000990603F0040240F1D180002A00F0E38037
:101220008023002086F82B3006E1022D03D1BAF886
:1012300002302E2BCAD0AAF1020206E032F8153095
:10124000202B01D02E2B02D1013D002DF6D1002301
:101250002AF81530002D00F0EE803AF813201946D8
:101260000133202AF9D009B92E2A02D144F003040F
:10127000E4B2AAF1020232F815302E2B01D0013D62
:10128000F9D14FF000094FF020334FF0080B4F46D3
:1012900073623362C6F827303AF811004A1CD0B1A5
:1012A000202803D02E2806D1AA4208D044F00304F7
:1012B000E4B21146F0E7D94505D2AA423ED1BBF1CE
:1012C0000B0F33D102E0BBF10B0F29D144F0030423
:1012D0004FF00B0BE4B296F82030E52B04BF05234A
:1012E00086F82030BBF1080F04BFBF00FFB207F043
:1012F0000C030C2B03D007F00303032B02D144F0A3
:101300000204E4B2A3073FF576AFFD0744BF44F003
:101310001004E4B278077FF56EAF44F0080469E783
:10132000AA4203D044F00304E4B2D4D8BF002A4652
:101330004FF00B0B4FF00809FFB2BAE77F2838D9FE
:1013400044F0020340F2B5110392DBB2029356F06F
:101350003DFD10F0800FDDE9023210D000F07F007B
:101360003F49085C30B13F4C14F8011B002968D09C
:101370008142F9D143F003035F20DBB211E0FF2883
:10138000F0D90BF1FF31894504D344F00304D94669
:10139000E4B28EE706EB0901040A09F1010981F8BC
:1013A000204006EB09011C4609F1010981F82000E3
:1013B0007FE72346D7E747F00207F2E7002A08BF96
:1013C000052039E05A0737D4B379DB0637D5019BBE
:1013D00003F13C013369C3F308031944019B5879B5
:1013E000FFF77DFAB06033680025CDF81480D3F89C
:1013F00010A005A8FEF7D8FF421C1CD0B0F5803F16
:1014000084B222BF030C2AF8153001351F2C7FF659
:10141000CDAE2F2C3FF4CAAE5C2C3FF4C7AE7F2C70
:101420003FF6BAAE2046104A12F8013B002B3FF4BB
:10143000B3AE8342F8D1062007B0BDE8F08F052097
:10144000FAE7A0F1410189B21929B4D9A0F16101EB
:1014500089B219299EBF203847F0010780B2A0E762
:101460001A650808DF640808D6640808002141717D
:10147000FFF71EB82DE9F04105468CB090461E4698
:101480000C46002900F0BB8003F03F073946FFF708
:101490000FF8002840F0AB80414668460095FFF702
:1014A00053FE024620B99DF92B30002BB8BF06220F
:1014B00016F01C0F68D0002A3AD0042A35D16846AD
:1014C000FFF71AFD024680BB47F00807DDF81C80D5
:1014D00068794146FFF703FA064655F0F9FD0146E3
:1014E00008F10E002022FEF771FE079B2846DA72F3
:1014F00000220799FEF77DFE079B00221A775A7794
:101500009A77DA770123EB71DEB131466846D5F878
:101510003880FFF742FA024638B9013E4146284674
:10152000FEF777FF6E61024658B10023236027E083
:101530009DF8063013F0110F30D1730759D43007DE
:10154000C4D4AB6B38070799236248BF47F0400704
:1015500061626879FFF7C3F9A060034601F11C00DE
:10156000FEF732FE6A89B9060646A2804FF00002F5
:10157000E060256027746274E261626110D4002229
:1015800010460CB0BDE8F081002ACED19DF806309F
:10159000D90630D4B207D4D5DE07D2D50722C4E7A6
:1015A0000028ECD0EF8960617F02B74210D300229F
:1015B000A361002AB9D1C6F308010029DFD019467A
:1015C0002846FEF70BFEC0B100EB5620E061D7E7DE
:1015D00019462068FFF78BF901280346A6EB07069A
:1015E00003D9421CE1D10122E2E70222E0E70246F0
:1015F0009BE7082299E7042297E7022295E7092250
:10160000BEE72DE9F04F994685B00023884603A92F
:101610000446C9F800301546FEF706FE064608BB2C
:10162000667CFEB994F810A01AF0010300937FD0F5
:10163000E7686369FF1AAF4228BF2F4697B1626916
:10164000C2F30803002B58D1DDF80CB0BBF80E3004
:10165000013B13EA522A15D142B9A06801280AD8E1
:1016600002266674304605B0BDE8F08FA169206897
:10167000FFF73DF9F2E7431C03D10123009E637499
:10168000F0E7A061A1695846FEF7A8FD0028E7D061
:10169000B7F5007F0AEB00022ED3BBF80E100AEB61
:1016A00057207D0A01928842DBF8000088BFA1EB39
:1016B0000A0541462B4601F035F80028DDD19BF89C
:1016C00007306BB1DBF83800019A801AA84207D2C4
:1016D0004FF400720BF13C0108EB402042F080F81F
:1016E0006D02D9F800307F1BA8442B44C9F80030A4
:1016F00063692B446361A1E7E2616569DDF80CB0C1
:10170000C5F30805E1695846C5F50075BD4228BF17
:101710003D46FEF77EFE0028AFD161690BF13C0B20
:101720002A464046C1F30801594442F059F8D8E727
:10173000072697E72DE9F04F994685B000238846A4
:1017400003A90446C9F800301746FEF76DFD0646AA
:1017500018BB667C0EBB237C9A0740F1A4806369AA
:10176000FB4200D3DF43A7B16369C3F30802002A39
:101770007AD1039DB5F80EB00BF1FF3B1BEA532B5A
:101780001ED173B9A06870B901462046FFF73DF934
:1017900048B9237C43F040032374304605B0BDE8CC
:1017A000F08FA169F1E7012802D102266674F4E7FF
:1017B000431C01D10126F9E7A368A06103B9A06029
:1017C000AA6BE3699A4204D12846FEF7FDFD002882
:1017D000F0D1A1692846FEF701FD0028E5D0B7F554
:1017E000007F0BEB000A32D3E9890BEB57207B0A11
:1017F00052468842286888BFA1EB0B0341460193FB
:1018000000F09FFF83460028D4D1A96B019BA1EB78
:101810000A0199420AD24FF4007208EB412105F106
:101820003C0041F0DDFF019B85F807B05D02D9F86F
:1018300000307F1BA8442B44C9F8003063691D4465
:10184000E3686561AB422CBFE360E5608BE76169EB
:10185000E368994206D32846FEF7B6FD0028A9D1D1
:10186000C5F838A0C4F81CA06569DDF80CB0C5F354
:101870000805E1695846C5F50075BD4228BF3D46DB
:10188000FEF7C7FD002895D163690BF13C002A469D
:101890004146C3F30803184441F0A2FF4FF001038F
:1018A0008BF80730C3E7072677E72DE9F34101A955
:1018B0000546FEF7B9FC044668BB2C7C14F04004D6
:1018C00029D055F005FC019F8046296A3846FEF76D
:1018D000A0FD0446F8B96E6AF37A314643F020035E
:1018E000F372AA682868FEF784FCE96806F11C0018
:1018F000FEF76CFC414606F11600FEF767FC01237B
:10190000B4743846F474FB71FEF79EFF2B7C0446DA
:1019100023F040032B74204602B0BDE8F08113B5DC
:101920000446FFF7C2FF28B901A92046FEF77CFC58
:1019300000B9206002B010BD70B50E468CB0002119
:101940000546FEF7B5FD044660B931466846009588
:10195000FFF7FAFB044690B99DF92B30002B04DA0F
:10196000029BEB6120460CB070BD9DF80630DB0693
:1019700009D507996879FEF7B2FFE861F2E7042814
:1019800008BF0524EEE70524ECE72DE9F0470E46F5
:101990000021D2B0814631709046FEF789FD0546A0
:1019A000F0B9D9F81C304446CDF800900293DDF828
:1019B00008A0BAF1000F19D1444502D1013C2F23F0
:1019C00033553346A11B1A5D03F8012B5A18904575
:1019D000F9D8A8EB04030134A04538BF01231E4405
:1019E00000232846337052B0BDE8F08720216846B6
:1019F000FFF754F9002847D106994846FEF709FD3C
:101A0000074600283ED1079999F80500FEF767FFC1
:101A1000394602906846FFF741F9A8BB00216846A5
:101A2000FFF7BCF8074698BB079999F80500FEF741
:101A300056FF50450AD039466846FFF75AF8002845
:101A4000ECD00546042D08BF0225C9E70CA968465D
:101A5000FEF70DFC0DF14603194613F8012BBA46AB
:101A60000137002AF9D1BC4210D3A4EB0A07013C8C
:101A70005246F019A4EB0A0441F0B2FE2F2333556D
:101A80007C1E94E70546ABE70546A9E71125A7E7C5
:101A90000546D7E72DE9F7430D4601A90446FEF7B1
:101AA000C3FB0646002852D1667C002E4FD1E36866
:101AB000AB4204D2227C12F0020F08BF1D46002266
:101AC000636962619DB90020E2686369934284BFE3
:101AD000227CE360C3F3080384BF42F04002227417
:101AE000002B34D0E369834218BFE0612FE0DDF8BA
:101AF0000480B8F80E707F02FBB1013B6A1EB3FB95
:101B0000F7F1B2FBF7F28A4217D37A42A169134088
:101B1000ED1A63610029D6D0BD42636922D863699A
:101B20002B446361C5F30803002BCCD04046FEF77D
:101B300055FB50B100EB5520C6E7A16881B920469E
:101B4000FEF763FF0128014605D102266674304680
:101B500003B0BDE8F083481C01D10126F6E7A1607F
:101B6000A161D7E73B44A5EB07096361237C9A0792
:101B700006D52046FEF749FF054628B90146CEE7BF
:101B80002068FEF7B4FE05466B1CE6D0012DDCD9BB
:101B9000D8F82030AB42D8D92946A5614D46BBE7DD
:101BA00070B5054616460C4621B30021FEF780FCB1
:101BB00068B9314620462560FFF7C6FAE0B994F9C6
:101BC0002B30002B0BDBA379DB0603D4052000238D
:101BD00023600EE06879E169FEF781FEA0606B8901
:101BE00000212046A380FFF759F80428EED00028F2
:101BF000EDD170BD0920FCE70428E7D0E7E713B575
:101C000001A90446FEF710FB00B9206002B010BD28
:101C100073B50D4601A90446FEF706FBC8B935B9F0
:101C20002946204602B0BDE87040FFF737B80146AC
:101C30002046FEF7B3FF10F0FB060AD129462046E6
:101C4000FEF715FB31462046FEF753FF042808BF78
:101C5000002002B070BD70B504468CB00E46002165
:101C60001546FEF725FC0094044670B931466846D7
:101C7000FFF76AFA044640B99DF92B30002B07DBC9
:101C80001DB129466846FEF7F2FA20460CB070BD39
:101C90000624FAE72DE9F84F884600210446FEF7AE
:101CA00007FC054640B9D4F820A0A369AAF10202B6
:101CB000934204D8C8F800302846BDE8F88F63790D
:101CC000012B17D10227064639462046FEF70FFEA4
:101CD000431C35D0012835D000B901360137236ABD
:101CE000BB42F1D8C8F80060237AA66143F0010333
:101CF0002372E1E7E16A0746064604F13C0937B979
:101D0000204601F1010BFEF784FBE8B959466379DF
:101D100009EB0700022B0AD139F8073003B9013665
:101D20000237BAF1010AC7F30807E8D1DAE7FEF78C
:101D30004BFA30F0704307F1040708BF0136F0E7B3
:101D40000125CFE70225CDE70546CBE7F0B50E46E6
:101D500099B002210546FEF7ABFB044688B931462F
:101D600068460095FFF7F0F9044650B99DF82B300E
:101D700098063BD4190639D49DF80670FA0703D5A6
:101D80000724204619B0F0BD07996879FEF7A7FD32
:101D9000FB0606460BD46846FEF7E2FF0446002821
:101DA000EFD1D6B92846FEF74FFD0446E9E7EB69C7
:101DB0008342E5D021460E900CA80C95FEF76EFFED
:101DC00004460028DDD101460CA8FEF7E7FE0446D4
:101DD0000028D5D00428D4D1DDE702463146684634
:101DE000FEF7DBFD04460028CBD1DBE70624C8E77D
:101DF0002DE9F0410E4690B002210546FEF758FB52
:101E00000446002869D1314604A80495FFF79CF9DF
:101E1000044600286FD004285FD19DF83B1011F0D4
:101E200020016AD168460095FEF7EFFD06460028BE
:101E300057D0012857D0431C5C425C4155F048F90B
:101E40000746002C51D131462846FEF7D3FC044604
:101E500000284AD14FF0203305F13C04394605F102
:101E60005200EB6332462B64C5F843302E2385F8CD
:101E70003C30102385F84730FEF7A8F92146284664
:101E8000FEF7B7F905F15C031A4651F8040B9942C5
:101E900042F8040BF9D12E234FF00108069A284688
:101EA00085F85D30FEF7A5F904A885F80780FFF7EF
:101EB00023F80446C8B90B98394632461630FEF767
:101EC00085F90B992846FEF794F90B9B1022DA72DC
:101ED00085F80780FEF7B8FC0446204610B0BDE840
:101EE000F0810724AAE70224A8E7002231466846C9
:101EF000FEF753FDF1E70824EFE70624EDE7F0B520
:101F00000D46A1B0022104461746FEF7D1FA00287B
:101F100078D1294608A80894FFF716F9002871D14E
:101F20009DF84B3013F0A00F6ED10F9B6D4603F15F
:101F300020061868083353F8041C2A46B34203C22B
:101F40001546F6D108AE14AD0FCE0FC50FCE0FC596
:101F500096E80F0085E80F00394614A8FFF7F4F85B
:101F600048B9169A0A9B9A4203D1189A0C9B9A4236
:101F700003D0082046E0042844D114A8FEF7BCFF93
:101F800000283FD11B990DF10D030DF11D0001F14A
:101F90000D0253F8045B834242F8045BF9D11888C0
:101FA000012510809B7893709DF80B30DA0658BF9E
:101FB00043F02003CB72E571CB7ADB061BD50A9A7E
:101FC000169B9A4217D06079FEF789FC014620469D
:101FD000FEF704F90146C8B12046FEF71AFA88B99F
:101FE00094F85D302E2B06D1169A04F15C01204640
:101FF000FEF7FFF8E57108A8FEF7B2FE10B920461B
:10200000FEF722FC21B0F0BD0620FBE70220F9E735
:10201000F0B595B0064601910221FEF749FA044653
:10202000002833D14FF0203302AF054602937B6086
:10203000C7F80730019B1B781F2B20D89DF808306C
:10204000E52B22D01DB16B1EFA5C202A30D0002176
:1020500008A808960A91FEF721FE0446B0B90121AE
:1020600008A8FEF79BFD70BB0F9A1DB33B4603CB40
:102070001060516019889B78118193721CE001A84F
:10208000FEF792F9B0F5803F03D30624204615B041
:10209000F0BD55F0CFFE40F2B51155F097FE002887
:1020A000F3D01E4A12F8013B93B39842FAD1ECE701
:1020B0001D46C7E7E523137001233046F371FEF791
:1020C000C3FB0446E2E70428FBD1002DDED001214A
:1020D00008A8FEF723FE04460028D7D12022014697
:1020E0000F9841F0C1FB08220F9BDA720F9ABDE7EF
:1020F000092DCAD805F15003020A01356B4403F8D3
:10210000482C05F1500301356B4403F8480C91E766
:10211000FF28EDD80A2DF4D9B7E700BFA765080856
:102120002DE9F04F1C4600238BB0D0F8008043719E
:10213000154603790DF11F020291404605210193D6
:1021400000F014FB9DF81F30DA0700F171825E0782
:1021500000F1708208AA0321404600F007FB30B965
:10216000089A531EB3F5004F01D21A4201D0012341
:1021700008935DB1A5F50072594B9A4203D913201B
:102180000BB0BDE8F08F6B1E2B42F8D1002C00F095
:102190005382149BB3F5007FC0F04E82019B002B4D
:1021A00062D0012300222146404600F0BBFA08B16C
:1021B0000120E5E7B4F8FE214AF655239A4201D002
:1021C0000E20DDE7019B04EB031202F5D77392F8B2
:1021D000B221002AF4D003F10800FDF7F5FF07460D
:1021E00003F10C00FDF7F0FF8346BBF1150FCDF8AE
:1021F00024B0E5D9B5F5813FC1D2029B6A0A13F03C
:1022000002030593029B42D003F00703022B00F068
:102210002182029BD80740F11D82002A40D14FEA5B
:102220001B353048012630F8023B0BB1AB4235D9A3
:10223000BBFBF6F540F6F5739D424FF0200394BFCB
:1022400005EB4505023504938BBF4FF002090135BC
:102250006D004FF001094FF001039CBF6D0803357D
:1022600005F2FF156D0A18E209AA0121404600F0A7
:102270007DFA00289CD1029B13F0080F099B14BF24
:1022800000273F27BB429BD3A3EB070BADE7D90742
:10229000C3D474E75200E4E11346E9E17600C2E7F3
:1022A0001646C5E7B9F1020F1ED14FF6F570039936
:1022B000814208D9002A40F0C9817600402E00F200
:1022C00025823246A9E740F6F5700399814213D87A
:1022D000002A7FF475AF7200802A9ED970E700BF94
:1022E00000FEFF00BA65080840F6F57203999142B6
:1022F0003FF666AF4FF001094FF40072002120460F
:10230000059341F0B1FA059BCC4AA373C3F30723AD
:102310001168E373012321602374B9F10303516849
:1023200018BF0123BBF5803F616011894FEA430369
:10233000927A2181A2724FF0020266732273A37413
:1023400080F0128184F813B0CBF3072B84F814B01B
:10235000F823394604F11C0063753F232376FF23DD
:10236000A376FDF733FFB9F1030F40F0038154F07A
:10237000AFFE014604F143000122FDF727FF294685
:1023800004F12400FDF722FF022384F83020062206
:1023900084F82C30002384F8322004F1470284F8BA
:1023A0002D3084F82E3084F82F3084F8313084F8C2
:1023B0003330802384F84030292384F84230A04B06
:1023C00003F1100153F8040B8B4242F8040BF9D1CE
:1023D000198840469B781180214693704FF0550331
:1023E0003A4684F8FE316FF0550384F8FF3101233B
:1023F00000F0A7F9834600287FF4DAAEB9F1030FA5
:1024000038D10123BA1D2146404600F09AF94FF415
:1024100000725946204641F027FA52234122722188
:10242000237004F5F47063706123E270A37084F884
:10243000E731039B84F8E41184F8E511591E84F810
:10244000E621FA1DFDF7C2FE02232146404684F82C
:10245000EC314FF0550384F8FE316FF0550384F8EA
:10246000FF31012300F06DF9012321464046FA189F
:1024700000F067F9149B0021204623F4FF7222F03C
:10248000010241F0F1F9B9F1030F40F09080F82317
:102490002370FF236370A370E37023716371A371D2
:1024A000E37123726372A3720F23E372149B5B0ABE
:1024B0000393039B214652464046AB4228BF2B461E
:1024C0009B4600F03EF9014600287FF471AE4FF4C0
:1024D0000072204641F0C8F9B5EB0B05DA44E8D1AB
:1024E000049BB9F1030F18BF1E46039D52462146B7
:1024F0004046B54228BF35462B4600F022F9002859
:102500007FF456AE761BAA44EFD1B9F1030F58D031
:10251000099BB3F5803F56D2B9F1020F0CBF0425D9
:102520000125019B002B50D000220123214640466B
:1025300000F0F8F8024600287FF43AAE019B04EB65
:10254000031383F8B25101232146404600F0F9F805
:1025500000287FF42DAE00224046114600F006F917
:10256000003818BF01200BE6594604F12000FDF7A2
:102570002DFEEDE654F0ACFD014604F1270004F118
:102580002B02FDF723FEC5F30723A575E375802312
:1025900084F82430292384F826302A4B03F11001D3
:1025A00053F8040B8B4242F8040BF9D110E7B9F150
:1025B000010F2549204618BF6FF00701FDF706FE01
:1025C00074E70C25ADE70625ABE7029B1B07C2D4D9
:1025D0004FF4007201992046012641F045F9552338
:1025E00084F8C2513946099D04F5E37084F8FE3140
:1025F000AA23EA1984F8BF6184F8FF3143F6C16366
:1026000084F8C061B2FBF3F2FE2384F8C52184F89C
:10261000C331930843F03F0384F8C431FDF7D6FD7E
:10262000294604F5E570FDF7D1FD3346019A8BE7A5
:102630000320A5E50A20A3E51120A1E5E66408082A
:10264000F264080806650808F8FFFF00059B002BE8
:102650003FF4B6AD002A7FF41FAE4FEA5B452F482A
:10266000012230F8023B1BB1AB427FF613AE0023D0
:102670002B4EBBFBF2F08500A0F57F40F63805F24B
:102680000725B0424FEA55253FF69AAD16461A4641
:1026900000234FF0030904932023049807EB030A57
:1026A000DDF820E0B9F1030F05EB000C0EF1FF306F
:1026B000CEF1000ED444604400EA0E00A0EB0C0002
:1026C00006BF1B1882442D18C7EB061060445845FE
:1026D0003FF676AD0498B9F1030FABEB0000A0EB29
:1026E0000300A0EB0500B0FBF6F003907FF4DAAD39
:1026F0004FF6F570039981423FF6FEAD002A7FF454
:102700005FAD012E7FF65CAD7208A3E7059B002B41
:10271000A3D1802E3FF654AD324689E5C86508083E
:10272000FFFFFE0F10B50C4611461A4638B123467E
:1027300004303DF00BFB003818BF012010BD042011
:10274000FCE710B50C4611461A4650B1234604303A
:102750003DF022FB10F11E0F05D0003818BF0120FC
:1027600010BD0420FCE70220FAE7000070B50C461B
:1027700015460646002831D001F00703224AD15CF5
:1027800071B3002204303DF033FB062C26D8DFE87D
:1027900004F008050A152518180006202BF002F889
:1027A0002860002070BD062804D14FF400702880F6
:1027B000B060F6E72AF0F6FF80B2F8E701232B605D
:1027C000EFE7062801D0430806D1336AB3FA83F352
:1027D0005B099B002B70E4E70123FBE70420E1E7A2
:1027E000062CFBD801A353F824F000BFA327000850
:1027F0009B270008AB270008BD270008DD2700083D
:10280000CB270008CB27000814A00708086833F07E
:102810000ABC0000022970B5044615461E4613D1B5
:102820005368012B0AD0022B0CD01BB91168201D54
:10283000FFF730F9A3692B60002070BD81692B6818
:102840001944F4E70169FAE701290AD10430FFF7D6
:102850002CF80028F0D0084B1B5C4FF0FF303360A1
:10286000EBE7042906D14368002BE5D00430FFF7DD
:1028700056F8EEE71623F0E754A0070837B51D46D3
:10288000043001AB1446FEF755FF38B1064B1B5C14
:102890004FF0FF342B60204603B030BD019BA342B4
:1028A000F9D01C23F4E700BF54A0070813B51C4659
:1028B000043001ABFEF7A5FE30B1044B1B5C4FF0BA
:1028C000FF30236002B010BD0198FBE754A0070859
:1028D0002DE9F843814650680E469046002430F0BA
:1028E000D5FE2E4A01382E4910F8013FD3B92C20CD
:1028F0001DF0E0FB07460546D8F8000047F8046BDA
:1029000030F0C4FE39460246E3B209F14400FEF756
:10291000B1FD0646C0B328461DF0E6FB214B985D8D
:102920002AF002F9782BDFD8712B08D8612B24D03C
:10293000622B25D02B2BD7D144F00304D4E7723B74
:10294000062BD1D801A555F823F000BF692900084E
:10295000E928000885290008E9280008E928000876
:102960006F2900087529000844F00104BCE744F011
:102970000A04B9E744F00604B6E744F01204B3E7EA
:102980000E46B1E71646AFE7E30603D52969384698
:10299000FFF780F82846BDE8F88300BFA4A0070829
:1029A00068A0070854A0070830B587B00446084659
:1029B000114603AD1A46064B0195009303232AF0F6
:1029C000D1FB2A4621460020FFF782FF07B030BD29
:1029D0003CA007081FB50623CDE9011201AA03494F
:1029E0000393FFF775FF05B05DF804FBA4A007088B
:1029F00013B50446084601912AF048FE019B0246A1
:102A00000349204602B0BDE8104000F0ABBF00BF54
:102A10001CA0070806292DE9F74F07469DF830004E
:102A200010D8012905D93F2307F8013B00233B704B
:102A300001E00029FAD1012994BF0020012003B050
:102A4000BDE8F08F10EE104A002C3C4622DAB4EEBE
:102A5000400AF1EE10FA1DD6B1EE400A2D2004F81E
:102A6000010BF0EEC07A9FEDC67A02F02009F4EE79
:102A7000477AF1EE10FA12DD49F0490549F04E01AE
:102A8000E31C49F04602A27000222570D81B617039
:102A90001A70D4E70028E4D004F8010BE1E7B4EEA3
:102AA000400AF1EE10FA06D749F04E0249F0410112
:102AB000E31C1546E7E7002B42F02006B8BF0623CB
:102AC000672E02D1002B08BF0123E21B10EE100A73
:102AD000891A002801F1FF324FD1662E3ED1581CD1
:102AE0004FF00008904245464FF066024046A8BFAE
:102AF000CB1E591C652A23EAE37A40F011810AF1C2
:102B00000101B2EE047A00234FF02E0B0193019BDA
:102B1000994200F30E81662E40F03C818D4240F3D5
:102B20009881B8F1000F15D00A2149F0450984F8C1
:102B30000180043404F8049C95FBF1F393FBF1F25B
:102B400001FB123201FB13533032303304F8022CF4
:102B500004F8013C0023E01B237070E7581D9042ED
:102B60003246A8BFCB1F652E4FF0000140F0CD804C
:102B70004FF02B0808460D46BCE7B0F17E5F71D2DE
:102B8000DFED807A0620DFF804824FF0200EB4EEED
:102B9000E70ADFF8FCC10025F1EE10FAACBF4FF0F8
:102BA000310A4FF0300AB8EC017A0CF1040CB4EEA3
:102BB000C07AF1EE10FAC4BF1CED017A75444FEAF9
:102BC0006E0EC8BF20EE070A0138ECD110EE100AD5
:102BD000B0F17E5F2AD2B4EEE70AF1EE10FA20DB04
:102BE000002DB7EE000A14BF4FF02D084FF02B0850
:102BF000662E03D0672E2BD1042D29DC672E84F896
:102C000000A004BF05F1FF301B18581C9042A8BF5C
:102C1000CB1E73B90134194698464FF0FF30662237
:102C200068E7F2EE047A013520EE270A4FF02D080E
:102C3000DEE72E221946023404F8012C3022013D31
:102C400065D009B98846E8E7013904F8012BF6E7B1
:102C50008A1F9A4202DC672E5BD0CB1F32460021CE
:102C6000084647E7DFF828810620DFF820C14FF04B
:102C7000200E0025F8EC017A0CF1040CF4EEC07A79
:102C8000F1EE10FA9CBF5CED017A75444FEA6E0ECE
:102C900098BF20EE270A0138ECD1FDEEC07A17EE7E
:102CA000900A0928C2BFDFED387A013520EE270AE5
:102CB000662E11D1954211DA59190131914205DB85
:102CC000521B012AA2F1020308BF0023E91828467B
:102CD0004FF000080131A2E7652E09D18A1F9A4200
:102CE00000DCCB1F00214FF02B086522084601E7CE
:102CF000672E10D1181D904200DB8B1F9D4201DB17
:102D0000672209E06A1C9B1AE0E7884632E7A8467A
:102D100083E71346A2E7324600214FF02B089FE7D6
:102D2000672A7FF4EEAE002BD6BF012151468A46BA
:102D3000E7E6FDEEC07A04F1010E17EE903A002BA3
:102D4000A8BF03F1300C019BB4BF4FF0300C5FFA09
:102D50008CFC984284F800C006D1BAF1000F03D071
:102D600004F1020E84F801B0F8EEE77A019B744694
:102D7000013330EE670A019320EE070AC7E600BF71
:102D8000FFFF7F7FF8FF7F3FCDCCCC3DE0430708BE
:102D9000F8430708F1EE047AB4EEE70AF1EE10FA10
:102DA00037DB611E30200B788B4601392E2BFAD091
:102DB000A3F1300CBCF1090F3DD90BF1010B9BF8CD
:102DC0000030302B25D19BF801102E293FD1662AE7
:102DD0003DD0B8F12D0F8BF800108BF8013034D1B5
:102DE000013D08BF4FF02B085C450BF10100ABEB38
:102DF0000401A4EB0B0238BF0021A0EB04003CBF90
:102E0000012000222144204440F01AFD31238BF898
:102E10000030672E7FF485AEBAF1000F3FF481AE2B
:102E200023461C46013B14F8012C302AF9D02E2AE7
:102E300008BF1C4675E6392B03D001338BF80030F0
:102E4000BDE7BB454870AED1B9E70135CCE70134E9
:102E5000CAE7F1EE047AB4EEE70AF1EE10FAA0DA6E
:102E60005FE600BF044608B531B1054B4A6C03600C
:102E7000002309682CF0F6FC20461DF0E9F800BF9D
:102E8000705407082DE9FF471E464518019212B1FC
:102E9000023A222A34D80446AC42274639D214F8E2
:102EA000010B1EF0DFF980460028F5D13B782B2B73
:102EB00029D12746E91B384601AA002428F0B5F994
:102EC0000744B946A9454B4626D3B8F1000F00D0B8
:102ED0006442640044F00104BB4209D01F46AF4283
:102EE0003B4641D2187801371EF0BCF90028F6D1D4
:102EF0002049019A20482CF079FC3146FFF7B2FFB7
:102F00001E4829F0FDFB2D2B04BF27464FF001087A
:102F1000D0E74FF00008CDE719F8012BA2F1300AF5
:102F2000BAF1090F09D95F2ACCD042F02002A2F1F0
:102F300061011929C9D8A2F1570A01995145C4D98B
:102F4000204637F04BF828B9019B03FB04A494EA10
:102F50004403B7D5019B4246E91B03A803972DF014
:102F600043FE039B0446B7E7C2D1204604B0BDE848
:102F7000F08700BF2544070860550708104407087C
:102F80002DE9F04F2DED028B83B004469146461893
:102F9000DDF838800193B442254680F030812878EE
:102FA00001341EF05FF907460028F4D12B782B2B53
:102FB00009D125468246B4420CD30023DFED938A23
:102FC0001F4618468AE02D2B03D125464FF0010AF3
:102FD000F1E782462B7843F02003692B31D1AB1CFB
:102FE0009E4240F204816B7843F020036E2B40F048
:102FF000FE80AB7843F02003662B40F0F880EB1D99
:10300000EC1C9E421AD9EB7843F02003692B15D1B2
:103010002B7943F020036E2B10D16B7943F0200302
:10302000692B0BD1AB7943F02003742B06D1EB79DC
:1030300043F02003792B01D105F108049FED748A38
:1030400014E06E2B2AD1AB1C9E4240F2D0806B78EC
:1030500043F02003612B40F0CA80AB7843F020039B
:103060006E2B40F0C480EC1C9FED6A8ABAF1000F11
:1030700001D0B1EE488AA54209D0B442234680F07F
:103080009880187801341EF0EDF80028F5D16249D7
:1030900062482CF015FB4146FFF7E4FE0023F2EEF8
:1030A000046AAC46DFED598A184619469FED5C7AF2
:1030B0000093644614F801EBAEF1300BBBF1090F3D
:1030C00038D8022922D1574A904202DC0A2202FB58
:1030D00000B0A6425ED8009A02B14042034413F108
:1030E000250FBEBFDFED507A253368EEA78A13F1B6
:1030F000090F53D35B42B2EE040A00EE903AF8EEA9
:10310000E00A3DF0F7FB88EE808AAFE7F4EEC78A6D
:10311000F1EE10FA0BD507EE90BA0129F8EEE77A36
:10312000E8EEA67AF0EE678A31D1013BD1E729B902
:103130000133CEE721B9BEF12E0F03D10121C8E73B
:10314000022917D04EF0200BBBF1650F12D1A64219
:1031500058D99CF801102B2905D10CF10204B44276
:1031600095D00221B5E72D2913D101220CF10204DB
:103170000092F4E7B9F1000F04D04EF0200BBBF140
:103180006A0F09D0BEF15F0FA3D06446A3E7002108
:103190009FE70221A4468CE74F469CE707EE903A52
:1031A000B2EE040AF8EEE70A3DF0A4FB28EE808AAE
:1031B0005CE77FF46CAF57B1F0EE480A9FED130A5D
:1031C00003B0BDEC028BBDE8F04F2BF027BB019B99
:1031D00023B1B0EE480ADFED0D0AF1E7B0EE480A80
:1031E00003B0BDEC028BBDE8F04F2CF04BBCBAF144
:1031F000000F3FF44CAF2C469FED048A39E74FF0A7
:10320000000ADAE63FF443AF65E700BF00000000C4
:103210000000807F0000C07F314407086055070828
:10322000EC78AD6064666606EA1C08020846114642
:1032300041F0C2BB37B505460846019140F04EFB50
:10324000044620B102466B680199286898472046D9
:1032500003B030BD2DE9F74F89469DF83010174671
:103260000D9A11F0DF0F0646A2EB07023DD0302980
:103270000CA8254913BF80464FF0100A88464FF02E
:10328000010A13F0800535D002EBD2746510A2EB71
:103290006404002D35DDAB46DA455246736841467D
:1032A000A8BF5A46306801929847019AABEB020BCF
:1032B000BBF1000FF0DC2FB13D4473683A4649463C
:1032C00030689847002C0CDD2544A24557467368AA
:1032D0004146A8BF27463068E41B3A469847002C71
:1032E000F3DC284603B0BDE8F08FDFF820804FF014
:1032F000100AC6E713F0010401D11546C9E71446C8
:10330000D9E70025D7E700BF313407082034070884
:103310002DE9F043064689B00020119D9DF84880B4
:10332000139F8DF80F000AB381421ADA2D22494209
:103330008DF80F20109A08AC0DF11009A2F10A00C7
:103340008E46B1FBF3FC03FB1C126146092A8CBFBD
:103350001218303204F8012D4C450ED07345EFD9C8
:103360000BE0A80727D52B228DF80F200029E1D1EB
:1033700030230DF11F048DF81F3015F040099DF822
:103380000F301CD023B301222B460DF10F01304624
:10339000013FCDE90082FFF75DFF814608AA2B4679
:1033A00021463046121BCDE90087FFF753FF484402
:1033B00009B0BDE8F0836A07D8D52022D4E7002BF6
:1033C000ECD004AA9442E9D904F8013C013CE5E7B9
:1033D0009946E3E72DE9F04F93B081461E46C807B2
:1033E0009DF874300C4692461C9D0793DDE91E87BC
:1033F0000BD4A10703D121687F4B994205D0204609
:103400002AF0D0F9400040F0010415F0810306D104
:10341000079A302A03D1B845B8BFB8461F462046A0
:103420000DF1280B2DF0F2FA002818DBAA0712D5AF
:103430002B238DF828300DF12903E806F6B21CD5B0
:10344000BAF1020F0DD13020194601F8020B701CA1
:1034500058700B4611E06B0701D52023E9E75B4666
:10346000EBE7BAF1080F62D130211970A90549BF05
:1034700006F10E01013359700233002115F0200FBF
:103480000EA81970A3EB0B030B904FF010000693DE
:103490000CBF0B462C23012F8DF82710C8BF45F019
:1034A000400515F04002CDE90C010592CDE902631B
:1034B00047D023460DAA0BA8CDE900A10CA92DF0F9
:1034C00081F9037882462D2B06D18DF8273000F143
:1034D000010A0D9B013B0D93012F40F385800D9C4C
:1034E000059BBC42B8BF3C462BB19DF8273003B1C9
:1034F0000134069B1C44A0452EDD15F00103A8EB0A
:1035000004042AD126461C4625F001054EB120238D
:1035100001963A494846009300231A46FFF79AFE5F
:103520000646059B002B5CD1302307933AE0BAF1A5
:10353000100FA2D13020194601F8020B06F1170036
:1035400086E70AAB0DAA0CA90BA8CDE900A3234678
:103550002DF038F98246BFE700240026D4E7002486
:1035600026469DF827305BB1002301220DF127018B
:10357000484608F1FF38CDE90032FFF76BFE0644FC
:10358000069B63B10023012259464846CDE900322B
:10359000069AFFF75FFE069B0644A8EB0308012F7F
:1035A000D8BF4746079B51460D9A484600932B4685
:1035B0000197FFF74FFE06444CB120230F494846C0
:1035C0000194009300231A46FFF744FE06440B982B
:1035D0000EAB984201D01CF087FD304613B0BDE819
:1035E000F08F30230793BCE7059B002BB7D11C4617
:1035F0001E464746D6E700BFC85A0708788F080816
:103600002DE9F043164698468BB00746B2070A46A6
:1036100002A84FF0200154BFC6F380032B23DDF82E
:10362000489058BF5B010093139BFFF7F3F9F30534
:10363000044610D5431C1F2B0DD800F12802002191
:103640000DEB0204252204F8202C03F128021C466D
:103650006A4402F8201C16F040051DD09DF8083081
:103660002F2B4FF0000319D8012202A9384609F187
:10367000FF39013CCDE90032FFF7ECFD0DF1090106
:103680000546334622463846CDE90089FFF7E2FD7C
:1036900028440BB0BDE8F08302A9F2E702A91D4659
:1036A000EFE700002DE9F04F824689B0144600266E
:1036B0000B461D4613F8012BC2B9A94219D30B784A
:1036C000002B00F04681013120234FF000080A460C
:1036D00012F8015B3DB12B2D21D014D8202D21D023
:1036E000212D22D000254FF00A0C25E0252AE0D11B
:1036F000E3E76F1ADAF80430DAF800003A463E449D
:1037000098472946DBE72D2D05D0302DEAD148F02A
:1037100040082B4601E048F001081146D7E748F081
:103720000208FAE748F00408F7E748F00808F4E769
:103730000CFB0522A2F130050F4611F8012BA2F176
:1037400030000928F4D92E2A40D17A782A2A0FD0BD
:1037500000224FF00A0E0F4611F8010BA0F1300CB9
:10376000BCF1090F07D80EFB020BABF13002F2E7F8
:10377000023754F8042B22EAE27B3A786C2A08BF1D
:10378000013797F80090B9F1000F00F0E280B9F12D
:10379000780F6AD8B9F1570F1BD8B9F1470F61D824
:1037A000B9F1440F61D90734049324F00704F4E815
:1037B00002016AF0F3FA049B00EE100A4246494601
:1037C0005046CDE9005BFFF71BFF62E04FF0FF3B87
:1037D000D3E7A9F15802202A47D801A151F822F0D5
:1037E000213900086B3800086B3800086B38000876
:1037F0006B3800086B3800086B3800086B3800081D
:103800006B3800086B3800087D3800089F380008C6
:1038100005390008A7370008A7370008A7370008B0
:103820006B3800086B3800086B3800086B380008EC
:103830006B3800086B3800086B3800086B380008DC
:1038400043390008B33800086B380008DD38000839
:103850006B380008213900086B3800086B38000805
:1038600021390008B9F1500F6BD0DAF80430012289
:103870003946DAF80000013698470BE054F8042B7B
:10388000CDE9003543463AB1042234495046FFF7AA
:10389000E1FC0644791C0BE705223149F6E754F8B0
:1038A000042B07A98DF81C200122CDE900354346E1
:1038B000ECE707A954F8040B04931DF0A8FABBF138
:1038C000FF3F0146049B04D0079A934538BFCDF8CB
:1038D0001CB0079ACDE900354346D7E754F8041BDE
:1038E0000593084604913FF0F9FFBBF1FF3F024604
:1038F000DDE9041302D0584528BF5A46CDE900350A
:103900004346C3E7CDE9023561230122CDF80480A7
:1039100000930A2354F8041B5046FFF7F9FCB8E75C
:1039200009F1010129F00F02CDF8048001F0060130
:103930000F3ACDE90235D2B2C1F110030092002254
:10394000E8E7CDE902356123CDF804800093102328
:10395000F5E7304609B0BDE8F08F00BF0C3407082A
:10396000113407080EB403B503AA52F8041B0192E0
:10397000FFF798FE02B05DF804EB03B0704700005B
:020000040802F0
:10000000024B5A690260586100207047004001208D
:10001000024B5A6912685A61704700BF00400120C4
:10002000C460056146618761C0F81C80C0F82090FB
:10003000C0F824A0C0F828B0C0F82CD080ED0C8BFC
:1000400080ED0E9B80ED10ABC0F808E0FFF7D8BF45
:10005000104908B54B690BB92DF086F91A6858603C
:100060004A611846C468056946698769D0F81C80EA
:10007000D0F82090D0F824A0D0F828B0D0F82CD018
:1000800090ED0C8B90ED0E9B90ED10ABD0F808E04E
:10009000012070470040012010B50021044600F007
:1000A000EFFA18B914B120460CF016FB10BD002170
:1000B00000F0E6BA10B50121044600F0E1FA18B9E3
:1000C00014B120460CF008FB10BDFFF7E5BF10B5DA
:1000D00001220C4600F0E2FB18B914B120460CF0E6
:1000E000FBFA10BD00F0DABB00F09ABB484308B53C
:1000F0000830FFF7DCFF40B1044A536A03B11860CF
:100100000021C0E900135062083008BD0040012002
:10011000034678B153F8042C083812B153F8081C80
:10012000116053F8083C13B15A6000F079BB024BE0
:100130005A62FAE7704700BF004001202DE9F04302
:100140004FF0030C00252A4CD4F8B0620021013195
:1001500043189A0803F00303B25C5B0042FA03F30E
:1001600003F00303022BF2D0D4F8BC32090103EBF5
:1001700000108B0811B300EB830103681A071AD132
:10018000D4F8BC229A4216D89A1AD4F8C062C2F3A4
:10019000011E9E424FEA92174FEA4E0E4FEA12128C
:1001A00009D9D4F8B08218F8076046FA0EF303F0C4
:1001B0000303012B09D004308842DED1B5B1013DE3
:1001C00005F5B27334F81300BEE70CFA0EFE3F2DAE
:1001D00005F5B27946EA0E0608F8076003D801353E
:1001E00024F81920E7E7C4F8C432E4E7BDE8F08357
:1001F0000040012030B51C4C0122D4E9AE53C01A96
:10020000C109C0F302134FEA101C9A406B5C4FEA1D
:100210009C0E23EA02036B548309D4F8542303256C
:10022000B2EB901FD4F8B0020CF0030288BFC4F800
:100230005433C15C52000CF1010C05FA02F30CF0CE
:10024000030221EA0301530000F80E104FEA9C0E4E
:10025000D4F8B00210F80E1041FA03F303F00303D0
:10026000022BE7D030BD00BF0040012021F00F017C
:10027000154A38B50C1A154D0346E400C5F8C012EE
:10028000C5F8B002A2FB0424640AA1EB8411234444
:100290002246C5F8BC120021C5E9AD4323F0E4FABB
:1002A0000021A200D5F8B8020732D20823F0DCFA08
:1002B000002301214FF0FF32C5F854332B81A5F8FC
:1002C0004813C5E9D33238BDF32C23FA004001208E
:1002D000024A138901331381704700BF0040012097
:1002E000024A1389013B1381704700BF004001207F
:1002F000024B1889003818BF0120704700400120C8
:10030000F8B51C4D002203272B8905F1080405F5DB
:100310000176C5F84C230133C5F8C4222B8154F86B
:10032000043F1A071AD1D5F8BC02834216D3181A13
:10033000D5F8C012C0F301128B424FEA901C4FEA6D
:1003400042024FEA101009D2D5F8B0E21EF80C10A4
:1003500041FA02F303F00303012B02D0A642DED1DF
:10036000F8BD07FA02F211430EF80C10FFF7E6FE93
:10037000F4E700BF0040012091B32DE9F0410E46A3
:10038000051F0024174F4FF0030855F8043F0134B0
:100390001A0719D1D7F8BC229A4215D8D7F8C0123B
:1003A0009A1A99424FEA921C4FEA1210C2F30112B4
:1003B0000AD9D7F8B0E252001EF80C1041FA02F345
:1003C00003F00303012B03D0A642DED1BDE8F08188
:1003D00008FA02F211430EF80C10FFF7AFFEF3E734
:1003E000704700BF004001202DE9F04F574E85B007
:1003F000D6F8B432D6F8C4229800C2B10025C6F8A7
:10040000C452002843D00024A30804F00302D6F805
:10041000B0125200CB5C134103F00303032B3FD017
:1004200001348442F0D3D6F8C432002BE7D170B344
:100430004FF0000C03274FF001094FF0020865460A
:1004400004E0012B4AD00135854220D2D6F8B0E233
:100450004FEA950A05F003041EF80A200EEB9501F9
:10046000640042FA04F303F00303022B28D0032BA9
:10047000E7D108FA04F401354FF0000C22EA040237
:100480000EF80A20D6F8B43298008542DED33389BC
:100490000022013BC6F85423338105B0BDE8F08F3C
:1004A00020460134FFF74AFED6F8B432B4EB830F8E
:1004B0004FEA8300A8D3D6F8C432002B9FD1B6E709
:1004C000BCF1000FBFD007FA04F44FF0010C22EA90
:1004D00004040C70D6F8B4329800B4E7EB08D6F8F0
:1004E000B80205F0070B10F803E000EBD50C019300
:1004F0004EFA0BF0C307E6D5D6F8BC0229014158E5
:1005000000EB0510A9B102AAB1210BF0AFFADDE9A9
:10051000013242B10CF04AFBDDE902010CF016FB9E
:100520000CF05AFB019BD6F8B82202EB030C12F830
:1005300003E009FA0BFB2EEA0B0E8CF800E0D6F86C
:10054000B03203EB0A0113F80A20BCE70040012097
:10055000044B00211A89C3F8C41201321A81FFF733
:1005600043BF00BF00400120444A00232DE9F04F63
:10057000D2E9AF41D2E9AC62091B83B04FEA820EE7
:1005800083619C4698461C461D461A469B4601932D
:10059000C0E90013C0E90233C0E90433194696F8F4
:1005A00000A04FEA4B034AFA03F303F00303012BC5
:1005B0003AD0022B51D0002B48D0013296450CBFC7
:1005C0004FF001094FF000090FD0930802F0030B20
:1005D00016F803A04FEA4B034AFA03F39F0702D52C
:1005E000B9F1000FDDD003F00303012939D002294E
:1005F00004D1476907F1010AC0F814A0414501D9A7
:1006000088468161012B13D0B9F1000F10D19308F6
:1006100002F0030B16F803A04FEA4B034AFA03F368
:1006200003F00303012BC4D1013419464460C4E72D
:10063000654501D9AC46C560964518D1019B24019A
:100640001F01C0E9014703B0BDE8F08F01990135F2
:100650000131019181601946AFE7013401314460F5
:10066000ABE7076907F1010AC0F810A0C6E79308D5
:10067000002502F0030B16F803A092E700400120CA
:100680000F302DE9F84306094FD0644C2389002B25
:100690004BD1B4F848330D46002B0CBF4FF0010E80
:1006A0004FF0000E45D1D4F85403D4F8B472874209
:1006B00038D9D4F8B0C2411E002261441AE0013298
:1006C000964250D913F00C0F1ED10132964240F2DF
:1006D0009C8013F0300F1CD10132964240F298807A
:1006E00013F0C00F1AD10132964240F294800130CB
:1006F000B84217D211F8013F13F0030FDFD013F007
:100700000C0F4FF00002E0D013F0300F4FF000025A
:10071000E2D013F0C00F4FF00002E4D0013000220D
:10072000B842E7D3BEF1000F12D000231846BDE84F
:10073000F883D4E9D3239A42B5D334F02BF8D4F814
:100740005403D4F8B472B842EFD24FF0010EB0E7C0
:1007500034F020F8D4F85403D4F8B4724FF0010EFA
:100760008742A6D8E1E78000811A012A01F101073A
:1007700003D1431C9B08C4F8543307F003084FEA25
:10078000970E012302314FEA4808884203FA08F322
:100790001CF80E8043EA08030CF80E3013D34FF018
:1007A000020801F003034FEA910CD4F8B0E20131E2
:1007B0005B001EF80C90884208FA03F343EA090331
:1007C0000EF80C30EDD2D4F84C331201D4F8BC82C0
:1007D000002133443E01C4F84C3308EB071318469C
:1007E00023F042F8EA070346A0D50022D4F8B80265
:1007F000F90807F0070748F806200122445CBA40D0
:10080000224342541846BDE8F88380000130ABE72C
:1008100080000230A8E780000330A5E700400120F7
:10082000034B1A8912B908B1FFF7E4BC704700BF47
:100830000040012010F00F021BD11749D1F8BC3243
:10084000834217D810B4D1F8C04284420DD9C31ADC
:10085000D1F8B042C3F3011099091B09615C400053
:10086000014101F00301012906D010465DF8044B57
:10087000704700221046704701329918880801F02D
:100880000301205C490040FA01F101F00301022953
:10089000F2D01201E9E700BF004001202DE9F84F36
:1008A00088460646002800F0A580574D2B89002970
:1008B00077D0002B4DD1D5F8BC1208F10F0C411A9E
:1008C000D5F8B4024FEA1C1C4FEA111E4FEA800A09
:1008D0000EF10107B7EB800F80F09280D5F8B002DF
:1008E0004FF00109BC0807F0030B045D4FEA4B0B06
:1008F00044FA0BF404F00304022C2ED024B9013383
:1009000003EB090464452AD3CC451ED02BD34B44BA
:1009100063454ED2C909D5F8B832595CCAB10EF058
:10092000070E404641FA0EF101F00101FFF7A8FE63
:10093000044670B14FEA0912314622F051FF2B896B
:1009400023B93046FFF756FC00E034462046BDE8A8
:10095000F88F00242046BDE8F88F09F1010901371E
:10096000BA45BFD1D0E7F4440327CE44624602F033
:1009700003039008D5F8B04201325B00215C724558
:1009800007FA03F321EA03032354F0D1D5F85433D3
:100990004FEA9C02B3EB9C0FD7D93446C5F85423D9
:1009A000D4E7002BD5D11C46FFF724FC2046BDE838
:1009B000F88F0EEB0902E64496450FD9022702F0A4
:1009C00003039108D5F8B00201325B00445C964500
:1009D00007FA03F343EA04034354F0D1ACEB0902F2
:1009E0003446002106EB0910120122F03DFF20469B
:1009F000BDE8F88F01464046BDE8F84FFFF740BE1E
:100A00004FF0010980E700BF0040012010B58AB017
:100A10000B4C03A8FFF7A8FD039A0A49DDE904304F
:100A200000902046E2F79EFF2046069C079ADDE9EB
:100A30000831CDE900140449E2F794FF0AB010BD73
:100A400018340708ECE0060810E106082DE9F84321
:100A5000DFF86C914A494B48D9F8BC22E2F782FF93
:100A6000D9F8B412890079D00024DFF85881464FB4
:100A7000444E0EE0012B4AD02E2244493046E2F784
:100A800071FF0134D9F8B432B4EB830F4FEA83011C
:100A900064D204F00305A206D9F8B0024FEA450576
:100AA0000CD0A308D9F8B022D35C2B4103F0030388
:100AB000022B2AD0032BDDD16D22DEE7A4464FEABC
:100AC0009C020CF00303825C5B0042FA03F39B0779
:100AD00003D10CF1010C8C45F1D3ACEB04027F2A5D
:100AE0000CD992092A4930462CF03F04E2F73AFF2C
:100AF000D9F8B432B4EB830F30D2002508EA0412DF
:100B000039463046E2F72EFFCBE73D22B5E7D9F86C
:100B1000BC2223011F49D2588A421DD01E4B9A4243
:100B200022D01E4B9A4223D01D4B9A421ED01D4B01
:100B30009A421BD01C4B9A421CD01C4B9A4219D093
:100B40001B4B9A421AD01B4B9A4215D01A4B9A4211
:100B50000CBF4D22682290E754228EE717490948BE
:100B6000BDE8F843E2F766BB4C2286E7532284E7F0
:100B7000442282E7412280E742227EE746227CE748
:100B800058E106081834070894E106089CE10608B5
:100B900078E10608E86A07082C5C0708384E070861
:100BA0006C680708086607083C4A0708C449070834
:100BB0007856070808570708085E070874E1060812
:100BC00000400120F0FF0F00054B02681B6A5968C6
:100BD0008A4203D3521A0260184670471B68F6E730
:100BE00000400120014441F20553884204D398B2E9
:100BF000012838BF0120704703EB431310F8012B85
:100C00005340F2E7034B044A1A620022C3F8082259
:100C1000704700BF00400120B8E307082DE9F04706
:100C200080460E46FFF7DEFF124B07461C6A0CB9E2
:100C300020461AE0D4F80C90002504F1180A4D451E
:100C400001D12468F3E7236933F81530BB420ED194
:100C500063695B5DB3420AD1324641465AF82500CA
:100C600022F02AFE18B960682844BDE8F0870135F3
:100C7000E5E700BF004001202DE9F84381460E461C
:100C8000FFF7CCFF0246002840F08B80FF2E03D9EF
:100C9000454946480AF064FF454C751CD4F80802E3
:100CA00090B1D4E983132B448B4229D92944FFF70F
:100CB00019FA0746D8B90246D4F81012D4F8080237
:100CC000FFF710FAC4F80872802D2F4638BF80272E
:100CD0003846FFF7ECF9C4F80802D0BB2846FFF706
:100CE000E6F9C4F8080298BB28460BF0F5FCD4F8E6
:100CF0000C322B44C4F80C32D4F80832002BE3D069
:100D0000D4F810323146D4F8087248461F442B44B8
:100D1000C4F81032FFF766FF49464FF000098046DD
:100D20003246384622F05CFD07F80690236AD3E984
:100D30000253AB4225D36D000A2D38BF0A25C5EBFF
:100D4000C5001830FFF7B3F948B9C4F80802CBE77B
:100D50002F460023C4F80C72C4F81032D0E700F11B
:100D60001803226A03EB85030260036103EB45036A
:100D700043615368D268C0F80C901344C0E9013550
:100D80002062236AD3E903215B6921F81280911D57
:100D90009E54236A43F82170D9680131D9605B6899
:100DA0001A441046BDE8F8839FE10608BC530708C3
:100DB0000040012010B5044622F090FD0146204677
:100DC000BDE81040FFF758BF07B5019001A8FFF735
:100DD000FBFE019A036933F8120003B05DF804FBCF
:100DE00007B5019001A8FFF7EFFE019B4269D05CB7
:100DF00003B05DF804FB07B5019001A8FFF7E4FE1E
:100E0000019B063350F8230003B05DF804FB13B5D3
:100E1000019001A80C46FFF7D7FE019B4269D25C06
:100E2000063350F82300226002B010BD2DE9F843CC
:100E30001D46002307468846036016460B60136074
:100E40002B60154BDFF854901C6A0CB14C4505D152
:100E50002B68326813442B60BDE8F8833B6801338C
:100E60003B60E268D8F8003013446269C8F800308B
:100E7000E368D1188A4207D32046FFF7DBFC2B68D2
:100E8000246818442860E0E7336812F8010B013346
:100E900003443360EEE700BF00400120B8E30708D9
:100EA0002DE9F8430D4B0E4F1C6ADFF83880DFF850
:100EB00038900CB1BC4201D1BDE8F88304F11805AB
:100EC000E36805EB8306B54201D32468F1E755F8E2
:100ED000042B41464846E2F745FDF4E70040012077
:100EE000B8E30708A4E106081834070830B5002362
:100EF000202411F8012F0AB9027030BD120600F14A
:100F000001051ED50BB1047028460B78114A03F079
:100F10007F0363B9013A12F8013F0546013013F02F
:100F2000800F0BD003F07F032B700123E1E712F950
:100F3000015B002DFBDA013BDBB2EAE700F8013C84
:100F4000E9E7012B04BF047028460B7800F8013B49
:100F50000223CEE7ABE1060838B5436805461944DD
:100F60000368994211D9037BDB0703D500210748A9
:100F70000AF0F6FD01F11004806824F0070408343B
:100F80002146FFF7A4F82C60A86038BDBC530708C1
:100F900070B504460E4611461546FFF7DDFF314693
:100FA0002A46D4E90130184422F04AFC63682B44F5
:100FB000636070BD70B546680446B14228BF3146D3
:100FC0000D460121FFF7C8FFA368681C721B591961
:100FD000184422F035FC6368A0680133284463603C
:100FE00070BD012938B538BF0121044600250846E7
:100FF00021606560FFF750F8237BA06065F3000374
:10100000237338BD38B505460C460131FFF7E9FFBB
:101010006C6038BD00230160C0E90132037B43F0FE
:10102000010303737047000038B514460546FFF707
:10103000D8FF024B2560636038BD00BF910F0208E6
:10104000037BDB0710B5044602D48068FFF74CF839
:101050000023A36010BD13B501901020FFF71CF80A
:1010600004460199FFF7BDFF204602B010BD10B540
:10107000044650B1037BDB0702D48068FFF734F8E5
:101080002046BDE81040FFF72FB810BD38B5037BF0
:1010900004460D46DB0703D5002107480AF060FD32
:1010A000016880682944FFF712F82368A0601D4496
:1010B0001844256038BD00BFBC53070838B5044646
:1010C0000D46FFF749FFD4E901301D44184465601F
:1010D00038BDD0E9002310B59A42044602D101215F
:1010E000FFF7D4FF0021D4E90132D154A06810BD2C
:1010F00010B50C460121FFF7E1FF047010BD7F29F8
:10110000F8B50C46CEB204D80121FFF7D7FF067020
:10111000F8BD06F03F06B1F5006FC1F3871546F044
:10112000800607D265F03F050221FFF7C7FF467032
:101130000570EDE705F03F05B1F5803FC1F30737D6
:1011400045F0800508D267F01F070321FFF7B6FFBF
:10115000457007708670DBE7A40C07F03F07042199
:1011600064F00F0467F07F07FFF7A8FF8570047035
:101170004770C670CCE713B504460846019122F0CB
:10118000ADFB01990246204602B0BDE81040FFF7D2
:10119000FFBE10B51446FFF70DFF047010BD10B56B
:1011A0001446FFF707FF047010BD43688B422CBF45
:1011B000591A00214160704738B504461546084663
:1011C00062688A4203D929448A4201D8606038BDE6
:1011D000A368521A1844194422F032FB63685B1B5F
:1011E0006360F4E790F900200378002A0ADA03F03C
:1011F0007F034022134207D110F8012F02F0C001F3
:10120000802905D01846704723EA02035208F1E707
:1012100002F03F0242EA8313EEE7431C1846013313
:10122000027802F0C002802AF8D070470023814281
:1012300001D81846704711F8012D02F0C002802A2B
:1012400018BF0133F3E701440346002099421A46D0
:1012500000D870471278013302F0C002802A18BF0C
:101260000130F3E77F289DBF024B185CC0F34000BC
:1012700000207047423407087F289DBF024B185C4E
:10128000C0F3C00000207047423407087F289DBF8C
:10129000024B185CC0F380000020704742340708FE
:1012A0007F289DBF024B185CC0F380100020704760
:1012B000423407087F2809D8064B1B5C13F00C0F3B
:1012C00006D1A0F15F035842584170470020704793
:1012D00001207047423407087F289DBF024B185CED
:1012E000C0F3001000207047423407087F289DBFDC
:1012F000024B185CC0F340100020704742340708CE
:1013000008B50246FFF7E8FF00B12032104608BDDD
:1013100008B50246FFF7EAFF00B1203A104608BDC3
:101320003038092884BF20F0200007387047014476
:101330000246002010B5E524914203D8B0FA80F0AF
:10134000400917E012F8013B30B103F0C003802BD5
:1013500011D1431ED8B2EFE7BF2B09D9F72B09D81B
:10136000DB0803F0060344FA03F303F00300E3E7AA
:101370001B06E1D510BD0020FCE7023981420B4677
:1013800003D31A880239002AF8D00233181A401001
:101390007047B2EB131F70B54FEA131416D9121B26
:1013A00003F00F0301EB440115460E46012D31F801
:1013B000024B18BF3468013D24FA03F4A4B220F8AC
:1013C000024BF2D104B9013A104670BD0022FBE78E
:1013D000F0B5059F0024D21B2646A74210D100EB92
:1013E0004705002301EB47019A4214D105EB420364
:1013F0001EB10121023325F81210181A4010F0BD59
:1014000031F8145033F814C06544354420F81450B2
:101410002E0C0134E1E731F81340344425F8134031
:10142000260C0133E0E7F0B4049F0025D21B2C46C4
:10143000AF420BD100EB4706002301EB47059A4270
:101440000FD106EB4201F0BCFFF797BF31F81560F2
:10145000344433F81560A41B20F8154024140135DA
:10146000E6E735F813100C4426F813402414013332
:10147000E5E72DE9F043079C0239DDF828E0154641
:1014800084464FF6FF78A4EB0209DDE9087655B9EA
:1014900000EB42011FB10123023120F81230BDE8F8
:1014A000F043FFF76ABF31F8024F013D4444264440
:1014B00005EB0904AC4296BF33F8024B4FF6FF74BC
:1014C0004444744486EA040E360C17FA8EF74FEA49
:1014D000144E2CF8027B3F0CD9E7022938B538BFEF
:1014E0000221044680680D4618B12368B1EB930FC2
:1014F00007D96900FEF7EBFD2368A06065F39F0341
:10150000236038BD38B504460C20FEF7C5FD0546FE
:1015100023682278C3F39D0023F0030302F0010245
:10152000400013432B6063686B60FEF7B5FDA86055
:101530002268A168C2F39D02520022F051F92846A8
:1015400038BD994210B511D313D800EB410002EB1E
:10155000410209B9084610BD30F8023D32F8024D8B
:101560001B1B002B02DB04D10139F2E74FF0FF30E7
:10157000F1E70120EFE710B5044638B18068FEF7C7
:10158000B3FD2046BDE81040FEF7AEBD10BD70B5FE
:101590000C4602210546FFF7A0FF002C2B78B5BFB3
:1015A000012200226142214662F30003AA682B70E7
:1015B000012388B21446090C1E4622F8020B03F1DF
:1015C0000103F6D16E60208070BD0023C0E90033B6
:1015D0008360704728B103789B0702D48068FEF7C8
:1015E00083BD704738B505460C464968FFF775FF5F
:1015F00022782B78A86862F300032B706368A168D7
:101600006B606268BDE83840520022F0E9B80A46D3
:1016100029B90178426062F3000101707047FFF759
:10162000B6BF08B5FFF7D1FFBDE80840FFF7EFBF31
:10163000920042F002020260002210B4C0E90121CF
:101640005DF8044B1946FFF7E2BFF8B514461D4696
:101650009DF8187004210646FFF73FFF22462B46EF
:1016600027B1002D0CDA624265EB4503317867F350
:10167000000131700021716052EA030102D1F8BD0E
:101680000027F3E7D6E901104C1C746020F8112004
:10169000120C42EA03421B0CEEE72DE9F3418DEDFB
:1016A000010A0746019C0378E20F62F3000303700E
:1016B000C4F30F4313F4FF4308D13B786FF30003E7
:1016C0003B7000237B6002B0BDE8F081B3F5FF4FB3
:1016D000F3D0C4F3C753A3F17F05002DEDDB05D193
:1016E000012102B0BDE8F041FFF751BFA3F16F083F
:1016F000C4F31604162D4FEA281844F4000421DC24
:10170000C5F11705EC4000252E4641463846FFF747
:10171000E4FEC7F8048026B172000021B86822F008
:10172000A3F845B104FA05F2C5F11005BB68EC4019
:1017300023F816200136B045C5D0BB6823F8164003
:10174000240CF7E7B3F1960605F1090548BFA3F1AC
:10175000870605F00F053611D7E72DE9F8438F18F6
:10176000C2F35B0204460D46511C9846089EFFF7E3
:10177000B4FE2378AC4600221FFA86FE68F300030D
:101780002370BC456046626002D3401BBDE8F8830D
:1017900001780CF1010CA1F13003092B05D9A1F15D
:1017A0004103192B12D8A1F13703B342EDD2A0683F
:1017B00090468146B8F1000F0FD100EB420113B102
:1017C000023120F81230091A4A10DAE7A1F1610358
:1017D000192BDAD8A1F15703E7E7B9F8001008F19F
:1017E000FF3801FB0E3329F8023B1B0CE2E7F8B58A
:1017F000044615461E46C1B1531E4FF0FF371E4426
:10180000E90020460F310909FFF767FE2378002120
:101810006FF30003616023704DB9D4E9011000EB50
:101820004101FFF7AAFD6060F8BD0127E8E700234A
:101830000F290ADC3278013D3E4402FA01F201F13F
:10184000080143EA02039BB2F2D162681039501CCE
:101850006060A06820F81230DEE738B505780446ED
:101860000B7805F0010203F00103981A08D1D1E9C1
:101870000132D4E90110FFF764FEEB0748BF404294
:1018800038BD884210B5044601D0FFF7ABFE23787F
:101890006FF30003237010BD884210B5044601D0D9
:1018A000FFF7A0FE63683BB12378C3F30002C2F1E7
:1018B000010262F30003237010BD88421FB5044685
:1018C00001D0FFF78FFE626862B901212046FFF761
:1018D00004FE0123A26813806360237843F00103B0
:1018E000237010E02378D9070FD56FF30003A168A8
:1018F000237001230846ADF80E3000930DF10E035E
:10190000FFF791FD606004B010BD511C2046FFF749
:10191000E4FD0123A168ADF80E30009308460DF1F7
:101920000E036268FFF754FD6060D6E72DE9F843C7
:101930004B6805460E46144603B12AB9314628467F
:10194000BDE8F843FFF74EBE02F10F014FEA111850
:1019500003EB1111FFF7C1FDA96814F00F044FF05C
:10196000000ED6E9013208BF102408EB030702EB92
:101970004302C4F1100407F1004C0CF1FF3C01EBF1
:101980004C0C1946E14601BB6FF00102C8F1010899
:101990002EFA04FE53434FEA48020CEB0300524276
:1019A0002CF803E000EB48084046A8F1020821F0BB
:1019B0005BFF17B138F817309BB12B786F60327826
:1019C00062F300032B70BDE8F88332F8020D013991
:1019D00040EA0E0020FA04FE29F802E94FEA004E20
:1019E000D1E7013FE5E72DE9FF410D46496806468D
:1019F000144601B132B92946304604B0BDE8F04181
:101A0000FFF7F0BDFFF769FDB768D5F808802346FA
:101A10006A6838464146FFF7BCFC3378706002467E
:101A2000297861F300033370DB072AD500232009EE
:101A30006968ADF80E30994201D083420ED18142DF
:101A40001FD904F00F04012338F8101003FA04F42E
:101A5000013C214211D0ADF80E3007E038F81350A8
:101A60004DB101238142ADF80E30EAD801235AB9B5
:101A70003B80736005E00133DDE7BDF80E30002BDD
:101A8000F4D104B0BDE8F081009339460DF10E03A6
:101A90003846FFF79DFC7060F3E773B50C461546BA
:101AA0000646D2E90132D1E90110FFF74AFD0028CC
:101AB000BEBF23462C461D46237861682A785340D2
:101AC000DB071AD401313046FFF707FD6B68B068B9
:101AD0000093AB68D4E90121FFF77AFC70602378AA
:101AE0003278C3F3000300280CBF002303F0010386
:101AF00063F30002327002B070BD3046FFF7EDFCB8
:101B00006B68B0680093AB68D4E90121FFF78BFCE8
:101B1000E4E7F7B50C4617460546D2E90132D1E9AC
:101B20000110FFF70EFD0028BDBF23463C460126ED
:101B30000026B8BF1F46237861683A785340DB0718
:101B400019D501312846FFF7C8FC7B68A8680093C7
:101B5000BB68D4E90121FFF73BFC6860B8B123788A
:101B600003F001030EB183F001032A7863F300024E
:101B70002A7003B0F0BD2846FFF7AFFC7B68A86869
:101B80000093BB68D4E90121FFF74DFCE5E703466C
:101B9000EBE72DE9F04F14464A680D4685B06368BF
:101BA00006469A423EBF0B4625461C462B7869687E
:101BB000DB0722D4237813F001071ED1FFF78DFC39
:101BC000B068AD683B46D4E9011C99420CD100EBEA
:101BD0004101FFF7D2FB00237060327863F300020B
:101BE000327005B0BDE8F08F35F813203CF8134093
:101BF000224020F813200133E7E701313046FFF798
:101C00006CFC2F78237807F00108D5F804C087EA28
:101C1000030147F30007B06803F00109C94343F328
:101C20000003A268834601F0010E41F300019BB25C
:101C300089B200930291B9B267460191A968A1F1F6
:101C4000020A6168A1EB0C0103918FB900EB4C0112
:101C5000BEF1000F03D00123023120F81C30FFF742
:101C60008CFB706022782B78C2F300021340B4E73B
:101C70003AF8021F013F019B5940039B8844D91940
:101C8000B9429BBF32F8021B009B00995940029B4E
:101C9000894408EA09014FEA19494FEA18485940AE
:101CA0001EFA81F14FEA114E2BF8021BCDE72DE908
:101CB000F84F15464A680C4606466B689A423EBF86
:101CC0000B462C461D4623786168DB0732D42A7800
:101CD00012F001072ED1FFF700FCA16864683A46B4
:101CE000D6F808C0D5E9013EE41A934213D101EBBE
:101CF000430100220CEB4303944215D103EB440350
:101D00000022A3EB0C0358103378706062F30003D9
:101D10003370BDE8F88F31F812003EF812502843B6
:101D20002CF812000132E0E731F8120023F812001B
:101D30000132E1E701313046FFF7CFFB22782B7803
:101D40004FF0010A616802F00108B06803F0010970
:101D500042F3000243F30003A468834692B29BB2AD
:101D6000A4F1020CD5E901E70D46AEEB010E2DB949
:101D700000EB4101FFF701FB0122C5E73CF8024FF0
:101D8000013D5440A0440EEB0504AC4296BF37F829
:101D9000024B1C465C40A14448EA09044FEA194939
:101DA0004FEA1848E4431AFA84F44FEA144A2BF82D
:101DB000024BDCE7F0B515464A680C4685B06B6807
:101DC00006469A423EBF0B462C461D462778616860
:101DD0002B785F4017F001073BD1FFF77EFB23789C
:101DE00013F0010329D16168B068A768D5E9012C17
:101DF000891A9A4212D107EB4207002300EB4202F4
:101E0000994214D102EB4101FFF7B7FA0027706045
:101E1000337867F30003337005B0F0BD37F8134033
:101E20003CF813506C4020F813400133E1E737F8D9
:101E3000134022F813400133E2E7CDE9027701971E
:101E40006B68B0680093AB68D4E90121FFF711FB20
:101E5000DCE701310127FFF740FB2B78B068DB435B
:101E600003F00103039323780197DB4303F001039D
:101E700002936B680093AB68D4E90121FFF7F9FA8C
:101E80007060C5E74B682DE9F04F044685B00E46FB
:101E900015460BB1536843B923786FF300032370E1
:101EA0000023636005B0BDE8F08F81422ED1FFF7BB
:101EB00029FBA5420646074600D105466B68204629
:101EC00071681944FFF709FB22680021A068C2F37A
:101ED0009D02520021F0C8FCB368D4F808E000224B
:101EE000D6F804900193F446AB680EEB490811460E
:101EF00002936B680393039B934231D0ACF10200D1
:101F0000DDF804B00023CDF8009018E0824204D13F
:101F1000FFF7F8FA05460746D0E70027CEE730F886
:101F200002AF53443BF802AB1946029B33F8123020
:101F300003FB0A130099038001391B0C00910099DF
:101F40000029ECD14146881C13B10146A8F80030A5
:101F5000A1EB0E010CF1020C013280464910CAE7D8
:101F6000616038462A7833785340227863F3000260
:101F7000227005B0BDE8F04FFFF7FDBA4B6870B5B1
:101F80000546144613B11378DA0706D52B786FF39C
:101F900000032B7000236B6070BD636823B90121BF
:101FA000BDE87040FFF7F3BA0846FFF7ABFA064604
:101FB0002046FFF7A7FA012104462846FFF7E7FA73
:101FC000636883B1A3681B88DB0704D532462946C2
:101FD0002846FFF757FFA168012362680846FFF70C
:101FE000D8F9606038B93046FFF7C5FA2046BDE839
:101FF0007040FFF7C0BA324631463046FFF742FF25
:10200000DEE72DE9F04F0C4651688FB09046013164
:1020100005460293FFF761FAD8F804200021A8686A
:1020200000260132520021F01FFC2B786E60204602
:102030006FF300032B70D8F804100131FFF74DFA4D
:1020400041462046FFF7CEFA029BA768D4F80490D9
:1020500038464946D3E9013A00935246AB680393A8
:10206000009BFFF76EFA002835D10123039A6060C8
:1020700013806B6023786168C3F3000200290CBFF2
:10208000002202F0010262F30003029A237098F822
:10209000003012785340DB0740F100816B682A78EA
:1020A000003B18BF012363F300022A70002900F0EF
:1020B000F5800BA84FF0FF31FFF7B3FA0BAA2946C2
:1020C0002846FFF7EAFC029A214620460FB0BDE8F9
:1020D000F04FFFF7E2BC01DA6E60CBE7009B03F143
:1020E0000042013A4FEA420E3AF81230180406F163
:1020F000010150D507EB490B002109F10100BC4655
:102100000BF1020327F8191060600193B3B2C3F119
:1021100010060496019EB44541D33AF812209A4025
:102120000492009A012A09D90AEB0E02C3F11001A8
:1021300032F8022CCA40049911430491009AAAF182
:10214000020A801A039A686000F10040013802EB2D
