:020000040800F2
:10000000F8FF03201901060817CC080805CC0808DA
:1000100019CC080825CC080831CC080800000000DD
:100020000000000000000000000000003DCC0808B7
:100030003FCC08080000000059DB080891DB0808E5
:10004000010006082DCD080839CD080841CD080863
:100050007955090801000608C1CC0808C7CC080872
:10006000CDCC0808D3CC0808D9CC080881FB0808F7
:1000700091FB0808A1FB0808B1FB0808C1FB0808B0
:10008000D1FB0808E1FB080801000608010006088A
:10009000B9200908C1200908C9200908DFCC0808CF
:1000A00055CD08085BCD08086DCD080873CD08084C
:1000B00079CD08087FCD080885CD080811CE08083D
:1000C00017CE08081DCE080823CE08080100060830
:1000D00001000608D5CD0808DBCD0808E1CD0808E9
:1000E00003CD080833CD08084DCC0808B1CD080869
:1000F000B7CD0808CFCD0808C9CD0808F1FB08081E
:1001000001000608010006088DCD08080100060858
:10011000E7CD0808EDCD0808A5CD0808ABCD080847
:1001200001FC080811FC080821FC080831FC08083B
:1001300041FC080801000608010006080100060845
:10014000CF200908D7200908DF20090841CC08087A
:1001500051FC080861FC080871FC0808F3CD080888
:1001600029CE08082FCE080801000608E520090856
:10017000ED200908F520090800000000000000003B
:100180000100060801000608F9CD0808FFCD08089F
:100190000100060801000608000000000100060832
:1001A00005CE08080BCE0808000000000000000083
:1001B0000100060800000000000000000100060821
:1001C00001000608010006080100060801000608F3
:1001D000010006080100060842884378007843EAD7
:1001E000022340EA032070470B0A017043700B0C96
:1001F000090E8370C1707047036A0239023B8B425B
:1002000083BFC389406B01FB030000207047024697
:1002100000F10B010020C30143EA500312F8010B67
:1002200050FA83F38A42D8B2F5D1704737B50D46FC
:10023000044620B9092000232B6003B030BD0368B9
:10024000002BF7D05A79002AF4D081885A8991423C
:10025000F0D118680DF10702062102F0F7FA9DF8B7
:10026000073003F00103184310F0FF00E2D12368C8
:10027000E2E738B50468054614F8010B20B140F2F6
:10028000B51180F055FD08B12C6038BD4FF0FF303E
:10029000FBE7CA7E8B7E032843EA022301BF487D29
:1002A0000A7D42EA002243EA024318467047C2F33D
:1002B00007238A76CB760378032B01BF120C0A75CD
:1002C000120A4A75704770B5C379044613B9002500
:1002D000284670BD00F13C06826B00680123314660
:1002E00002F09FFA054680B9A16BE36A626AE07189
:1002F000CB1A9342EBD2A379022BE8D10A44012313
:100300003146206802F08DFAE2E70125E0E738B5D2
:10031000836B8B4205460C4615D0FFF7D4FF03468E
:1003200078B90123224605F13C01286802F06AFAF7
:10033000002818BF4FF0FF340346AC630CBF0346E0
:100340000123184638BD0023FBE7000038B5002321
:10035000C3714FF0FF3383630546FFF7D8FF0446B0
:1003600018BB95F83B2295F83A3243EA02234AF645
:10037000552293421BD195F83C30EB2B03D0183318
:10038000DBB2012B15D803220B4905F1720083F073
:1003900061FD40B10522094905F18E0083F05AFD47
:1003A000002818BF0224204638BD0424FBE703249C
:1003B000F9E70224F7E700BF87520A088B520A08C0
:1003C0002DE9F047437986B0044601F0FE0593B16C
:1003D0000DF107020621006802F038FA9DF8073097
:1003E000DA0708D41DB113F0040500D00A25284609
:1003F00006B0BDE8F087002363710DF10702052107
:10040000206802F023FA9DF8073013F0010640F04F
:100410000F810DB15B07E9D400212046FFF796FF5D
:100420000228034603D0012824D825797DB302ADE4
:1004300004F2022104F24227A84611F8040C10B17C
:100440000846FFF7C9FE10318F4245F8040BF4D17E
:10045000277907B1013F58F827507DB1294620463A
:10046000FFF774FF0346227952B9012B0FD90137E8
:10047000032FF0D9042B07D1012606E00323F2E76E
:10048000042BF9D0012B02D90D263546AFE794F89D
:10049000482094F8473043EA0223B3F5007FF3D1B4
:1004A00094F8533094F8528058EA032804D104F1A8
:1004B0006000FFF791FE804694F84C10C4F8248049
:1004C0004B1E012BA171DFD894F84970BBB2E381B8
:1004D000002BD9D07B1E3B42D6D194F84E9094F895
:1004E0004D3043EA09230FFA83F91FFA89FA1AF00B
:1004F0000F0FA4F80CA0C7D194F8503094F84F0017
:1005000050EA032003D104F15C00FFF765FE94F884
:100510004BE094F84A3053EA0E2EB5D008FB01FCAC
:100520000EEB1A1262448242AED8801AB842B0FB77
:10053000F7F1A9D3434B9942A6D84FF6F5739942E8
:1005400078D9032702310EEB05032A44032F2162D9
:10055000A562E36262635AD194F8672094F866302A
:1005600043EA022349EA03031BB2002B8CD104F1B6
:100570006800FFF731FE2063890001F2FF11B8EB3C
:10058000512F81D34FF0FF33C4E90533032F4FF0D0
:10059000800323722FD194F86D2094F86C3043EAD5
:1005A0000223012B27D1691C2046FFF7B0FE10BBA8
:1005B00094F83B2294F83A32207243EA02234AF636
:1005C0005522934217D104F13C00FFF705FE1E4B64
:1005D000984210D104F50870FFF7FEFD1B4B9842BE
:1005E00009D104F50970FFF7F7FDA06104F50A7061
:1005F000FFF7F2FD6061164A6771138801339BB201
:1006000013806381134B23610023E3613DE7BAF15B
:10061000000F3FF439AF6344022F23634FEA4103D5
:100620001BBF5B1801F00101194601EB5301A4E760
:100630000325DCE640F6F577B9428CBF0227012797
:1006400080E700BFF5FFFF0F5252614172724161B6
:100650002C0000202E00002001292DE9F04705463E
:100660000C46174672D9036A8B426FD94379022B25
:100670003FD0032B50D0012B68D101EB5108C16A48
:1006800001EB5821FFF743FE064638BB05F13C0954
:1006900008F1010AC8F3080814F001041FBF19F893
:1006A000083003F00F023B0103F0F00314BF1343C3
:1006B000FBB209F80830E96A0123EB7101EB5A211A
:1006C0002846FFF724FE064640B9CAF3080A44B19B
:1006D000C7F3071709F80A700123EB713046BDE82C
:1006E000F08719F80A30C7F3032723F00F031F43DD
:1006F000F0E7C16A01EB1421FFF709FE0646002866
:10070000ECD1640005F13C0304F4FF741A191F5581
:10071000C7F307275770DFE7C16A01EBD411FFF772
:10072000F6FD06460028D9D1A40005F13C0304F4E7
:10073000FE741C442046FFF74FFD27F0704700F081
:10074000704139432046FFF74FFDC5E70226C5E754
:100750000129F8B505460C4652D9036A99424FD291
:100760004379022B29D0032B38D0012B48D101EB40
:100770005106C16A01EB5621FFF7C9FD10B14FF0D8
:10078000FF30F8BD771CE96AC6F308062E4401EB7A
:100790005721284696F83C60FFF7B9FD0028EED1B6
:1007A000C7F308073D44E30795F83C0046EA0020FC
:1007B0004CBF0009C0F30B00E3E7C16A01EB142151
:1007C000FFF7A5FD0028DAD164003C3504F4FF747E
:1007D0002B19285D5B7840EA0320D2E7C16A01EB60
:1007E000D411FFF794FD0028C9D1A40005F13C0005
:1007F00004F4FE742044FFF7EFFC20F07040C0E7E3
:100800000120BEE7B1F5001FF8B506460D4601D33D
:100810000220F8BDCA06FBD1826804683161CAB9FA
:100820006379022B01D9236B9BB9A389B3EB551FC5
:10083000EED9236BB361B3697261002BE8D003EB8F
:1008400055233C34C5F308052C44B361F461002002
:10085000DFE71A46E7897F02BD42114604D22046EF
:10086000FFF7CAFCB061E6E73068FFF771FF431C91
:10087000024606D00128CBD9236A8342C8D9ED1B92
:10088000EAE70120C5E72DE9F041804605680F46FB
:1008900049B96E69C6B12B6AB34298BF0126AB69EC
:1008A000A3B9002406E02846FFF752FF01280446BA
:1008B00003D801242046BDE8F081421C51D02B6AA8
:1008C0008342F7D83E46EAE70126E8E7BE4215D163
:1008D0002B6AD8F80000741CA34298BF022421465A
:1008E000FFF736FF0128E4D0431C3AD0D8B16B693A
:1008F000012B03D92A6A934238BF1E4634462B6A1D
:100900000134A34202D8012ECBD902242146D8F8C3
:100910000000FFF71DFF40B10128CAD0013020D0F0
:10092000B442ECD1BDE7002CE8D04FF0FF322146B5
:100930002846FFF791FE90B957B92A6AAB696C61F6
:10094000023A934210D92B7A43F001032B72B1E79C
:10095000224639462846FFF77FFE0028EDD00128C1
:10096000A7D14FF0FF34A5E7013BAB61EBE7F8B54A
:100970000D46012D0746114604682BD9236AAB4268
:1009800028D92AB14FF0FF322046FFF765FE30B973
:1009900029463868FFF7DCFE064608B90020F8BD96
:1009A000012817D0431C17D0002229462046FFF704
:1009B00053FE0028F3D1226AA369911E8B4205D20F
:1009C0000133A361237A43F001032372B242354617
:1009D000DED8E3E70220E2E70120E0E7F8B50546CC
:1009E0000E46FFF770FC0446F8B931462846FFF77B
:1009F00003FC05F13C060746A8634FF4007221464C
:100A0000304683F011FAEB899C4204D3E889001B3D
:100A100018BF0120F8BD01233A193146286801F0BA
:100A200000FF0028F2D10134EDE70120F2E72DE9C3
:100A3000F843076905682037B7F5001F24BF002376
:100A4000836183690446894673B1C7F30808B8F126
:100A5000000F39D141690133836139B9AB89B3EBF7
:100A6000571F31D80023A36104200BE0EB89013B21
:100A700013EA572328D12846FFF76AFE01280646C5
:100A800002D80220BDE8F883421C01D10120F9E719
:100A90002B6A834212D8B9F1000FE3D06169204676
:100AA000FFF7F1FE0646A8B10128EAD0431CEDD0BD
:100AB00001462846FFF792FF0028E7D166613146DC
:100AC0002846FFF799FBA0613C3545442761E56165
:100AD0000020D7E70720D5E7F8B50F4600210446E8
:100AE0000668FFF78FFEA8B90546A1693046FFF7F3
:100AF0000EFC78B9E3691B78E52B00D01BB90135F2
:100B0000BD4201D1F8BD054601212046FFF78FFF08
:100B10000028EAD0042808BF0720F3E72DE9F84FA2
:100B2000FF25066881460F462C464FF0040A4FF613
:100B3000FF78D9F8181019B9BAF1000F78D067E02A
:100B40003046FFF7E4FB8246002861D1D9F81C004B
:100B50000378002B76D0C27AE52B02F03F0289F8A9
:100B600006205BD02E2B59D022F02001A1F1080CD9
:100B7000DCF1000141EB0C01B9424FD10F2A52D1F7
:100B8000590649D5D9F81020457BC9F82C2003F027
:100B9000BF03427BAA4241D1C17E827E42EA01224A
:100BA00012B2002A3AD10178D6F810C0DFF89CA022
:100BB00021F0400101390D2461434FF0010E1AF874
:100BC000014B00EB040B045D9BF801B044EA0B24DD
:100BD000BEF1000F24D0FF2920D82CF81140A646E2
:100BE000013101320D2AEAD10278520607D5BEF151
:100BF000000F04D0FF2911D800222CF811205C1E10
:100C0000E4B200214846FFF712FF8246002890D048
:100C10000023C9F818300DE09C42BAD0FF24F0E759
:100C20004445DED0FAE744B9FFF7F1FAA84204D10F
:100C30004FF0000A5046BDE8F88F4FF0FF33C9F877
:100C40002C30F7E74FF0040AE2E700BF68520A08C9
:100C5000C16A4B1C2DE9F04104460568066918D1AC
:100C6000E5274FF00108A1692846FFF750FB60B95E
:100C7000E3691F7085F807802369B3420DD20146EE
:100C80002046FFF7D4FE0028EDD0042808BF02203C
:100C900003E0FFF7B7FD0028E2D0BDE8F0810000D7
:100CA0002DE9F04F002185B00446D0F80080FFF711
:100CB000A9FD8146002840F08C804FF0FF334FF0B3
:100CC000FF0AE36257460093A1694046FFF71FFB06
:100CD000814600287DD1E5692E78002E7DD0EA7A04
:100CE000E52E02F03F03A37103D0100704D50F2BAC
:100CF00004D0009BE36252E00F2B57D194F82B30C5
:100D0000590642D4720648D5236995F80DA0E362CE
:100D100006F0BF066B7B534541D1EA7EAB7E53EABA
:100D200002233CD12F78D8F810B007F03F077B1E84
:100D30000D275F432A4B012113F8012BA81815F842
:100D40000290407849EA002959B3FF2F039326D82F
:100D5000484680F001F87A1C02903BF81700019297
:100D60007FF0FAFF0299814219D1019A039B49460B
:100D700017461C4A9A42DFD12B785B0603D511B186
:100D80003BF817305BB9013EF7B200212046FFF770
:100D90004EFE8146002897D01BE0B742BAD0FF270D
:100DA000F3E74FF6FF729145E3D0F8E727B92846FD
:100DB000FFF72DFA50450CD094F82B9019F001094B
:100DC00097D10B2204F12001284683F043F8002834
:100DD0008FD1484605B0BDE8F08F4FF00409F8E721
:100DE00068520A0875520A082DE9F04F90F82BB0A6
:100DF0001BF0A00489B0054640F0E38007683A691B
:100E000032F81430002B6CD105F1200696E807006B
:100E10000DF1140A1BF0010F8AE8070000F0D880DA
:100E2000402385F82B304FF001089AE80700B446BC
:100E30003B69ACE803002CF8022BB8F1050F4FEA30
:100E400012428CF8002060D9981E424630F8021FEA
:100E5000002948D10DF1130C072102F00F0E0EF1FD
:100E60003000392888BF0EF137000F2A0CF801092D
:100E700001F1FF314FEA121049D808AB5A187E2011
:100E800002F8140C05F11F00844600228A4206D0A5
:100E90001CF801EFBEF1200F02F1010939D1072939
:100EA0009CBF08AB03EB010C02F1010296BF1CF8DA
:100EB00014CC4FF0200C0131072A00F802C0EED903
:100EC0002846FFF7EDFE814600287DD108F1010894
:100ED000B8F1640FA9D14FF00709484609B0BDE841
:100EE000F08F01348CE74FF0100C01F0010E0EEB87
:100EF0004202D30344BF82F4883282F02102BCF163
:100F0000010C4FEA5101F0D1A0E74246A2E70246A8
:100F1000A3E74A46BAE729692846A1EB4411FFF73F
:100F200071FC81460028D8D13046FFF770F94FF6A2
:100F3000FF780190A9693846FFF7E9F98146002852
:100F4000CBD1EB69019AD7F810E05A73E1B24FF0B8
:100F50000F024FF00D0CDA72DFF8D8A018734A1E9A
:100F60000CFB02F29876D876844640451AF8019B2D
:100F700018BF3EF8120003F8090003EB090B0CF14F
:100F8000010C18BF01324FEA1029002808BF404663
:100F9000BCF10D0F8BF80190E7D1404502D03EF82F
:100FA00012200AB941F0400119700123FB710021A0
:100FB0002846FFF73CFD814600288ED1013CB9D17F
:100FC0001AE04FF0060988E7042886D185F82BB08F
:100FD0001BF0020F1BBF0C340D230124B4FBF3F4F0
:100FE00018BF013421462846FFF776FD81460028C8
:100FF0007FF473AF013C8ED1A9693846FFF787F9BA
:10100000814600287FF469AF01462022E86982F01A
:101010000BFF03CEEB6918605960B27831881981F3
:101020009A7295F82B30EA6903F0180313730123C1
:10103000FB7152E768520A08F8B50446FFF743F916
:101040000546002842D16379032B37D1277A012F37
:1010500034D104F13C0601464FF40072304682F070
:10106000E3FE552384F83A32AA2384F83B32522314
:101070004122722184F83C3084F83D30612384F8A9
:101080003E3084F83F2084F8222284F8233284F80A
:10109000201284F8211204F50970A169FFF7A4F861
:1010A000616904F50A70FFF79FF8A26A20680132AF
:1010B000A2633B46314601F0B4FB25720022114683
:1010C000206801F0C3FB003018BF0120F8BD2DE9F6
:1010D000F0470026D0F800A08E75836980460C4644
:1010E000002B00F09280C36A01336DD1D8F81C1038
:1010F00000234D1E18462E2615F8012F202A00F138
:1011000001000CD0052A08BFE522092804D10B2BC9
:101110009EBFE71801337E72E71801337A720B28FD
:10112000EAD1E21800205072A27D002A5CD1002B87
:1011300051D06FF0080604F109000825361B32185B
:1011400010F8013B002B49D09BB22E2B5FD0A3F1AE
:101150004102192A03D80A7B154200D020330373B9
:10116000EDE7B9F1000F05D100F520539BB2B3F5BF
:10117000006F12D340F2B51140EA09407FF0B8FD8C
:10118000FF28C7F1FF0518D9012D20D9E319020A5C
:101190009A75D87502231F44002002368146DAF87A
:1011A0001030985B0028DCD13D46B9F1000F18BF24
:1011B000002525440023AB7598E750B1002DF4D0ED
:1011C000E31998750123E6E7B1463746E7E70025BE
:1011D000EBE70546E9E73F23A375012222440023FC
:1011E00093750B7B03B96372CB7A237201F11C00F8
:1011F000FEF7F2FF2060CA7D8B7D43EA0223E38085
:101200004A7E0B7E43EA0223A380BDE8F0871025C7
:10121000A5E700002DE9F04F0B78D0F800B02F2B98
:1012200087B00646884601D05C2B0AD14246137827
:101230002F2B904602F10102F9D05C2BF7D000234E
:1012400001E0DBF81C30B36098F800301F2B00F28F
:101250002C81802386F82B3000213046FFF7D2FA0C
:1012600007B0BDE8F08FFE2D00F248812AF8153056
:10127000013520E108F101020592DDF8148098F8AB
:1012800000202F2AF6D05C2AF4D0202B34BF04246F
:101290000024012D2CD1BAF800302E2B2ED10023A2
:1012A0002AF8153006F120029D428CBF2E21202104
:1012B00001330B2B02F8011BF6D144F0200486F811
:1012C0002B403046FFF7ECFC96F82B30002800F05E
:1012D000DB800428C4D1990603F0040240F1D080D9
:1012E000002A00F0E280802386F82B300020B7E748
:1012F000022D03D1BAF802302E2BCCD00AEB4503D5
:1013000085BB00210AEB45032AF81510002D00F0DB
:10131000F5803AF81120202A01F101002AD009B9FC
:101320002E2A01D144F0030433F8022D2E2A01D0D5
:10133000013DF9D14FF020324FF000097262326264
:10134000C6F8272008234F463AF811004A1CF8B186
:10135000202803D02E280FD1954211D044F0030449
:101360001146F1E733F8022D202A01D02E2AC8D1E8
:10137000013DC5E70146CCE7994504D2954234D1F9
:101380000B2B2BD101E00B2B23D144F003040B23B7
:1013900096F82020E52A04BF052286F82020082B95
:1013A00004BFBF00FFB207F00C030C2B03D007F003
:1013B0000303032B01D144F00204A3073FF57FAFE1
:1013C000FD0748BF44F01004780748BF44F0080404
:1013D00075E7954202D044F00304D9D3BF00FFB2B1
:1013E0002A460B234FF00809BAE77F2813D9CDE925
:1013F000022340F2B51144F0020301937FF078FC20
:1014000010F0800FDDE9022310D000F07F003D498D
:10141000085C019C30B1DFF8F4C01CF8011BE9B195
:101420008142FAD144F003045F2010E0FF28F0D994
:10143000591E894503D344F00304994690E706EB0F
:101440000901040A81F82040019C09F1010906EB19
:10145000090109F1010981F8200081E7A0F14101AA
:1014600089B2192902D847F00207F0E7A0F161011B
:1014700089B219299EBF203847F0010780B2E6E7FC
:10148000002A08BF0520EBE65A073FF5E9AEB3791D
:10149000DB0635D533699BF80500C3F308030BF170
:1014A0003C011944FEF7F5FEB0603368CDF81480B6
:1014B000D3F810A0002505A8FEF7DBFE421C1DD0C6
:1014C000B0F5803F24BF030C2AF8153083B228BF43
:1014D00001351F2B7FF6D1AE2F2B3FF4CEAE5C2B08
:1014E0003FF4CBAE7F2B3FF6BEAE0749184611F84E
:1014F000012B002A3FF4B7AE8242F8D10620AFE6B6
:101500000520ADE6E8510A08E2520A08EB520A0843
:1015100000214171FEF754BF2DE9F04305468DB01F
:1015200090461E460C46002900F0BE8003F03F079F
:101530003946FEF745FF002840F0AE804146684638
:101540000095FFF767FE024620B99DF92B30002B6E
:10155000B8BF062216F01C0F6DD0002A3ED0042A18
:1015600039D16846FFF740FC0246A0BB47F00807A8
:10157000DDF81C902E46494616F8050FFEF789FE49
:10158000804694F0B5F9014609F10E00FEF72CFEF5
:10159000079B2022DA72079900223046FEF787FE69
:1015A000079B00221A775A779A77DA770123EB7133
:1015B000B8F1000F1BD041466846AE6BFFF7D7F974
:1015C000024640B931462846FEF7A1FE08F1FF3138
:1015D0006961024658B10023236028E09DF8063077
:1015E00013F0110F31D1700758D43107C0D4AB6B51
:1015F000079E2362666268793907314648BF47F023
:101600004007FEF746FE0146A06006F11C00FEF70B
:10161000E3FD6B89A380BA064FF000030646E06045
:10162000256027746374E361636110D4002210465F
:101630000DB0BDE8F083002ACDD19DF80630DA0662
:101640002ED4B607D3D5D807D1D50722C3E70028B3
:10165000ECD0EF8960617F02B7420FD30022A16115
:10166000002AB8D1C6F30803002BDFD02846FEF7C6
:10167000C3FDB8B100EB5620E061D8E72068FFF762
:1016800067F801280146A6EB070603D9431CE3D1FE
:101690000122E4E70222E2E702469CE708229AE7F9
:1016A000042298E7022296E70922C0E72DE9F04FCD
:1016B0009A4685B000238946CAF8003003A904463B
:1016C0001546FEF7B3FD0646F0B9667CE6B9237C05
:1016D00013F0010301937DD0E3686769DF1BAF421C
:1016E00028BF2F4687B16269C2F30803002B58D187
:1016F000039BDB89013B13EA522815D142B9A0684C
:1017000001280AD802266674304605B0BDE8F08F7D
:10171000A1692068FFF71CF8F2E7431C03D10123FD
:101720006374019EF0E7A061DDF80CB0A169584632
:10173000FEF762FD0028E5D008EB0003B7F5007F57
:1017400000932CD37D0ABBF80E20DBF8000008EBD9
:101750000501914288BFA2EB08052B46009A494635
:1017600001F050F80028DAD10399CB795BB1886B8E
:10177000009BC01AA84206D24FF400723C3109EB1C
:10178000402082F00DFB6D02DAF800302B44CAF8DD
:10179000003063697F1BA9441D446561A2E7009B7B
:1017A000E3616569E1690398C5F30805C5F500754E
:1017B000BD4228BF3D46FEF7AAFD0028AFD10399E0
:1017C00063693C31C3F308032A461944484682F052
:1017D000E7FAD9E7072697E72DE9F04F9B4685B052
:1017E00000238946CBF8003003A904461746FEF7CC
:1017F0001DFD064618BB667C0EBB237C9A0740F194
:10180000AA806369FB4200D3DF43A7B16369C3F3D6
:101810000802002A40F08280039AD289013A12EA33
:10182000532201921ED173B9A06870B901462046B7
:10183000FFF729F848B9237C43F04003237430466E
:1018400005B0BDE8F08FA169F1E7012802D10226B9
:101850006674F4E7431C01D10126F9E7A368A0618F
:1018600003B9A0600398E369826B9A4203D1FEF743
:101870002AFD0028F0D1DDF80CA0A1695046FEF742
:10188000BBFC0028E3D0019BB7F5007F03EB000809
:1018900036D3019ABAF80E30DAF800007D0A2A44ED
:1018A0009A4284BF019A9D1A2B464246494600F04F
:1018B000B8FF0028D0D1DDF80CA0DAF83810A1EB81
:1018C0000801A9420BD201904FF4007209EB4121AB
:1018D0000AF13C0082F064FA019B8AF807306D023D
:1018E000DBF800302B44CBF8003063697F1BA94440
:1018F0001D44E3686561AB422CBFE360E56084E7AB
:101900006269E3689A4207D35046FEF7DCFC002880
:10191000A2D1039BC3F83880C4F81C806569E169D3
:101920000398C5F30805C5F50075BD4228BF3D46BF
:10193000FEF7EDFC00288FD1039863693C30C3F3B8
:1019400008032A461844494682F02AFA039B4FF0BE
:101950000102DA71C4E7072671E7F7B501A9054668
:10196000FEF764FC044668BB2C7C14F0400429D0CC
:1019700093F0BEFF296A07460198FEF7C8FC0446AB
:1019800000BB6E6AF37A43F02003F3722868AA68FA
:1019900031460530FEF78BFCE96806F11C00FEF7C6
:1019A00023FC394606F11600FEF71EFC0198B474BC
:1019B0000123F474C371FFF73FFB2B7C23F040033A
:1019C00004462B74204603B0F0BD13B50446FFF760
:1019D000C4FF28B901A92046FEF728FC00B9206001
:1019E00002B010BD70B50E468CB000210546FEF762
:1019F000E7FC044660B9314668460095FFF70AFCEB
:101A0000044690B99DF92B30002B04DA029BEB6160
:101A100020460CB070BD9DF80630DB0609D507994D
:101A20006879FEF736FCE861F2E7042808BF052470
:101A3000EEE70524ECE72DE9F0470E460021D2B091
:101A4000317080469146FEF7BBFC0546C8B9D8F810
:101A50001C30CDF8008002934F46DDF808A0BAF1A3
:101A6000000F14D14F4502BF07F1FF372F23F35565
:101A7000B91B3346DA5D1A70013672189145334648
:101A8000F8D800232846337052B0BDE8F0872021F3
:101A90006846FEF7B7FE00284CD106994046FEF78F
:101AA00036FC0446002843D1079998F80500FEF754
:101AB000F0FB214602906846FEF7A4FE002839D1CB
:101AC00000216846FFF72AF80446B8BB079998F842
:101AD0000500FEF7DEFB50450AD021466846FEF7BA
:101AE000A6FF0028ECD00546042D08BF0225C8E754
:101AF0000CA96846FFF7EBFA0DF14602214612F8F1
:101B0000010B4B1C58B99F4216D3F2190B4643B92F
:101B10007B1E5B1A2F22C9430F44F2549DE71946DE
:101B2000EDE7013B0CA81844807D02F8010DEEE7BB
:101B30000546A6E70546A4E71125A2E70546D3E733
:101B40002DE9F3410D4601A90446FEF76FFB064659
:101B5000002850D1667C002E4DD1E368AB4204D200
:101B6000227C12F0020F08BF1D46002263696261E9
:101B70009DB90025E2686369934282BF227CE360DD
:101B800042F04002C3F3080388BF2274002B32D016
:101B9000E369AB4218BFE5612DE0019AD7897F0266
:101BA000FBB1013B6A1EB3FBF7F1B2FBF7F28A42CD
:101BB00017D37A421340A1696361ED1A0029D8D086
:101BC000BD42636922D863692B446361C5F308038E
:101BD000002BCED00198FEF70FFB50B100EB55253E
:101BE000C8E7A16881B92046FEF74DFE01280146ED
:101BF00005D102266674304602B0BDE8F08101309E
:101C000001D10126F6E7A160A161D7E73B446361FA
:101C1000237C9A07A5EB070806D52046FEF733FE7E
:101C2000054628B90146CEE72068FEF791FD054636
:101C30006B1CE6D0012DDCD9019B1B6AAB42D8D9C5
:101C4000A56129464546BBE770B5054616460C46D4
:101C500021B30021FEF7B4FB68B925603146204668
:101C6000FFF7D8FAE0B994F92B30002B0BDBA379FE
:101C7000DB0603D40520002323600EE06879E169C8
:101C8000FEF707FBA0606B89A38000212046FEF7CA
:101C9000B9FD0428EED00028EDD170BD0920FCE785
:101CA0000428E7D0E7E713B501A90446FEF7BEFA1A
:101CB00000B9206002B010BD73B50D4601A90446FD
:101CC000FEF7B4FA20B9014620461DB9FEF79AFD89
:101CD00002B070BDFEF722FF10F0FB06F8D12946D6
:101CE0002046FFF7F4F931462046FEF7A0FE04280F
:101CF00008BF0020ECE770B50E468CB0002104460A
:101D00001546FEF75DFB0094044670B931466846FF
:101D1000FFF780FA044640B99DF92B30002B07DB12
:101D20001DB129466846FFF7D2F920460CB070BDB8
:101D30000624FAE72DE9F84F884600210446FEF70D
:101D40003FFB074640B9D4F820A0A369AAF10202DC
:101D5000934204D8C8F800303846BDE8F88F63795C
:101D6000012B17D10226054631462046FEF7F0FC2E
:101D7000431C37D0012837D000B90135236A01361A
:101D8000B342F1D8C8F80050237AA56143F00103AB
:101D90002372E1E7E16A0646054604F13C0936B9DB
:101DA000204601F1010BFEF7B2FAF8B95946637902
:101DB000022B09EB06000DD119F80630427853EAE0
:101DC000022308BF01350236BAF1010AC6F308063C
:101DD000E5D1D7E7FEF700FA30F0704308BF0135D0
:101DE0000436F1E70127CDE70227CBE70746C9E72D
:101DF000F0B50E4699B002210546FEF7E1FA044619
:101E000088B9314668460095FFF704FA044650B990
:101E10009DF82B3098063BD4190639D49DF80670EE
:101E2000FA0703D50724204619B0F0BD0799687951
:101E3000FEF72FFAFB0606460BD46846FEF708FFAE
:101E400004460028EFD1D6B92846FFF7F5F8044636
:101E5000E9E7EB698342E5D00E9021460CA80C958A
:101E6000FEF7D0FC04460028DDD101460CA8FEF7A1
:101E700055FE04460028D5D00428D4D1DDE702461B
:101E800031466846FEF773FD04460028CBD1DBE7F8
:101E90000624C8E72DE9F0430E4691B0022105461D
:101EA000FEF78EFA044600286BD1314604A804954B
:101EB000FFF7B0F90446002871D0042861D19DF8DD
:101EC0003B1011F020016CD168460095FEF7DBFC59
:101ED0000646002859D0012859D0431C5C425C4179
:101EE00093F006FD8046002C53D131462846FEF77C
:101EF00075FD044600284CD14FF02033EB632B6472
:101F0000C5F843302E2385F83C30102385F8473040
:101F1000414605F1520005F13C046F1DFEF764F9DE
:101F2000324621463846FEF7C2F905F15C031A46EF
:101F300051F8040B42F8040B9942F9D12E2385F88D
:101F40005D30069A38464FF00109FEF7B0F985F882
:101F5000079004A8FEF748FF0446D0B90B98414605
:101F60001630FEF741F932460B993846FEF79FF9D5
:101F70000B9B1022DA72284685F80790FFF75CF871
:101F80000446204611B0BDE8F0830724A8E70224E8
:101F9000A6E7002231466846FEF7E9FCF1E708248F
:101FA000EFE70624EDE7F0B50C46A1B002210646A6
:101FB0001746FEF705FA002877D1214608A80896AB
:101FC000FFF728F9002870D19DF84B3013F0A00FCF
:101FD0006DD10F9B6C4603F12005186859682246A5
:101FE00003C20833AB421446F7D108AD0FCD14AC91
:101FF0000FC40FCD0FC495E80F0084E80F003946D9
:1020000014A8FFF707F948B9169A0A9B9A4203D118
:10201000189A0C9B9A4203D0082046E0042844D129
:1020200014A8FEF7E1FE00283FD11B990DF10D0326
:1020300001F10D020DF11D0053F8044B42F8044B61
:102040008342F9D1188810809B7893709DF80B30EB
:10205000DA0658BF43F020030124CB72F471CB7A27
:10206000DB061BD50A9A169B9A4217D07079FEF7A9
:1020700010F901463046FEF7BFF80146C8B13046B8
:10208000FEF745F988B996F85D302E2B06D1169AE1
:1020900006F15C01701DFEF70AF9F47108A8FEF75D
:1020A000D7FD10B93046FEF7C7FF21B0F0BD0620BE
:1020B000FBE70220F9E70000F0B595B00746019173
:1020C0000221FEF77DF90546002833D102AE4FF01C
:1020D0002033029304467360C6F80730019B1B78D7
:1020E0001F2B20D89DF80830E52B22D01CB1631E91
:1020F000F25C202A35D0002108A808970A91FEF743
:1021000081FB0546B0B9012108A8FEF707FD98BB81
:102110000F9A44B3334603CB1060516019889B7803
:102120009372118121E001A8FEF7A3F8B0F5803F7A
:1021300003D30625284615B0F0BD7EF00DFE40F213
:10214000B5117EF0D5FD0028F3D01D4A12F8013BF1
:1021500013B19842FAD1ECE7FF2822D80A2C28D9EB
:10216000E7E71C46C2E7E52313700123FB713846FD
:10217000FEF762FF0546DDE70428FBD1002CD9D02D
:10218000012108A8FEF7A8FC05460028D2D120228C
:1021900001460F9881F048FE0F9B0822DA720F9AD1
:1021A000B8E7092CC5D814AB2344020A03F8482C1D
:1021B000013414AB2344013403F8480C8EE700BF0C
:1021C00075520A082DE9F04F07688BB01C460023B2
:1021D0004371039103790293154605210DF11F0206
:1021E000384600F033FB9DF81F30DA0700F1928289
:1021F0005E0700F1918208AA0321384600F026FB11
:1022000030B9089A531EB3F5004F01D21A4201D0DB
:10221000012308935DB15F4BA5F500729A4203D983
:1022200013200BB0BDE8F08F6B1E2B42F8D1002CB1
:1022300000F07482149BB3F5007FC0F06F82029BA4
:10224000002B63D0012300222146384600F0DAFA41
:1022500008B10120E5E794F8FF2194F8FE3143EA44
:1022600002234AF65522934201D00E20D9E7029B61
:1022700004EB031101F5D7710B79002BF5D001F1B7
:102280000800FDF7A9FF814601F10C00FDF7A4FF4E
:102290000990DDF824A0BAF1150FE6D9B5F5813F14
:1022A000BED2039B13F0020E4FEA552244D003F036
:1022B0000701022900F04082D80740F13D82002A40
:1022C00059D135484FEA1A35012630F8021B09B1B9
:1022D000A94239D940F6F571BAFBF6F58D429BBF9C
:1022E00005EB4505013502356D088CBF6D000335E2
:1022F00005F2FF154FF020018CBF4FF002084FF0A0
:1023000001086D0A4FF0010B059139E209AA01217C
:10231000384600F09BFA00289BD1039B13F0080F6E
:10232000099B14BF4FF000094FF03F094B459CD368
:10233000A3EB09030993ACE70399C907BFD46FE77F
:10234000520000E2114605E27600BEE7B8F1020F46
:1023500024D1049B4FF6F5718B420ED9002A40F030
:10236000E7817200402AAAD9BEF1000F40F0E78150
:10237000802A3FF67AAF1646ACE7049B40F6F5712B
:102380008B4213D8002A7FF470AF7200802A96D94E
:102390006BE700BF00FEFF0092520A08049A40F665
:1023A000F5739A423FF661AF4FF001084FF40072A7
:1023B0000021204681F038FDD94B84F80EB01A6810
:1023C00022605A6862601A899B7A2281B8F1030FF1
:1023D0004FF00202A3724FF00003E3722273CBF3BB
:1023E000072B4FF00102637418BF0223BAF5803F38
:1023F000667384F80FB02274A37480F0228184F88D
:1024000013A0CAF3072A84F814A0F82363753F23A6
:1024100023764FF0000AFF2384F819A0A37684F8EE
:102420001BA0494604F11C00FDF7DEFEB8F1030FC6
:1024300040F00D8193F05CFA014604F14300FDF792
:10244000D3FE294604F12400FDF7CEFE022384F8D2
:102450002C30012384F83030062384F83230802376
:1024600084F84030292384F84230AE4B84F82DA004
:1024700084F82EA084F82FA084F831A084F833A02B
:1024800004F1470203F1100153F8040B42F8040B66
:102490008B42F9D119889B7893704FF0550B6FF0F0
:1024A00055031180384684F8FF3184F8FEB10123CA
:1024B0004A46214600F0B5F9824600287FF4C9AEAD
:1024C000B8F1030F3FD1012309F106022146384636
:1024D00000F0A7F94FF400725146204681F0A4FCA9
:1024E0005223237063706123A37084F8E731049B47
:1024F00041227221E27084F8E41184F8E51184F835
:10250000E621591E04F5F470FDF76EFE022384F8EF
:10251000EC316FF0550384F8FF3109F10702012314
:10252000214684F8EDA184F8EEA184F8EFA184F8A7
:10253000FEB1384600F075F9012309EB030221468C
:10254000384600F06EF9149B23F4FF7222F001026A
:102550000021204681F068FCB8F1030F40F0948020
:10256000F8232370FF236370A370E37023716371FA
:10257000A371E37123726372A3720F23E372149B3E
:102580004FEA532B5D45AA4628BFDA4621465346FB
:10259000019A384600F045F9014600287FF459AE0B
:1025A0004FF40072204681F03FFC019BB5EB0A0519
:1025B00053440193E6D1059BB8F1030F18BF1E46A3
:1025C0005E45354628BF5D462B46019A2146384672
:1025D00000F027F900287FF43CAE019B761B2B44CA
:1025E0000193EDD1B8F1030F58D0099BB3F5803FAB
:1025F00056D2B8F1020F0CBF04250125029B002B17
:1026000050D0002201232146384600F0FBF8024654
:1026100000287FF41EAE029B04EB031383F8B25133
:1026200001232146384600F0FCF800287FF411AE63
:1026300000221146384600F009F9003018BF012089
:10264000EFE5514604F12000FDF7CEFDDDE693F005
:102650004FF9014604F12700FDF7C6FDC5F3072336
:10266000E375802384F82430292384F826302E4B08
:10267000A57504F12B0203F1100153F8040B42F885
:10268000040B8B42F9D105E7B8F1010F2749204629
:1026900018BF6FF00701FDF7A7FD70E70C25ADE748
:1026A0000625ABE7039B1B07C2D44FF400720299C7
:1026B000204681F0B9FB552384F8FE31099A84F84D
:1026C000C251AA2384F8FF31029B84F8BE3184F8FA
:1026D000C1314A4443F6C163B2FBF3F2FE2384F8EE
:1026E000C331930843F03F03012684F8C43184F8D2
:1026F000C521494604F5E37084F8BF6184F8C061E0
:10270000FDF772FD099904F5E570FDF76DFD33469F
:10271000029A86E7032084E50A2082E5112080E5FD
:10272000AE520A08BA520A08CE520A08F8FFFF0051
:10273000BEF1000F3FF499AD002A7FF403AE2F489D
:102740004FEA5A45012230F8021B19B1A9427FF61F
:10275000F7AD0021BAFBF2F0294E8500A0F57F40CD
:10276000F63805F20725B0424FEA55253FF67DAD14
:1027700016460A46002105914FF0200B4FF0030842
:1027800009EB0B0101910599DDF820C0681801994A
:1027900008440CF1FF31B8F1030F0144CCF1000CF7
:1027A00008BF019B01EA0C01A1EB000101BF5B180E
:1027B0008B441946019118BF6D18C9EB06110844E6
:1027C0008245FFF452AD059BAAEB0301A1EB0B017F
:1027D000B8F1030FA1EB0501B1FBF6F304937FF40D
:1027E000B5AD4FF6F5718B423FF6E0AD002A7FF4B0
:1027F0003CAD012E7FF639AD72089DE7A0520A0864
:10280000FFFFFE0F10B50C4611461A4638B123469D
:1028100004307DF0C5FE003018BF012010BD04203B
:10282000FCE710B50C4611461A4650B12346043059
:102830007DF0DAFE10F11E0F05D0003018BF012028
:1028400010BD0420FCE70220FAE7000070B50D4639
:1028500014460646002833D001F00703234AD15C12
:1028600000292FD0002204307DF0E8FE062D27D865
:10287000DFE805F008050A162619190006206BF096
:10288000A1F82060002070BD062805D14FF4007328
:1028900023802388B360F5E76BF094F82080F8E795
:1028A00001232360EEE7062801D0430806D1336AEE
:1028B000002B0CBF042300232370E3E70123FBE775
:1028C0000420E0E7062DFBD801A353F825F000BF54
:1028D000852800087D2800088D280008A128000808
:1028E000C1280008AF280008AF280008DC500A08FB
:1028F000086873F06EBD000037B51D46043001ABAB
:102900001446FEF769FF38B1064B1B5C2B604FF095
:10291000FF34204603B030BD019BA342F9D01C23F5
:10292000F4E700BF03510A0813B51C46043001AB9D
:10293000FEF7BCFE30B1044B1B5C23604FF0FF3050
:1029400002B010BD0198FBE703510A0870B50546B7
:1029500008460C466AF0A4FF234602460249284670
:10296000BDE8704001F024B8F8500A082DE9F8439A
:1029700080461046894671F047F8264D01380024FC
:102980002A4610F8013FCBB92C205DF05BFC0746CE
:10299000064647F8045B484671F036F8E3B2024653
:1029A000394608F14400FEF7B7FD054640B330460E
:1029B0005DF062FC184B585D6AF0C2F9722B11D0C1
:1029C00008D8612B17D0622B18D02B2BD9D144F00B
:1029D0000304D6E7772B08D0782B09D0742B08BFD7
:1029E0001546CEE744F00104CBE744F00A04C8E7FB
:1029F00044F00604C5E744F01204C2E7074DC0E7FF
:102A0000E30603D531693846FFF79AF83046BDE84A
:102A1000F88300BF38510A0803510A0818510A0800
:102A2000022970B5044615461E4613D15368012B82
:102A30000AD0022B0CD01BB91168201DFFF780F8BB
:102A4000A3692B60002070BD81692B681944F4E7ED
:102A50000169FAE701290AD10430FEF77EFF002858
:102A6000F0D0084B1B5C33604FF0FF30EBE70429DC
:102A700006D14368002BE5D00430FEF7A6FFEEE751
:102A80001623F0E703510A082DE9F04F2DED028BD4
:102A900085B006291E46B0EE408A80468B460092DD
:102AA0009DF8403014D8012906D93F2308F8013B8E
:102AB000002388F8003001E00029F9D1BBF1010FB3
:102AC00094BF0020012005B0BDEC028BBDE8F08F63
:102AD00010EE102A002A054624DAB4EE400AF1EE80
:102AE00010FA1FD62D2305F8013BB1EE408A9FED69
:102AF000D57A009BF0EEC87AF4EE477AF1EE10FA40
:102B000003F0200313DD83F049022A7083F04E02A4
:102B100083F046036A70E81CAB7000230370A0EBDF
:102B20000800D0E7002BE2D005F8013BDFE7B4EE68
:102B3000488AF1EE10FA08D743F04E0283F04103C1
:102B40002A706B70E81CAA70E7E7009B002E43F028
:102B5000200AB8BF0626BAF1670F02D1002E08BFBF
:102B6000012618EE103AA5EB0807ABEB0707191E74
:102B700007F1FF391AD1BAF1660F08D1731C4B4522
:102B8000A8BFFE1E771C6621002399460BE0731D2B
:102B90004B45A8BFFE1F0023BAF1650F51461F46E3
:102BA000F3D14FF02B099C461C4635E0C1F3C753C7
:102BB0007F3B07EE903A9FEDA47AF8EEE77AB1F109
:102BC0007E5F67EE877AFDEEE77A17EE904A80F037
:102BD000A8806342F8EEE70AB2EE040A01937EF0A1
:102BE00035F9019B1C46B4EEC08AF1EE10FA7CD494
:102BF000BAF1660F07D0BAF1670F40F08180042C5C
:102C00007EDC631E1E44731C4B45A8BFFE1E0023C2
:102C1000771C99469C466621652926EAE67040F0B5
:102C2000D580471C1E46ACEB06020023F2EE048A58
:102C30000192002F80F2D380042B29DD6B1E4FF010
:102C4000300C1E782E2E03F1FF3700F00281A6F122
:102C5000300EBEF1090F40F2FE8001331E78302E97
:102C600016D15F782E2F40F00381662900F0008195
:102C7000B9F12D0F1F705E7040F0F880013C08BF65
:102C80004FF02B0929468B42C0F0F9803121197091
:102C9000BAF1670F0AD148B12B461D46013B15F822
:102CA000012C302AF9D02E2A08BF1D46B9F1000F99
:102CB00016D0009B85F801900A2103F0200A94FBAE
:102CC000F1F393FBF1F201FB134401FB12324AF0E2
:102CD000450A3032303485F800A0AA70EC70043513
:102CE00000232B70A5EB0800EDE60134634200EEF3
:102CF000903AB2EE040AF8EEE00A7EF0A7F872E726
:102D0000BB1FB34204DCBAF1670F14BFFE1F1E469F
:102D100088EE008A6342514600274FF02D09BC46D9
:102D20007AE7631C00EE903AB2EE040AF8EEE00A8D
:102D30007EF08CF8B4EEC08AF1EE10FA15DABAF132
:102D4000660F20D14C452ADA331901334B4505DB98
:102D5000A9EB0406023E731C08BF0026A719013721
:102D60002346A4464FF0000955E7631C0193A31CBA
:102D700000EE903AB2EE040AF8EEE00A7EF066F851
:102D8000019B1C46D6E7BAF1650F08D0BAF1670F70
:102D900010D02346514600274FF02B09BFE7BB1F39
:102DA000B34200DCFE1F002723464FF02B09BC4630
:102DB000652131E7331D4B4500DBBE1FB44202DB0A
:102DC00023466721E7E7631CF61AC7E767297FF404
:102DD00029AF002ED6BF01270746384622E7002E2E
:102DE00034DD07EE906AB2EE040AF8EEE70ACDE9A8
:102DF00002107EF02BF8DDE902100023B4EEC80AC1
:102E0000F1EE10FA04DC0133092B38EE408AF5D1DB
:102E1000AC466FB1019A03F1300EF2420CF801EBAF
:102E200006D128B14FF02E0E05F1020C85F801E015
:102E3000002E07F1FF37D8BF28EE288A013E6546ED
:102E4000F7E600BFFFFF7F7F9B209A3EB7EE000AA8
:102E5000D3E73B46F5E6392E02D001361E70FDE67B
:102E6000984587F801C0F4D14346F7E6013409E7F5
:102E7000691CA1EB08065E4538BF0D4602E711F854
:102E8000016C01F80169FEE608B5044631B1054B55
:102E900003604A6C096800236CF03AFE20465DF03E
:102EA0009FF900BFD8E209082DE9FF471F460192AC
:102EB000461812B1023A222A34D80546B5422C46A9
:102EC00039D215F8010B5EF0BFFA80460028F5D123
:102ED00023782B2B29D12C46311B204601AA68F0E0
:102EE0009EFA2518A9460024B1454B4626D3B8F1D1
:102EF000000F00D06442640044F00104AB4209D0EA
:102F00001D46B5422B4641D2187801355EF09CFA39
:102F10000028F6D12049019A20486CF0B9FD3946C5
:102F2000FFF7B2FF1E4869F005FD2D2B04BF2C46AC
:102F30004FF00108D0E74FF00008CDE719F8012B5A
:102F4000A2F1300ABAF1090F09D95F2ACCD042F0B8
:102F50002002A2F161011929C9D8A2F1570A0199E9
:102F60005145C4D9204677F08BF928B9019B03FB62
:102F700004A494EA4403B7D5019B03954246711B10
:102F800003A86DF06DFF039B0446B7E7C2D120464E
:102F900004B0BDE8F08700BF4ED6090868E3090811
:102FA00039D609082DE9F04F2DED068B85B09FED40
:102FB000C69ADFEDC69ACDE901234FF00009149BB4
:102FC000039304464718C846B0EE49AABC4280F0B5
:102FD000988120785EF038FA00283ED123782B2B98
:102FE00041D10134BC4280F08C81237843F020032E
:102FF000692B3ED1A31C9F4240F27881637843F055
:1030000020036E2B40F07281A37843F02003662BDF
:1030100040F06C81E31D9F4204F103051AD9E37867
:1030200043F02003692B15D1237943F020036E2B45
:1030300010D1637943F02003692B0BD1A37943F0BE
:103040002003742B06D1E37943F02003792B01D1BF
:1030500004F108059FED9E8A20E00134B0EE498A14
:10306000B0EE489AB2E72D2BBFD101344FF00108E2
:10307000B8E76E2B42D1A31C9F4240F237816378A0
:1030800043F02003612B40F03181A37843F020030B
:103090006E2B40F02B819FED8F8AE51C019B7BB14D
:1030A000BD420DD22B7843F020036A2B08D1AC42ED
:1030B000F7EE007A08BFB0EE678A013549F00209E1
:1030C000B8F1000F03D0B1EE488A4FF00108A542D5
:1030D0000DD0BD422C4680F0CC80207801355EF0CA
:1030E000B3F90028F5D1029B002B40F0D6807A4935
:1030F0007A486CF043FC0399FFF7C6FE0023DFED2E
:10310000728A25469E461A469C461E46B2EE047AB0
:10311000294611F801BBABF1300ABAF1090F54D8B6
:10312000022E0AD16E4DAC4502DC0A2505FB0CAC23
:103130008F4200F28D800D4661E0BAF1000F04D09D
:10314000F4EEE98AF1EE10FA15DB0EB90132EFE781
:103150000EF1010E0126EBE7F4EEE98AF1EE10FA2A
:1031600046BFF0EE4A7AE8EE877A013302F1FF3289
:1031700048BFF0EE678A002AEED17246F4EEE98A83
:103180007AB9F1EE10FA1BD507EE90AAF8EEE77ABD
:10319000012EE8EE877AF0EE678A53D1013B96461E
:1031A000C6E7F1EE10FA42BFF0EE4A7AE8EE877A0F
:1031B00003F1FF3302F1FF3248BFF0EE678ADDE72B
:1031C000002E42D10133B646B2E79EB9BBF12E0FB5
:1031D000C0D04BF0200ABAF1650F0DD18F4240F2FA
:1031E00097806E782B2E28D1A91CB9423FF47FAF6F
:1031F00002269DE7022EECD1BBF15F0F98D008B1FB
:10320000CCF1000C13449C441CF1250FBEBFDFED34
:10321000357A0CF1250C68EEA78A1CF1090F19D339
:10322000CCF1000300EE903AB2EE040AF8EEE00AA8
:103230007DF00CFE88EE808A30E72D2E07D1A91C88
:103240000120D2E79646164672E7964682E70226A6
:103250000D465DE707EE90CAB2EE040AF8EEE70A03
:103260007DF0F4FD20EE288A18E725469FED168AAA
:1032700018E77FF438AFB9F1010F3FF438AFB9F177
:10328000000F11D0F0EE480AB0EE490A05B0BDECCF
:10329000068BBDE8F04F6BF0EDBBB9F1000F7FF48A
:1032A00026AF4FF00109DBE6029B23B1DFED060AF2
:1032B000B0EE480AEAE7B0EE480A05B0BDEC068B6E
:1032C000BDE8F04F6CF032BD00000000EC78AD605E
:1032D0000000807F0000C07F33D6090868E309083A
:1032E00064666606EA1C080200000000019B002BD1
:1032F000BBD1B8F1000F3FF4FAAE25461FED068AA8
:10330000E1E6002225465FED088A1346944679E7F8
:103310003FF4EDAE0FE700BF0846114681F012BD45
:1033200070B5054608460E4680F0B6FD044620B14D
:1033300002466B68286831469847204670BD0000F9
:103340002DE9F74F01919DF8301091460D9A11F03B
:10335000DF0F0646A2EB09023DD030290CA9244F0D
:103360000EBF4FF010080F464FF0010813F0800415
:1033700035D002EBD2746410151B002C36DDA2464A
:10338000D045C346A8BFD346736830685A4639460D
:10339000AAEB0B0A9847BAF1000FF1DCB9F1000F64
:1033A00005D07368019930684A4698474C44002D0F
:1033B0000DDD2C44A845C146A8BFA94673683068F6
:1033C0004A463946A5EB09059847002DF2DC204610
:1033D00003B0BDE8F08F074F4FF01008C6E713F0B9
:1033E000010501D11446C8E71546D7E70024D5E703
:1033F0009CC609088BC609082DE9F04389B0074629
:103400000020119D9DF84880139E8DF80F0002B397
:10341000814219DA2D228DF80F204942109A08AC0A
:10342000A2F10A000DF1100EB1FBF3FC03FB1C121C
:10343000092A8CBF1218303204F8012D74450FD0C0
:103440008B420DD86146EFE7A80727D52B228DF8D0
:103450000F200029E2D130238DF81F300DF11F0419
:1034600015F040099DF80F301CD023B30122CDE99F
:1034700000822B460DF10F013846FFF761FF013E38
:10348000814608AACDE900862B46121B2146384604
:10349000FFF756FF484409B0BDE8F0836A07D8D566
:1034A0002022D4E7002BECD004AA9442E9D904F8F6
:1034B000013C013CE5E79946E3E700002DE9F04FC8
:1034C00093B080461E46C8079DF874301C9D069335
:1034D0000C469146DDE91E7A0BD4A10703D1226880
:1034E000794B9A4205D020466AF06CFA400040F0D1
:1034F000010415F0810306D1069A302A03D15745FD
:10350000B8BF57469A4620466DF0C0FB00280DF123
:10351000280B18DBAA0712D52B238DF828300DF1C4
:103520002903E806F6B21DD5B9F1020F0DD11A46EE
:10353000302102F8021B711C5970134612E06B0710
:1035400001D52023E9E75B46EBE7B9F1080F60D12D
:10355000A9054FF030021A7045BF06F10E025A70ED
:1035600001330233002215F0200F1A70A3EB0B0376
:1035700005930EA90CBF13462C23BAF1010F0B9132
:10358000C8BF45F040051021CDE90C1215F04001EF
:103590008DF827200791CDE9026344D0CDE9009250
:1035A00023460DAA0CA90BA86DF04CFA03782D2B1D
:1035B000814606D18DF827300D9B013B00F10109B2
:1035C0000D93BAF1010F3CDD0D9C079B5445B8BF2C
:1035D00054462BB19DF8273003B10134059B1C44A0
:1035E000A7422BDD15F00103A7EB040427D12646E3
:1035F0001C4625F001054EB12023009300230196BF
:103600001A4632494046FFF79BFE06463023069392
:1036100019E0B9F1100FA5D11A46302102F8021BAA
:1036200006F1170188E70AABCDE900930DAA2346FE
:103630000CA90BA86DF006FA8146C2E7002400260B
:10364000D7E700242646079BDBB19DF8273053B10E
:1036500000230122CDE900320DF127014046FFF79A
:103660006FFE013F0644059B5BB100230122CDE9BB
:1036700000325946059A4046FFF762FE059B064414
:10368000FF1A069B0093BAF1010FC8BF5746019776
:103690002B460D9A49464046FFF752FE06444CB170
:1036A00020230093002301941A4608494046FFF75F
:1036B00047FE06440B980EAB984201D05CF0DCFD4F
:1036C000304613B0BDE8F08FF0E60908425A0A0808
:1036D0002DE9F04316468BB0B20780469946129FFB
:1036E0003CD416F0040F0CBF0023202300930A469D
:1036F000139B202102A8FFF7C7F9F30504460DD557
:10370000431C1F2B0AD80AAA1444252204F8202C93
:103710000AAA1A44002102F8201C1C4616F0400593
:103720001ED09DF808302F2B4FF000031AD801222D
:1037300002A9CDE900324046FFF702FE013F0546EF
:10374000013C0DF10901CDE9009733462246404680
:10375000FFF7F6FD28440BB0BDE8F0832B23C5E747
:1037600002A9F0E702A91D46EDE700002DE9F04FA0
:10377000824689B0144600260B461D4613F8012BDD
:103780000AB1252AF9D1A94208D26F1ADAF8043011
:10379000DAF800003A4698473E4429460B78002B59
:1037A00000F0FE80013120234FF000090A4612F894
:1037B000015B0DB90A271DE02D2D03D149F0010948
:1037C0001146F3E72B2D02D149F00209F8E7202D2D
:1037D00002D149F00409F3E7212D02D149F008098B
:1037E000EEE7302D22D149F040092B46E8E707FBF0
:1037F0000525303D884611F8012BA2F1300009283B
:10380000F5D92E2A3AD198F801202A2A10D04FF063
:10381000000B0A27884611F8012BA2F13000092875
:103820000CD807FB0B2BABF1300BF3E70025C1E7FE
:1038300054F8042B08F1020822EAE27B98F80020F1
:103840006C2A08BF08F1010898F80070002F00F0FA
:10385000A780642F00F0838028D8502F2DD010D857
:10386000A7F14502022A40F28880DAF80430DAF83B
:10387000000001224146984701364BE04FF0FF3BE4
:10388000DCE7622F3AD04BD8582FEED17A1C27F0C4
:103890000F070F3F02F00602FFB2CDE90235CDF867
:1038A00004900097C2F11003002260E0712F41D014
:1038B0000BD8672F61D9702FD7D1CDE9023561239D
:1038C0000093CDF804901023EEE7752FDED0782F0B
:1038D000DCD0732FC9D154F8047B0593384680F0AF
:1038E000DBFABBF1FF3F0246059B02D0584528BFDB
:1038F0005A46CDE9003539464B4607E054F8042BCB
:10390000CDE900354B4642B1274904225046FFF726
:1039100017FD064408F101012EE705222349F5E7CA
:1039200054F8042B8DF81C20CDE9003501224B46BC
:1039300007A9EBE707A954F8040B05935DF065FBB5
:10394000BBF1FF3F0146059B04D0079A934538BF62
:10395000CDF81CB0CDE90035079A4B46D6E7CDE946
:10396000023561230093CDF804900A23012254F814
:10397000041B5046FFF740FDCBE7073424F0070453
:10398000F4E80201059393F011F9CDE9005B00EE34
:10399000100A059B4A4639465046FFF799FEB8E79C
:1039A000304609B0BDE8F08F80C6090885C6090811
:1039B0000EB403B503AA52F8041B0192FFF7D6FE1A
:0C39C00002B05DF804EB03B0704700009B
:020000040806EC
:10000000FEE700000F49D1F8883043F47003C1F8CF
:1000100088300D4B1A68002042F001021A60986087
:100020001A6822F0847222F480321A60074A5A60F9
:100030001A6822F480221A60D8604FF000638B6047
:10004000704700BF00ED00E000380240103000248F
:1000500010B5002494B02C22214609A8039423F063
:10006000E3FE294B00941A6C42F080521A641B6C18
:1000700003F080530093009B244B01941A6842F4D0
:1000800040421A601B680A9403F440430193012222
:10009000019B04944FF48033CDE9072310234FF4E0
:1000A00080000F220B930223CDE90D3002924FF016
:1000B000080EC02211930423CDE90FE212934FF4EE
:1000C000A0524FF4805307A8CDE9052327F02AFF5B
:1000D00010B10F482CF046FA109B0F99DB00B3FBD0
:1000E000F1F33021B3FBF1F201FB1232003218BF01
:1000F00001221199B3FBF1F102A82DF033FE08B1F2
:100100000448E7E714B010BD00380240007000401A
:10011000686F09087A6F09080446DFF830D00C4987
:100120000C4A0D4B03E051F8040B42F8040B9A42C1
:10013000F9D3002009490A4A01E041F8040B914231
:10014000FBD3FFF75FFF20462CF060BBF8FF0320D6
:100150006CD20A08000000201000002010000020CF
:100160004825002040F8044B40F8045B40F8046B3D
:1001700040F8047B40F8048B40F8049B40F804AB43
:1001800040F804BB40F804CB40F804DB68467047F5
:10019000024B5A690260586100207047201D002000
:1001A000024B5A6912685A61704700BF201D002037
:1001B000C460056146618761C0F81C80C0F820906A
:1001C000C0F824A0C0F828B0C0F82CD080ED0C8B6B
:1001D00080ED0E9B80ED10ABC0F808E0FFF7D8BFB4
:1001E000104A08B553690BB92CF0FCFA196858602D
:1001F00051611846C468056946698769D0F81C8052
:10020000D0F82090D0F824A0D0F828B0D0F82CD086
:1002100090ED0C8B90ED0E9B90ED10ABD0F808E0BC
:1002200001207047201D002010B50021044600F079
:10023000F7FA18B914B120460CF068FB10BD002184
:1002400000F0EEBA10B50121044600F0E9FA18B941
:1002500014B120460CF05AFB10BDFFF7E5BF10B5F6
:1002600001220C4600F01CFC18B914B120460CF019
:100270004DFB10BD00F014BC00F0A6BB2DE9F04111
:100280002A4C00250326D4F8A87200210131431816
:100290009A0803F00303BA5C5B0042FA03F303F02D
:1002A0000303022BF2D0D4F8B43209018F0803EB18
:1002B000001089B300EB870703681A0729D1D4F827
:1002C000B4125A1A4FEA121E4FEA921C99420EF0CB
:1002D00003024FEA42021CD8D4F8B812994218D946
:1002E000D4F8A88218F80C1041FA02F303F00303C3
:1002F00006FA02F2012B42EA01020AD104EB45019F
:100300003F2D08F80C209ABF0135A1F8C4E2C4F8CB
:10031000C0320430B842CFD12DB1013D04EB4503CA
:10032000B3F8C402AFE7BDE8F08100BF201D002094
:10033000F0B4194ED6E9AC53C01AC10904096B5C7C
:1003400004F007070122BA4023EA02036B54D6F8EF
:10035000BC32D6F8A8528009984238BFC6F8BC0211
:10036000295C04F00303A00803275B0007FA03F3EA
:1003700021EA03032B540134D6F8A852A00804F054
:100380000303295C5A0041FA02F202F00302022A36
:10039000EBD0F0BC704700BF201D002021F00F0300
:1003A00070B5154A154D1C1AE400A2FB0424640A1A
:1003B0000219A3EB8416C5F8B02200212246C5E934
:1003C000AD63C5E9AA0423F02FFDA2000732D208CD
:1003D0000021D5F8B00223F027FD002301214FF0C2
:1003E000FF32A5F84413C5F84C23C5F8BC322B8165
:1003F000C5F8483370BD00BFF32C23FA201D002040
:10040000024A138901331381704700BF201D002069
:10041000024A1389013B1381704700BF201D002051
:10042000024B1889003018BF01207047201D0020A2
:10043000F8B51C4C2389002201332381C4F84823DA
:10044000C4F8C02204F1080504F5FE76032755F828
:10045000042F130719D1D4F8B412501A4FEA901C84
:10046000000900F003038A424FEA43030DD3D4F896
:10047000B8128A4209D2D4F8A81211F80CE04EFA48
:1004800003F202F00302012A02D0AE42DFD1F8BD2E
:1004900007FA03F343EA0E0301F80C30FFF7EEFE10
:1004A000F3E700BF201D002079B3F8B5041F174EF5
:1004B00004EB8105032754F8043F1A0719D1D6F835
:1004C000B412581A4FEA901C000900F00302994236
:1004D0004FEA42020DD8D6F8B812994209D9D6F897
:1004E000A81211F80CE04EFA02F303F00303012BFB
:1004F00002D0A542DFD1F8BD07FA02F242EA0E02AD
:1005000001F80C20FFF7BAFEF3E77047201D00202A
:100510002DE9F04F824CD4F8AC32D4F8C02285B02B
:100520009B00002A00F0858000260325C4F8C062E5
:10053000002B6AD0002102E00131994274D2D4F834
:10054000A872880801F00302385C520040FA02F2F7
:1005500002F00302032AEFD18C460023002201326D
:1005600002EB0C004FEA900E00F0030017F80EE0CB
:1005700040004EFA00F000F003000228EFD0D4F85B
:10058000B40212014FEA920E00EB0C10A2B300EB82
:100590008E0ED0F8009019F00F0F2AD1D4F8B47253
:1005A000A9EB070C4FEA9C184FEA1C1C0CF0030245
:1005B000B9454FEA42021CD3D4F8B872B94518D2F3
:1005C000D4F8A89219F808A04AFA02F707F003072E
:1005D00005FA02F2012F42EA0A020AD104EB430AA9
:1005E0003F2B09F808209ABF0133AAF8C4C2C4F807
:1005F000C07204307045CCD183B1013B04EB43029F
:10060000D4F8A872B2F8C4C2A8E723890022013B3B
:100610002381C4F8BC2205B0BDE8F08FD4F8AC3219
:1006200001319B0099428AD3D4F8C022002A7FF47A
:100630007DAF002BE9D04FF0000E76464FF0030956
:100640004FF00108022704E0012A2FD001369E4214
:10065000DBD24FEA960AD4F8A8C206F003051CF8CC
:100660000A106D0041FA05F202F00302022A0CEBB7
:100670000A000DD0032AE7D107FA05F521EA05059E
:100680000CF80A50D4F8AC324FF0000E9B00DDE7B6
:10069000BEF1000FDAD009FA05F521EA050505706B
:1006A000D4F8AC324FF0010E9B00CFE7F308D4F83A
:1006B000B022019312F803C006F0070B4CFA0BFEB0
:1006C0001EF0010F1A44E6D03001D4F8B41251F8EC
:1006D00000E00844BEF1000F14D002AAB2210BF0D2
:1006E000B5FADDE9013242B10CF06CFBDDE9020143
:1006F0000CF038FB0CF07CFB019BD4F8B02212F814
:1007000003C01A4408FA0BFB2CEA0B0C82F800C059
:10071000D4F8A83203EB0A0013F80A10BBE700BFB5
:10072000201D0020044B1A89002101321A81C3F8D0
:10073000C012FFF7EDBE00BF201D0020374BD3E9EC
:10074000AD122DE9F047D3E9AA760023C0E90133C1
:10075000C0E90333C0E90533521A02601D46B600F2
:100760009E469C461C461A4699461946984617F8D6
:10077000093049000B4103F00303012B4AD0002B41
:1007800040D0022B02D1013545600134013296423E
:100790000ED04FEA920902F0030117F809304FEA30
:1007A000410A43FA0AF313F0030301D0012BDED10F
:1007B000012C23D0022C02D14169013141618169B0
:1007C000A14238BF846196420DD0012B06D1E0458D
:1007D0003CBFC0F80CC0E0464FF0000C4FEA920955
:1007E00002F00301C3E7C44501D9C0F80CC02D01D4
:1007F0004FEA0E13C0E90153BDE8F08701690131EA
:100800000161DCE70EF1010EC0F808E00CF1010C0B
:100810001C46BBE7013545601C46B7E7201D00209C
:100820000F302DE9F04706095AD0664D2B89002B71
:1008300056D1B5F84433002B0C460CBF4FF0010ED7
:100840004FF0000E51D1D5F8BC02D5F8AC72B842C9
:1008500039D2D5F8A8C2411E614400221AE0013203
:10086000964252D913F00C0F1ED10132964240F23B
:100870009F8013F0300F1CD10132964240F29B80D2
:1008800013F0C00F1AD10132964240F29780013026
:10089000B84218D211F8013F13F0030FDFD013F064
:1008A0000C0F4FF00002E0D013F0300F4FF00002B9
:1008B000E2D013F0C00F4FF00002E4D00130B84294
:1008C0004FF00002E6D3BEF1000F09D132F01AFD5D
:1008D000D5F8BC02D5F8AC7287424FF0010EB8D8FB
:1008E0004FF000084046BDE8F087D5E9D2239A4290
:1008F000A9D332F007FDD5F8BC02D5F8AC72B842E6
:1009000038BF4FF0010EA4D3EAE78000811A012A14
:1009100001F1010703D1431C9B08C5F8BC324FEA23
:10092000970E07F003034FEA43081CF80E900123CB
:1009300003FA08F3023143EA090388420CF80E3047
:1009400013D34FF002084FEA910CD5F8A8E201F05A
:1009500003031EF80C905B0008FA03F3013143EA2D
:10096000090388420EF80C30EDD2D5F8B4A2D5F8C0
:1009700048334FEA07190AEB09081E4412014046A2
:100980000021C5F8486323F04FFAE307AAD50023F6
:10099000D5F8B0124AF80930FA080123885C07F04C
:1009A000070703FA07F707438F544046BDE8F0876F
:1009B00080000130AAE780000230A7E78000033002
:1009C000A4E700BF201D0020F0B41A4E33897BBB82
:1009D00070B3D6E9AC53C01AC10904096B5C04F0CA
:1009E00007070122BA4023EA02036B54D6F8BC225F
:1009F00083099342D6F8A80238BFC6F8BC32C15C5E
:100A0000A50804F0030303275B0007FA03F321EAB8
:100A1000030343550134D6F8A802A50804F00303E4
:100A2000415D5A0041FA02F202F00302022AEBD0C1
:100A3000F0BC7047201D0020034610F00F001AD1B3
:100A4000164AD2F8B412994217D810B4D2F8B84264
:100A50009C420DD95B1AD2F8A8429A091B09A25CE4
:100A600003F0030149000A4102F00302012A05D004
:100A70005DF8044B704700207047704701301A182A
:100A8000910802F00302615C520041FA02F202F0A6
:100A90000302022AF2D00001EAE700BF201D002075
:100AA0002DE9F84F0B460746002800F0A480564D6C
:100AB0002C89002970D0002C70D1D5F8B402D5F85B
:100AC000AC32381A4FEA101C0CF1010E4FEA8309C0
:100AD00001F10F06F1454FEA161640F29280D5F863
:100AE000A8A24FF001084FEA9E0B0EF003031AF87C
:100AF0000BB05B004BFA03F303F00303022B51D05E
:100B000023B9013404EB0803B3424DD346453FD02B
:100B100020D34444B4424CD2002A3FD0C009D5F877
:100B2000B0321B5C0CF0070C43FA0CFC08460CF0CE
:100B30000101FFF775FE044680B34FEA08123946FB
:100B400023F02EF92B8923BB3846FFF7F1FB204613
:100B5000BDE8F88F66443046C4444FF003094FEABD
:100B6000900ED5F8A81200F0030311F80E405B00B8
:100B700009FA03F3013024EA0303604501F80E305B
:100B8000EDD1D5F8BC32B6089E4238BFC5F8BC627C
:100B90003C462046BDE8F88F002CD6D000242046E5
:100BA000BDE8F88F08F101080EF1010EF1459AD168
:100BB000ACE70CEB0802B444944510D9022190082C
:100BC000D5F8A84202F0030314F800E05B0001FA34
:100BD00003F3013243EA0E0394452354EFD1A6EB0D
:100BE0000802120107EB081000213C4623F01CF913
:100BF0002046BDE8F88F01461846BDE8F84FFFF7DC
:100C00000FBE4FF0010881E7201D002010B58AB00B
:100C100003A80B4CFFF792FD059B00932046DDE9EE
:100C200003230849A2F7C4FE069A099B0192009388
:100C30002046DDE907230449A2F7BAFE0AB010BD39
:100C400078C60908D86F0908FC6F09082DE9F04734
:100C5000DFF864A14949DAF8B4224948A2F7A8FEAE
:100C6000DAF8AC12890074D0DFF85091DFF85081C7
:100C7000434F00250CE0012E46D02E224149384634
:100C8000A2F796FEDAF8AC1201358900A94260D9C4
:100C900005F00306AA064FEA4606DAF8A8020BD0CA
:100CA000AB08C35C43FA06F606F00306022E29D011
:100CB000032EE0D16D22E1E72C46A20804F00303E5
:100CC000825C5B0042FA03F39B0702D101348C4241
:100CD000F3D3621B7F2A0CD992092B493846A2F71D
:100CE00067FEDAF8AC3224F03F05B5EB830F30D263
:100CF000002609EA051241463846A2F759FEDAF8FD
:100D0000A802CDE73D22B9E7DAF8B4121F4B2A0159
:100D10008A589A4223D01E4B9A4222D01D4B9A42A7
:100D200025D01D4B9A421ED01C4B9A421BD01C4B07
:100D30009A421AD01B4B9A4217D01B4B9A4218D09A
:100D40001A4B9A4217D01A4B9A420CBF4D22682276
:100D500094E718490A48BDE8F047A2F7E1BA5422DF
:100D60008CE74C228AE7532288E7412286E7442217
:100D700084E7462282E7422280E700BF906F09089D
:100D800078C60908D46F0908B06F090814F5090876
:100D900040E80908ECDE090894F30908E0F10908C5
:100DA000D8DB09088CDB090818E4090870E4090895
:100DB000C8E90908AC6F0908201D0020F0FF0F00EA
:100DC000CC6F0908054B02681B6A59688A4203D335
:100DD000521A0260184670471B68F6E7201D002073
:100DE000014441F20553884204D398B2002808BF59
:100DF0000120704710F8012B03EB43135340F2E737
:100E0000034B044A1A620022C3F80022704700BF55
:100E1000201D0020F8250A082DE9F04780460E46DF
:100E2000FFF7DEFF124B1C6A07460CB920461AE09A
:100E3000D4F80C90002504F1180A4D4501D124681E
:100E4000F3E7236933F81530BB420ED163695B5D6C
:100E5000B3420AD1324641465AF8250022F0FAFF41
:100E600018B960682844BDE8F0870135E5E700BFA0
:100E7000201D00202DE9F84381460E46FFF7CCFFE8
:100E80000246002840F08B80FF2E03D94549464892
:100E90000AF05EFF454CD4F80002751C90B1D4E90D
:100EA00081132B448B4229D92944FFF7E3F90746E4
:100EB000D8B90246D4F80812D4F80002FFF7DAF9DC
:100EC000C4F80072802D2F4638BF80273846FFF7C0
:100ED000B6F9C4F80002D0BB2846FFF7B0F9C4F851
:100EE000000298BB28460BF011FDD4F804322B44C5
:100EF000C4F80432D4F80032002BE3D0D4F808321E
:100F0000D4F800721D44314648461F44C4F80852C4
:100F1000FFF766FF49468046324638464FF00009E3
:100F200022F03EFF07F80690236AD3E90253AB4252
:100F300025D36D000A2D38BF0A25C5EBC500183032
:100F4000FFF77DF948B9C4F80002CBE72F4600232C
:100F5000C4F80472C4F80832D0E700F11803226A1A
:100F6000026003EB8503036103EB450343615368B0
:100F7000D268C0F80C901344C0E901352062236A9E
:100F8000D3E903215B6921F812809E54911D236AE5
:100F900043F82170D96858680131D960024410467D
:100FA000BDE8F883579E09086CE20908201D00205F
:100FB00010B5044622F070FF01462046BDE81040FF
:100FC000FFF758BF07B5019001A8FFF7FBFE019A94
:100FD000036933F8120003B05DF804FB07B5019014
:100FE00001A8FFF7EFFE019B4269D05C03B05DF8FA
:100FF00004FB07B5019001A8FFF7E4FE019B06334F
:1010000050F8230003B05DF804FB13B5019001A86C
:101010000C46FFF7D7FE019B4269D25C2260063383
:1010200050F8230002B010BD2DE9F8431D460023FF
:1010300003600B6013602B60164BDFF85C901C6A3A
:101040000746884616460CB14C4505D12B683268D8
:1010500013442B60BDE8F8833B6801333B60E268D2
:10106000D8F800301344C8F800306269E368D1183A
:101070008A4207D32046FFF7DFFC2B682468184418
:101080002860E0E7336812F8010B01330344336052
:10109000EEE700BF201D0020F8250A082DE9F843DF
:1010A0000D4B0E4F1C6ADFF83880DFF838900CB11A
:1010B000BC4201D1BDE8F883E36804F1180505EBF3
:1010C0008306B54201D32468F1E755F8042B414665
:1010D0004846A2F76DFCF4E7201D0020F8250A0819
:1010E000509E090878C6090830B50023202411F85D
:1010F000012F0AB9027030BD120600F101051FD59B
:101100000BB1047028460B78124A03F07F036BB9C9
:10111000013A12F8013F13F0800F054600F101007B
:101120000BD003F07F032B700123E0E712F9015B82
:10113000002DFBDA013BDBB2E9E700F8013CE8E710
:10114000012B04BF047028460B7800F8013B0223F2
:10115000CDE700BF4170090838B5446803680C4406
:101160009C4205460FD9037B1BB1002106480AF0BB
:10117000EFFD103424F00704083421468068FFF79F
:101180006EF82C60A86038BD6CE2090870B50446A2
:101190000E4611461546FFF7DFFFD4E901302A4617
:1011A0003146184422F028FE62682A44626070BD0D
:1011B00070B5466804468E42354628BF0D4601216B
:1011C000FFF7CAFFA368681C5919721B184422F064
:1011D00013FE6368A06801336360284470BD38B5AE
:1011E0000446081E08BF0120002520606560FFF747
:1011F0001BF82573A06038BD38B505460C46013193
:10120000FFF7EDFF6C6038BD0023C0E90132012318
:10121000016003737047000038B514460546FFF7B8
:10122000DEFF024B2560636038BD00BF8D110608EC
:10123000037B10B5044613B98068FFF71DF800233F
:10124000A36010BD38B505461020FEF7EDFF294616
:101250000446FFF7C4FF204638BD10B5044648B128
:10126000037B13B98068FFF707F82046BDE81040FC
:10127000FFF702B810BD000038B5037B04460D46E9
:101280001BB1002106480AF063FD0168806829440B
:10129000FEF7E5FF2368A0601D442560184438BDB3
:1012A0006CE2090838B504460D46FFF755FFD4E94E
:1012B00001301D446560184438BDD0E900239A42CE
:1012C00010B5044602D10121FFF7D6FFD4E901325F
:1012D0000021D154A06810BD10B50C460121FFF7C4
:1012E000E1FF047010BD7F29F8B50C46CEB204D8DA
:1012F0000121FFF7D7FF0670F8BD06F03F06B1F5F4
:10130000006FC1F3871546F0800607D20221FFF770
:10131000C9FF65F03F0505704670EDE705F03F0534
:10132000B1F5803FC1F3073745F0800508D20321AE
:10133000FFF7B8FF67F01F03037045708670DBE7A7
:101340000421FFF7AFFFA40C07F03F0364F00F0484
:1013500063F07F03047043708570C670CCE738B5C6
:10136000054608460C4622F097FD214602462846CF
:10137000BDE83840FFF70ABF10B51446FFF718FF65
:10138000047010BD10B51446FFF712FF047010BDB5
:1013900043688B422CBF5B1A00234360704738B50B
:1013A000154642688A4204460B4603D929448A42BC
:1013B00001D8436038BD8068521A0144184422F0B5
:1013C0001BFD6268521B6260F4E703781A060AD5B7
:1013D00003F07F034022134207D110F8012F02F0DF
:1013E000C001802905D01846704723EA020352083D
:1013F000F1E702F03F0242EA8313EEE7421C104697
:101400000132037803F0C003802BF8D0704700232B
:10141000814201D81846704711F8012D02F0C00230
:10142000802A18BF0133F3E70144034600209942A4
:101430001A4600D87047127802F0C002802A03F1E1
:10144000010318BF0130F2E77F289DBF024B185CF3
:10145000C0F3400000207047ADC609087F289DBF3B
:10146000024B185CC0F3C00000207047ADC60908ED
:101470007F289DBF024B185CC0F38000002070479E
:10148000ADC609087F289DBF024B185CC0F38010D1
:1014900000207047ADC609087F2809D8064B1B5CA1
:1014A00013F00C0F06D1A0F15F035842584170476A
:1014B0000020704701207047ADC609087F289DBFF6
:1014C000024B185CC0F3001000207047ADC609083D
:1014D0007F289DBF024B185CC0F34010002070476E
:1014E000ADC6090808B50246FFF7E8FF00B1203293
:1014F000104608BD08B50246FFF7EAFF00B1203AE2
:10150000104608BD3038092884BF20F02000073875
:10151000704710B501440246E5240020914203D8EB
:10152000B0FA80F0400917E012F8013B30B103F047
:10153000C003802B11D10138C0B2EFE7BF2B09D90E
:10154000F72B09D8DB0803F0060344FA03F303F092
:101550000300E3E71B06E1D510BD0020FCE70239DC
:1015600081420B4603D31A880239002AF8D002338D
:101570001B1A5810704770B51C09944215D2121BE3
:1015800001EB4401154603F00F030E46012D31F81F
:10159000024B18BF3468DC40A4B2013D20F8024B76
:1015A000F3D104B9013A104670BD0022FBE7F0B553
:1015B000059D0024521B2746A5420FD16D004419FA
:1015C00000230D449A4214D104EB42031FB10121C0
:1015D00024F812100233181A4010F0BD31F81460CC
:1015E00033F814C066443E4420F81460370C0134CC
:1015F000E2E735F813603E4424F81360370C0133FA
:10160000E0E7F0B4049E0025921B2C46AE420AD1BE
:101610007600851900230E449A420FD105EB420152
:10162000F0BCFFF79CBF31F815703C4433F81570DF
:10163000E41B20F8154024140135E7E736F81310B1
:101640000C4425F8134024140133E5E72DE9F04359
:10165000079CDDF828E0DDE9087602391546844666
:101660004FF6FF78A4EB020955B900EB42011FB118
:10167000012320F812300231BDE8F043FFF76FBFBD
:1016800031F8024F013D4444264405EB0904AC42C5
:1016900096BF33F8024B4FF6FF744444744486EA15
:1016A000040E17FA8EF72CF8027B4FEA144E360C14
:1016B0003F0CD9E738B502290446806838BF0221BB
:1016C0000D4618B12368B1EB930F07D96900FEF7F7
:1016D000C6FD2368A06065F39F03236038BD38B55D
:1016E00005460C20FEF7A0FD2A78037862F300037C
:1016F0006FF341030446037028682368C0F39D001C
:1017000060F39F0323606B6863604000FEF78CFD0D
:10171000A0602A68A968C2F39D02520022F040FB33
:10172000204638BD10B54B0018441A4409B9084684
:1017300010BD30F8023D32F8024D1B1B002B02DBBE
:1017400004D10139F2E74FF0FF30F1E70120EFE774
:1017500010B5044638B18068FEF78EFD2046BDE81E
:101760001040FEF789BD10BD38B505460C46022174
:10177000FFF7A0FF002C2B78B4BF0122002262F3F8
:1017800000032B704FF00003B8BF64426B6004B9D4
:1017900038BDD5E90132581C686022F81340240C8A
:1017A000F5E70023C0E900338360704728B1037870
:1017B0009B0702D48068FEF75FBD704738B50546C9
:1017C0000C464968FFF776FF22782B78A86862F309
:1017D00000032B7063686B606268A1685200BDE80B
:1017E000384022F0DDBA0A4629B90178426062F336
:1017F000000101707047FFF7B7BF08B5FFF7D1FFD1
:10180000BDE80840FFF7EFBF30B4046862F39F04FF
:10181000046004F0FC0444F0020400220470C0E9F7
:10182000012130BC1946FFF7DEBFF8B59DF818500E
:1018300017461E4604210446FFF73CFF3846314652
:1018400035B1002F76F100030CDA784266EB4601E1
:10185000237865F3000323700023636050EA0103DB
:1018600002D1F8BD0025F3E7D4E901325D1C6560C3
:1018700022F81300030C43EA01430A0C18461146F0
:10188000ECE72DE9F04110EE106A0378F20F62F3F5
:1018900000030370C6F30F4313F4FF43074607D159
:1018A0003B786FF300033B7000237B60BDE8F08161
:1018B000B3F5FF4FF4D0C6F3C753A3F17F04002C58
:1018C000EEDB04D10121BDE8F041FFF74DBFB3F1DC
:1018D0006F0848BFA3F16008C6F31606162C4FEA3E
:1018E000281846F4000621DCC4F11704E640002461
:1018F000254641463846FFF7DDFEC7F8048025B18E
:101900006A000021B86822F08FFA44B1BB6806FA79
:1019100004F223F81520C4F11004E6400135A8456F
:10192000C4D0BB6823F81560360CF7E7B3F1960511
:1019300004F1090448BFA3F1870504F00F042D1139
:10194000D7E72DE9F84304468F18C2F35B020D4632
:10195000511C9846089EFFF7ADFE2278002368F3DD
:1019600000022270636029461FFA86FCB9420846CD
:1019700002D3401BBDE8F8830278A2F13003092BA3
:1019800001F1010105D9A2F14103192B14D8A2F1EB
:101990003703B342EDD2D4E901E0F0468146B8F115
:1019A000000F10D100EB4E0213B120F81E300232AE
:1019B000121A52106260D9E7A2F16103192BD8D82C
:1019C000A2F15703E5E7B9F8002002FB0C3329F830
:1019D000023B08F1FF381B0CE1E7F8B50446154659
:1019E0001E46C1B1531E1E444FF0FF37E9000F31B0
:1019F00009092046FFF75EFE237800216FF30003FC
:101A0000237061604DB9D4E9011000EB4101FFF78B
:101A1000A6FD6060F8BD0127E8E700230F2908DC78
:101A200032788A401343013D9BB201F108013E44E4
:101A3000F4D16268501C6060A068103920F8123040
:101A4000E0E738B50B780578044603F0010305F0AC
:101A50000100181A0A460BD161685368994208D3ED
:101A60000AD89268A068FFF75DFEEB0748BF4042C6
:101A700038BD4FF0FF30F8E70120F6E7884210B597
:101A8000044601D0FFF79AFE23786FF3000323701A
:101A900010BD884210B5044601D0FFF78FFE636881
:101AA0003BB12378C3F30002C2F1010262F30003E9
:101AB000237010BD88421FB5044601D0FFF77EFE9B
:101AC000626862B901212046FFF7F4FDA268012394
:101AD00013806360237843F00103237010E02378C0
:101AE000D9070FD56FF30003A16823700123ADF868
:101AF0000E30009308460DF10E03FFF782FD606083
:101B000004B010BD511C2046FFF7D4FDD4E90121DB
:101B10000123ADF80E30009308460DF10E03FFF7D8
:101B200046FD6060D6E72DE9F0470E464968054658
:101B3000174601B12AB931462846BDE8F047FFF7FC
:101B40003DBE02F10F0424092144FFF7B3FD706884
:101B5000A968B36817F00F0E04EB000707F10048FF
:101B600008F1FF384FEA480801EB080C08BF4FF0B6
:101B7000100E03EB40090146E2460022CEF1100EA2
:101B800011BB6FF0010358430CEB000922FA0EF26F
:101B90002CF8002003FB049304F100420233013AC5
:101BA0001846520022F040F908F102080346434467
:101BB00017B133F8022D8AB16F6032782B7862F357
:101BC00000032B70BDE8F08739F8023D1A4322FA72
:101BD0000EF32AF8023912040139D1E7013FE7E791
:101BE000F0B50E46496885B00546144601B12AB9DC
:101BF00031462846FFF7E2FD05B0F0BDFFF75AFD7C
:101C0000D6E901212346A868FFF7B5FC6860317862
:101C10002B7861F300032B70DB070246ECD5002321
:101C20007768ADF80E3021099F4201D08B420FD169
:101C30008F42E1D9B36804F00F0433F81110012387
:101C400003FA04F4013C214213D0ADF80E3008E051
:101C5000B06830F8130050B101238F42ADF80E3058
:101C6000E8D8A96801234AB90B806B60C4E7013347
:101C7000DAE7BDF80E30002BBED0F2E7009308463D
:101C80000DF10E03FFF793FC6860B5E773B5536879
:101C90000C46496899420646154606D308D892680C
:101CA000A068FFF73FFD002802DA23462C461D46B8
:101CB00023782A7861685340DB071BD40131304612
:101CC000FFF7F8FC6B680093AB68B068D4E90121BA
:101CD000FFF76DFC706023787268C3F30003002A7D
:101CE0000CBF002303F00103327863F3000232706B
:101CF00002B070BD3046FFF7DDFC6B680093AB6847
:101D0000B068D4E90121FFF77CFCE3E7F7B553683D
:101D10000C46496899420546164606D324D892686F
:101D2000A068FFF7FFFC00281EDA2346012734468F
:101D30001E462378327861685340DB0716D501319F
:101D40002846FFF7B7FC73680093B368A868D4E926
:101D50000121FFF72CFC68606A682B7892B962F366
:101D600000032B7003B0F0BD0027E2E72846FFF721
:101D7000A1FC73680093B368A868D4E90121FFF758
:101D800040FCE8E7227802F00102002FE7D0C2F120
:101D90000102E4E72DE9F04F15464A686B689A4264
:101DA0000E463EBF2E460B461D4633787168DB0754
:101DB00085B0044621D42B7813F001071DD1FFF71D
:101DC00079FCD5E9011CA068B6683B4699420BD165
:101DD00000EB4101FFF7C3FB237860606FF3000362
:101DE000237005B0BDE8F08F36F813203CF813508F
:101DF0002A4020F813200133E8E701312046FFF79D
:101E000059FC32782F78AB68009382EA0703DB43F2
:101E100003F00103C3F1000C02F001021FFA8CF180
:101E2000C2F1000C02911FFA8CF10191B168D6F851
:101E300004E0A068A1F1020A696807F00107C7F190
:101E40000008A1EB0E011FFA88F8F44681460391C1
:101E5000BCF1000F15D100EB4E011BB1012320F89E
:101E60001E300231FFF77BFB606033782A78C3F3C2
:101E70000003C2F300021340227863F300022270D1
:101E8000AFE73AF802BF019981EA0B0B03990CF115
:101E9000FF3C5A4401EB0C0BE3459FBF009931F81E
:101EA00002BB009188EA0B0B88BFC3465F440299CE
:101EB00002EA070B8BEA010B13FA8BF329F8023BBA
:101EC0003F0C120C1B0CC3E72DE9F84F16464A686D
:101ED00073689A420D463EBF35460B461E462B7828
:101EE0006968DB0704462ED4327812F001082AD143
:101EF000FFF7E0FBD6E9013CA9686D68A768ED1A19
:101F00004246934210D15B00194400223B44954263
:101F100013D103EB4503DB1B5B10636023786FF386
:101F200000032370BDE8F88F31F812003CF812600E
:101F3000304327F812000132E3E731F8120023F8AA
:101F400012000132E3E701312046FFF7B3FBD6E987
:101F500001232F7836786968A068AD6807F001071B
:101F600006F00106C7F10008C6F1000CA5F1020E4B
:101F70001FFA88F81FFA8CFC0D4682464FF00109C3
:101F8000A2EB010B45B900EB4101FFF7E8FA23781A
:101F9000606043F00103C4E73EF8022F013D88EA88
:101FA000020217440BEB0502AA4296BF33F8022B3C
:101FB00062468CEA0202164447EA0602D24319FA44
:101FC00082F22AF8022B360C3F0C4FEA1249D9E76D
:101FD000F0B516464A6873689A4238BF0B460C46FD
:101FE0003CBF34461E462778337861685F4017F05F
:101FF000010785B005463AD1FFF75CFB237813F063
:10200000010328D1D6E90117A2686468A868641A98
:10201000994210D149000A4400230144A34214D13B
:1020200001EB4301FFF79BFA2B7868606FF3000325
:102030002B7005B0F0BD32F8136037F813C086EA94
:102040000C0620F813600133E2E732F8136021F840
:1020500013600133E2E7CDE90277019773680093DB
:10206000B368A868D4E90121FFF7F0FADCE7013191
:10207000FFF720FB3378A868DB4303F001030393E9
:102080002378DB4303F00103029301230193736878
:102090000093B368D4E90121FFF7D8FA2B78686080
:1020A00043F00103C4E72DE9F04F4B6885B00446C7
:1020B0000E4615460BB1536843B923786FF30003FE
:1020C00023700023636005B0BDE8F08F814234D1F6
:1020D000FFF705FBA5420646074600D105466B689B
:1020E000716820461944FFF7E5FA2268A068C2F338
:1020F0009D025200002121F097FEB368A168019370
:10210000AB68D6F804A002936B68039300228B1E81
